{
  "contractName": "BancorConverterUpgrader",
  "abi": [
    {
      "constant": true,
      "inputs": [],
      "name": "BANCOR_CONVERTER_UPGRADER",
      "outputs": [
        {
          "name": "",
          "type": "bytes32"
        }
      ],
      "payable": false,
      "stateMutability": "view",
      "type": "function"
    },
    {
      "constant": true,
      "inputs": [],
      "name": "BNT_TOKEN",
      "outputs": [
        {
          "name": "",
          "type": "bytes32"
        }
      ],
      "payable": false,
      "stateMutability": "view",
      "type": "function"
    },
    {
      "constant": true,
      "inputs": [],
      "name": "CONTRACT_REGISTRY",
      "outputs": [
        {
          "name": "",
          "type": "bytes32"
        }
      ],
      "payable": false,
      "stateMutability": "view",
      "type": "function"
    },
    {
      "constant": true,
      "inputs": [],
      "name": "version",
      "outputs": [
        {
          "name": "",
          "type": "string"
        }
      ],
      "payable": false,
      "stateMutability": "view",
      "type": "function"
    },
    {
      "constant": true,
      "inputs": [],
      "name": "BANCOR_CONVERTER_FACTORY",
      "outputs": [
        {
          "name": "",
          "type": "bytes32"
        }
      ],
      "payable": false,
      "stateMutability": "view",
      "type": "function"
    },
    {
      "constant": true,
      "inputs": [],
      "name": "BNT_CONVERTER",
      "outputs": [
        {
          "name": "",
          "type": "bytes32"
        }
      ],
      "payable": false,
      "stateMutability": "view",
      "type": "function"
    },
    {
      "constant": true,
      "inputs": [],
      "name": "BANCOR_FORMULA",
      "outputs": [
        {
          "name": "",
          "type": "bytes32"
        }
      ],
      "payable": false,
      "stateMutability": "view",
      "type": "function"
    },
    {
      "constant": false,
      "inputs": [],
      "name": "acceptOwnership",
      "outputs": [],
      "payable": false,
      "stateMutability": "nonpayable",
      "type": "function"
    },
    {
      "constant": true,
      "inputs": [],
      "name": "registry",
      "outputs": [
        {
          "name": "",
          "type": "address"
        }
      ],
      "payable": false,
      "stateMutability": "view",
      "type": "function"
    },
    {
      "constant": true,
      "inputs": [],
      "name": "CONTRACT_FEATURES",
      "outputs": [
        {
          "name": "",
          "type": "bytes32"
        }
      ],
      "payable": false,
      "stateMutability": "view",
      "type": "function"
    },
    {
      "constant": true,
      "inputs": [],
      "name": "owner",
      "outputs": [
        {
          "name": "",
          "type": "address"
        }
      ],
      "payable": false,
      "stateMutability": "view",
      "type": "function"
    },
    {
      "constant": true,
      "inputs": [],
      "name": "BANCOR_NETWORK",
      "outputs": [
        {
          "name": "",
          "type": "bytes32"
        }
      ],
      "payable": false,
      "stateMutability": "view",
      "type": "function"
    },
    {
      "constant": true,
      "inputs": [],
      "name": "BANCOR_GAS_PRICE_LIMIT",
      "outputs": [
        {
          "name": "",
          "type": "bytes32"
        }
      ],
      "payable": false,
      "stateMutability": "view",
      "type": "function"
    },
    {
      "constant": true,
      "inputs": [],
      "name": "CONVERTER_CONVERSION_WHITELIST",
      "outputs": [
        {
          "name": "",
          "type": "uint256"
        }
      ],
      "payable": false,
      "stateMutability": "view",
      "type": "function"
    },
    {
      "constant": true,
      "inputs": [],
      "name": "BANCOR_X",
      "outputs": [
        {
          "name": "",
          "type": "bytes32"
        }
      ],
      "payable": false,
      "stateMutability": "view",
      "type": "function"
    },
    {
      "constant": true,
      "inputs": [],
      "name": "newOwner",
      "outputs": [
        {
          "name": "",
          "type": "address"
        }
      ],
      "payable": false,
      "stateMutability": "view",
      "type": "function"
    },
    {
      "constant": false,
      "inputs": [
        {
          "name": "_newOwner",
          "type": "address"
        }
      ],
      "name": "transferOwnership",
      "outputs": [],
      "payable": false,
      "stateMutability": "nonpayable",
      "type": "function"
    },
    {
      "inputs": [
        {
          "name": "_registry",
          "type": "address"
        }
      ],
      "payable": false,
      "stateMutability": "nonpayable",
      "type": "constructor"
    },
    {
      "anonymous": false,
      "inputs": [
        {
          "indexed": true,
          "name": "_converter",
          "type": "address"
        },
        {
          "indexed": true,
          "name": "_owner",
          "type": "address"
        }
      ],
      "name": "ConverterOwned",
      "type": "event"
    },
    {
      "anonymous": false,
      "inputs": [
        {
          "indexed": true,
          "name": "_oldConverter",
          "type": "address"
        },
        {
          "indexed": true,
          "name": "_newConverter",
          "type": "address"
        }
      ],
      "name": "ConverterUpgrade",
      "type": "event"
    },
    {
      "anonymous": false,
      "inputs": [
        {
          "indexed": true,
          "name": "_prevOwner",
          "type": "address"
        },
        {
          "indexed": true,
          "name": "_newOwner",
          "type": "address"
        }
      ],
      "name": "OwnerUpdate",
      "type": "event"
    },
    {
      "constant": false,
      "inputs": [
        {
          "name": "_registry",
          "type": "address"
        }
      ],
      "name": "setRegistry",
      "outputs": [],
      "payable": false,
      "stateMutability": "nonpayable",
      "type": "function"
    },
    {
      "constant": false,
      "inputs": [
        {
          "name": "_version",
          "type": "bytes32"
        }
      ],
      "name": "upgrade",
      "outputs": [],
      "payable": false,
      "stateMutability": "nonpayable",
      "type": "function"
    },
    {
      "constant": false,
      "inputs": [
        {
          "name": "_converter",
          "type": "address"
        },
        {
          "name": "_version",
          "type": "bytes32"
        }
      ],
      "name": "upgradeOld",
      "outputs": [],
      "payable": false,
      "stateMutability": "nonpayable",
      "type": "function"
    }
  ],
  "bytecode": "0x60806040526040805190810160405280600381526020017f302e33000000000000000000000000000000000000000000000000000000000081525060029080519060200190620000519291906200010b565b503480156200005f57600080fd5b50604051602080620029cb83398101806040528101908080519060200190929190505050336000806101000a81548173ffffffffffffffffffffffffffffffffffffffff021916908373ffffffffffffffffffffffffffffffffffffffff16021790555080600360006101000a81548173ffffffffffffffffffffffffffffffffffffffff021916908373ffffffffffffffffffffffffffffffffffffffff16021790555050620001ba565b828054600181600116156101000203166002900490600052602060002090601f016020900481019282601f106200014e57805160ff19168380011785556200017f565b828001600101855582156200017f579182015b828111156200017e57825182559160200191906001019062000161565b5b5090506200018e919062000192565b5090565b620001b791905b80821115620001b357600081600090555060010162000199565b5090565b90565b61280180620001ca6000396000f300608060405260043610610112576000357c0100000000000000000000000000000000000000000000000000000000900463ffffffff1680630c87355e146101175780631d000b611461014a57806325f9bfef1461017d57806354fd4d50146101b05780635a46f06c1461024057806362614ae6146102735780636d7bd3fc146102a657806379ba5097146102d95780637b103999146102f057806383315b6e146103475780638da5cb5b1461037a5780639232494e146103d15780639249993a1461040457806392d1abb714610437578063a91ee0dc14610462578063bc444e13146104a5578063c4a8598e146104d6578063d4ee1d9014610509578063f2cfed8714610560578063f2fde38b146105b1575b600080fd5b34801561012357600080fd5b5061012c6105f4565b60405180826000191660001916815260200191505060405180910390f35b34801561015657600080fd5b5061015f610618565b60405180826000191660001916815260200191505060405180910390f35b34801561018957600080fd5b5061019261063c565b60405180826000191660001916815260200191505060405180910390f35b3480156101bc57600080fd5b506101c5610660565b6040518080602001828103825283818151815260200191508051906020019080838360005b838110156102055780820151818401526020810190506101ea565b50505050905090810190601f1680156102325780820380516001836020036101000a031916815260200191505b509250505060405180910390f35b34801561024c57600080fd5b506102556106fe565b60405180826000191660001916815260200191505060405180910390f35b34801561027f57600080fd5b50610288610722565b60405180826000191660001916815260200191505060405180910390f35b3480156102b257600080fd5b506102bb610746565b60405180826000191660001916815260200191505060405180910390f35b3480156102e557600080fd5b506102ee61076a565b005b3480156102fc57600080fd5b50610305610909565b604051808273ffffffffffffffffffffffffffffffffffffffff1673ffffffffffffffffffffffffffffffffffffffff16815260200191505060405180910390f35b34801561035357600080fd5b5061035c61092f565b60405180826000191660001916815260200191505060405180910390f35b34801561038657600080fd5b5061038f610953565b604051808273ffffffffffffffffffffffffffffffffffffffff1673ffffffffffffffffffffffffffffffffffffffff16815260200191505060405180910390f35b3480156103dd57600080fd5b506103e6610978565b60405180826000191660001916815260200191505060405180910390f35b34801561041057600080fd5b5061041961099c565b60405180826000191660001916815260200191505060405180910390f35b34801561044357600080fd5b5061044c6109c0565b6040518082815260200191505060405180910390f35b34801561046e57600080fd5b506104a3600480360381019080803573ffffffffffffffffffffffffffffffffffffffff1690602001909291905050506109c5565b005b3480156104b157600080fd5b506104d46004803603810190808035600019169060200190929190505050610a64565b005b3480156104e257600080fd5b506104eb610a71565b60405180826000191660001916815260200191505060405180910390f35b34801561051557600080fd5b5061051e610a95565b604051808273ffffffffffffffffffffffffffffffffffffffff1673ffffffffffffffffffffffffffffffffffffffff16815260200191505060405180910390f35b34801561056c57600080fd5b506105af600480360381019080803573ffffffffffffffffffffffffffffffffffffffff1690602001909291908035600019169060200190929190505050610abb565b005b3480156105bd57600080fd5b506105f2600480360381019080803573ffffffffffffffffffffffffffffffffffffffff1690602001909291905050506110ee565b005b7f42616e636f72436f6e766572746572557067726164657200000000000000000081565b7f424e54546f6b656e00000000000000000000000000000000000000000000000081565b7f436f6e747261637452656769737472790000000000000000000000000000000081565b60028054600181600116156101000203166002900480601f0160208091040260200160405190810160405280929190818152602001828054600181600116156101000203166002900480156106f65780601f106106cb576101008083540402835291602001916106f6565b820191906000526020600020905b8154815290600101906020018083116106d957829003601f168201915b505050505081565b7f42616e636f72436f6e766572746572466163746f72790000000000000000000081565b7f424e54436f6e766572746572000000000000000000000000000000000000000081565b7f42616e636f72466f726d756c610000000000000000000000000000000000000081565b600160009054906101000a900473ffffffffffffffffffffffffffffffffffffffff1673ffffffffffffffffffffffffffffffffffffffff163373ffffffffffffffffffffffffffffffffffffffff161415156107c657600080fd5b600160009054906101000a900473ffffffffffffffffffffffffffffffffffffffff1673ffffffffffffffffffffffffffffffffffffffff166000809054906101000a900473ffffffffffffffffffffffffffffffffffffffff1673ffffffffffffffffffffffffffffffffffffffff167f343765429aea5a34b3ff6a3785a98a5abb2597aca87bfbb58632c173d585373a60405160405180910390a3600160009054906101000a900473ffffffffffffffffffffffffffffffffffffffff166000806101000a81548173ffffffffffffffffffffffffffffffffffffffff021916908373ffffffffffffffffffffffffffffffffffffffff1602179055506000600160006101000a81548173ffffffffffffffffffffffffffffffffffffffff021916908373ffffffffffffffffffffffffffffffffffffffff160217905550565b600360009054906101000a900473ffffffffffffffffffffffffffffffffffffffff1681565b7f436f6e747261637446656174757265730000000000000000000000000000000081565b6000809054906101000a900473ffffffffffffffffffffffffffffffffffffffff1681565b7f42616e636f724e6574776f726b0000000000000000000000000000000000000081565b7f42616e636f7247617350726963654c696d69740000000000000000000000000081565b600181565b6000809054906101000a900473ffffffffffffffffffffffffffffffffffffffff1673ffffffffffffffffffffffffffffffffffffffff163373ffffffffffffffffffffffffffffffffffffffff16141515610a2057600080fd5b80600360006101000a81548173ffffffffffffffffffffffffffffffffffffffff021916908373ffffffffffffffffffffffffffffffffffffffff16021790555050565b610a6e3382610abb565b50565b7f42616e636f72580000000000000000000000000000000000000000000000000081565b600160009054906101000a900473ffffffffffffffffffffffffffffffffffffffff1681565b60008060008060008094507f302e34000000000000000000000000000000000000000000000000000000000086600019161415610af757600194505b8693508373ffffffffffffffffffffffffffffffffffffffff16638da5cb5b6040518163ffffffff167c0100000000000000000000000000000000000000000000000000000000028152600401602060405180830381600087803b158015610b5e57600080fd5b505af1158015610b72573d6000803e3d6000fd5b505050506040513d6020811015610b8857600080fd5b81019080805190602001909291905050509250610ba4846111e9565b610bad846112c2565b9150610bba848387611afb565b610bc48483611fc4565b610bcf8483876120ff565b8373ffffffffffffffffffffffffffffffffffffffff1663fc0c546a6040518163ffffffff167c0100000000000000000000000000000000000000000000000000000000028152600401602060405180830381600087803b158015610c3357600080fd5b505af1158015610c47573d6000803e3d6000fd5b505050506040513d6020811015610c5d57600080fd5b810190808051906020019092919050505090508373ffffffffffffffffffffffffffffffffffffffff168173ffffffffffffffffffffffffffffffffffffffff16638da5cb5b6040518163ffffffff167c0100000000000000000000000000000000000000000000000000000000028152600401602060405180830381600087803b158015610ceb57600080fd5b505af1158015610cff573d6000803e3d6000fd5b505050506040513d6020811015610d1557600080fd5b810190808051906020019092919050505073ffffffffffffffffffffffffffffffffffffffff161415610e72578373ffffffffffffffffffffffffffffffffffffffff166321e6b53d836040518263ffffffff167c0100000000000000000000000000000000000000000000000000000000028152600401808273ffffffffffffffffffffffffffffffffffffffff1673ffffffffffffffffffffffffffffffffffffffff168152602001915050600060405180830381600087803b158015610ddd57600080fd5b505af1158015610df1573d6000803e3d6000fd5b505050508173ffffffffffffffffffffffffffffffffffffffff166338a5e0166040518163ffffffff167c0100000000000000000000000000000000000000000000000000000000028152600401600060405180830381600087803b158015610e5957600080fd5b505af1158015610e6d573d6000803e3d6000fd5b505050505b8373ffffffffffffffffffffffffffffffffffffffff1663f2fde38b846040518263ffffffff167c0100000000000000000000000000000000000000000000000000000000028152600401808273ffffffffffffffffffffffffffffffffffffffff1673ffffffffffffffffffffffffffffffffffffffff168152602001915050600060405180830381600087803b158015610f0d57600080fd5b505af1158015610f21573d6000803e3d6000fd5b505050508173ffffffffffffffffffffffffffffffffffffffff1663f2fde38b846040518263ffffffff167c0100000000000000000000000000000000000000000000000000000000028152600401808273ffffffffffffffffffffffffffffffffffffffff1673ffffffffffffffffffffffffffffffffffffffff168152602001915050600060405180830381600087803b158015610fc057600080fd5b505af1158015610fd4573d6000803e3d6000fd5b505050508173ffffffffffffffffffffffffffffffffffffffff1663e4edf852846040518263ffffffff167c0100000000000000000000000000000000000000000000000000000000028152600401808273ffffffffffffffffffffffffffffffffffffffff1673ffffffffffffffffffffffffffffffffffffffff168152602001915050600060405180830381600087803b15801561107357600080fd5b505af1158015611087573d6000803e3d6000fd5b505050508173ffffffffffffffffffffffffffffffffffffffff168473ffffffffffffffffffffffffffffffffffffffff167f522b846327aea07106ec4d64ae4b6d6dea47689884dab650fd3a1f2e1d6a270160405160405180910390a350505050505050565b6000809054906101000a900473ffffffffffffffffffffffffffffffffffffffff1673ffffffffffffffffffffffffffffffffffffffff163373ffffffffffffffffffffffffffffffffffffffff1614151561114957600080fd5b6000809054906101000a900473ffffffffffffffffffffffffffffffffffffffff1673ffffffffffffffffffffffffffffffffffffffff168173ffffffffffffffffffffffffffffffffffffffff16141515156111a557600080fd5b80600160006101000a81548173ffffffffffffffffffffffffffffffffffffffff021916908373ffffffffffffffffffffffffffffffffffffffff16021790555050565b8073ffffffffffffffffffffffffffffffffffffffff166379ba50976040518163ffffffff167c0100000000000000000000000000000000000000000000000000000000028152600401600060405180830381600087803b15801561124d57600080fd5b505af1158015611261573d6000803e3d6000fd5b505050503073ffffffffffffffffffffffffffffffffffffffff168173ffffffffffffffffffffffffffffffffffffffff167ff764604894fa993d4370a9cb28b81c11deb1aafdb2909156173ae3833dad807560405160405180910390a350565b6000806000806000806000808873ffffffffffffffffffffffffffffffffffffffff1663fc0c546a6040518163ffffffff167c0100000000000000000000000000000000000000000000000000000000028152600401602060405180830381600087803b15801561133257600080fd5b505af1158015611346573d6000803e3d6000fd5b505050506040513d602081101561135c57600080fd5b810190808051906020019092919050505095508873ffffffffffffffffffffffffffffffffffffffff166394c275ad6040518163ffffffff167c0100000000000000000000000000000000000000000000000000000000028152600401602060405180830381600087803b1580156113d357600080fd5b505af11580156113e7573d6000803e3d6000fd5b505050506040513d60208110156113fd57600080fd5b81019080805190602001909291905050509450600360009054906101000a900473ffffffffffffffffffffffffffffffffffffffff1673ffffffffffffffffffffffffffffffffffffffff1663bb34534c7f42616e636f72436f6e766572746572466163746f7279000000000000000000006040518263ffffffff167c0100000000000000000000000000000000000000000000000000000000028152600401808260001916600019168152602001915050602060405180830381600087803b1580156114c957600080fd5b505af11580156114dd573d6000803e3d6000fd5b505050506040513d60208110156114f357600080fd5b810190808051906020019092919050505093508373ffffffffffffffffffffffffffffffffffffffff1663034efaeb87600360009054906101000a900473ffffffffffffffffffffffffffffffffffffffff16886000806040518663ffffffff167c0100000000000000000000000000000000000000000000000000000000028152600401808673ffffffffffffffffffffffffffffffffffffffff1673ffffffffffffffffffffffffffffffffffffffff1681526020018573ffffffffffffffffffffffffffffffffffffffff1673ffffffffffffffffffffffffffffffffffffffff1681526020018463ffffffff1663ffffffff1681526020018373ffffffffffffffffffffffffffffffffffffffff1673ffffffffffffffffffffffffffffffffffffffff1681526020018263ffffffff16815260200195505050505050602060405180830381600087803b15801561164e57600080fd5b505af1158015611662573d6000803e3d6000fd5b505050506040513d602081101561167857600080fd5b810190808051906020019092919050505092508291508173ffffffffffffffffffffffffffffffffffffffff166379ba50976040518163ffffffff167c0100000000000000000000000000000000000000000000000000000000028152600401600060405180830381600087803b1580156116f257600080fd5b505af1158015611706573d6000803e3d6000fd5b505050508173ffffffffffffffffffffffffffffffffffffffff1663c8c2fe6c6040518163ffffffff167c0100000000000000000000000000000000000000000000000000000000028152600401600060405180830381600087803b15801561176e57600080fd5b505af1158015611782573d6000803e3d6000fd5b50505050600360009054906101000a900473ffffffffffffffffffffffffffffffffffffffff1673ffffffffffffffffffffffffffffffffffffffff1663bb34534c7f436f6e74726163744665617475726573000000000000000000000000000000006040518263ffffffff167c0100000000000000000000000000000000000000000000000000000000028152600401808260001916600019168152602001915050602060405180830381600087803b15801561183f57600080fd5b505af1158015611853573d6000803e3d6000fd5b505050506040513d602081101561186957600080fd5b810190808051906020019092919050505090508073ffffffffffffffffffffffffffffffffffffffff1663a5fbf2878a60016040518363ffffffff167c0100000000000000000000000000000000000000000000000000000000028152600401808373ffffffffffffffffffffffffffffffffffffffff1673ffffffffffffffffffffffffffffffffffffffff16815260200182815260200192505050602060405180830381600087803b15801561192057600080fd5b505af1158015611934573d6000803e3d6000fd5b505050506040513d602081101561194a57600080fd5b810190808051906020019092919050505015611aec578873ffffffffffffffffffffffffffffffffffffffff1663c45d3d926040518163ffffffff167c0100000000000000000000000000000000000000000000000000000000028152600401602060405180830381600087803b1580156119c457600080fd5b505af11580156119d8573d6000803e3d6000fd5b505050506040513d60208110156119ee57600080fd5b81019080805190602001909291905050509650600073ffffffffffffffffffffffffffffffffffffffff168773ffffffffffffffffffffffffffffffffffffffff16141515611aeb578173ffffffffffffffffffffffffffffffffffffffff16634af80f0e886040518263ffffffff167c0100000000000000000000000000000000000000000000000000000000028152600401808273ffffffffffffffffffffffffffffffffffffffff1673ffffffffffffffffffffffffffffffffffffffff168152602001915050600060405180830381600087803b158015611ad257600080fd5b505af1158015611ae6573d6000803e3d6000fd5b505050505b5b81975050505050505050919050565b600080600080600080600080600089611bb2578b73ffffffffffffffffffffffffffffffffffffffff166371f52bf36040518163ffffffff167c0100000000000000000000000000000000000000000000000000000000028152600401602060405180830381600087803b158015611b7257600080fd5b505af1158015611b86573d6000803e3d6000fd5b505050506040513d6020811015611b9c57600080fd5b8101908080519060200190929190505050611c52565b8b73ffffffffffffffffffffffffffffffffffffffff16639b99a8e26040518163ffffffff167c0100000000000000000000000000000000000000000000000000000000028152600401602060405180830381600087803b158015611c1657600080fd5b505af1158015611c2a573d6000803e3d6000fd5b505050506040513d6020811015611c4057600080fd5b81019080805190602001909291905050505b9350600092505b8361ffff168361ffff161015611fb65789611d21578b73ffffffffffffffffffffffffffffffffffffffff166319b64015846040518263ffffffff167c0100000000000000000000000000000000000000000000000000000000028152600401808261ffff168152602001915050602060405180830381600087803b158015611ce157600080fd5b505af1158015611cf5573d6000803e3d6000fd5b505050506040513d6020811015611d0b57600080fd5b8101908080519060200190929190505050611dd0565b8b73ffffffffffffffffffffffffffffffffffffffff1663d031370b846040518263ffffffff167c0100000000000000000000000000000000000000000000000000000000028152600401808261ffff168152602001915050602060405180830381600087803b158015611d9457600080fd5b505af1158015611da8573d6000803e3d6000fd5b505050506040513d6020811015611dbe57600080fd5b81019080805190602001909291905050505b9150611ddd8c838c6125b1565b809950819a50829b50839c50849d5050505050508190508a73ffffffffffffffffffffffffffffffffffffffff16633f4d2fc2828a8a6040518463ffffffff167c0100000000000000000000000000000000000000000000000000000000028152600401808473ffffffffffffffffffffffffffffffffffffffff1673ffffffffffffffffffffffffffffffffffffffff1681526020018363ffffffff1663ffffffff168152602001821515151581526020019350505050600060405180830381600087803b158015611eaf57600080fd5b505af1158015611ec3573d6000803e3d6000fd5b505050508615611fa9578a73ffffffffffffffffffffffffffffffffffffffff16630ca78923828a8a8d6040518563ffffffff167c0100000000000000000000000000000000000000000000000000000000028152600401808573ffffffffffffffffffffffffffffffffffffffff1673ffffffffffffffffffffffffffffffffffffffff1681526020018463ffffffff1663ffffffff16815260200183151515158152602001828152602001945050505050600060405180830381600087803b158015611f9057600080fd5b505af1158015611fa4573d6000803e3d6000fd5b505050505b8280600101935050611c59565b505050505050505050505050565b60008273ffffffffffffffffffffffffffffffffffffffff1663579cd3ca6040518163ffffffff167c0100000000000000000000000000000000000000000000000000000000028152600401602060405180830381600087803b15801561202a57600080fd5b505af115801561203e573d6000803e3d6000fd5b505050506040513d602081101561205457600080fd5b810190808051906020019092919050505090508173ffffffffffffffffffffffffffffffffffffffff1663ecbca55d826040518263ffffffff167c0100000000000000000000000000000000000000000000000000000000028152600401808263ffffffff1663ffffffff168152602001915050600060405180830381600087803b1580156120e257600080fd5b505af11580156120f6573d6000803e3d6000fd5b50505050505050565b6000806000806000856121b0578773ffffffffffffffffffffffffffffffffffffffff166371f52bf36040518163ffffffff167c0100000000000000000000000000000000000000000000000000000000028152600401602060405180830381600087803b15801561217057600080fd5b505af1158015612184573d6000803e3d6000fd5b505050506040513d602081101561219a57600080fd5b8101908080519060200190929190505050612250565b8773ffffffffffffffffffffffffffffffffffffffff16639b99a8e26040518163ffffffff167c0100000000000000000000000000000000000000000000000000000000028152600401602060405180830381600087803b15801561221457600080fd5b505af1158015612228573d6000803e3d6000fd5b505050506040513d602081101561223e57600080fd5b81019080805190602001909291905050505b9350600092505b8361ffff168361ffff1610156125a7578561231f578773ffffffffffffffffffffffffffffffffffffffff166319b64015846040518263ffffffff167c0100000000000000000000000000000000000000000000000000000000028152600401808261ffff168152602001915050602060405180830381600087803b1580156122df57600080fd5b505af11580156122f3573d6000803e3d6000fd5b505050506040513d602081101561230957600080fd5b81019080805190602001909291905050506123ce565b8773ffffffffffffffffffffffffffffffffffffffff1663d031370b846040518263ffffffff167c0100000000000000000000000000000000000000000000000000000000028152600401808261ffff168152602001915050602060405180830381600087803b15801561239257600080fd5b505af11580156123a6573d6000803e3d6000fd5b505050506040513d60208110156123bc57600080fd5b81019080805190602001909291905050505b91508190508073ffffffffffffffffffffffffffffffffffffffff166370a08231896040518263ffffffff167c0100000000000000000000000000000000000000000000000000000000028152600401808273ffffffffffffffffffffffffffffffffffffffff1673ffffffffffffffffffffffffffffffffffffffff168152602001915050602060405180830381600087803b15801561246e57600080fd5b505af1158015612482573d6000803e3d6000fd5b505050506040513d602081101561249857600080fd5b810190808051906020019092919050505094508773ffffffffffffffffffffffffffffffffffffffff16635e35359e8289886040518463ffffffff167c0100000000000000000000000000000000000000000000000000000000028152600401808473ffffffffffffffffffffffffffffffffffffffff1673ffffffffffffffffffffffffffffffffffffffff1681526020018373ffffffffffffffffffffffffffffffffffffffff1673ffffffffffffffffffffffffffffffffffffffff1681526020018281526020019350505050600060405180830381600087803b15801561258257600080fd5b505af1158015612596573d6000803e3d6000fd5b505050508280600101935050612257565b5050505050505050565b6000806000806000856126c1578773ffffffffffffffffffffffffffffffffffffffff16630e53aae9886040518263ffffffff167c0100000000000000000000000000000000000000000000000000000000028152600401808273ffffffffffffffffffffffffffffffffffffffff1673ffffffffffffffffffffffffffffffffffffffff16815260200191505060a060405180830381600087803b15801561265957600080fd5b505af115801561266d573d6000803e3d6000fd5b505050506040513d60a081101561268357600080fd5b8101908080519060200190929190805190602001909291908051906020019092919080519060200190929190805190602001909291905050506127c0565b8773ffffffffffffffffffffffffffffffffffffffff1663d66bd524886040518263ffffffff167c0100000000000000000000000000000000000000000000000000000000028152600401808273ffffffffffffffffffffffffffffffffffffffff1673ffffffffffffffffffffffffffffffffffffffff16815260200191505060a060405180830381600087803b15801561275c57600080fd5b505af1158015612770573d6000803e3d6000fd5b505050506040513d60a081101561278657600080fd5b8101908080519060200190929190805190602001909291908051906020019092919080519060200190929190805190602001909291905050505b945094509450945094509397929650935093505600a165627a7a72305820b0c5c97ddb88e4d7b9fe1a9dd3b5027f005ca0c0580679754ce77a32cbe96e690029",
  "source": "pragma solidity ^0.4.24;\nimport './interfaces/IBancorConverter.sol';\nimport './interfaces/IBancorConverterUpgrader.sol';\nimport './interfaces/IBancorConverterFactory.sol';\nimport '../utility/Owned.sol';\nimport '../utility/interfaces/IContractRegistry.sol';\nimport '../utility/interfaces/IContractFeatures.sol';\nimport '../utility/interfaces/IWhitelist.sol';\nimport '../ContractIds.sol';\nimport '../FeatureIds.sol';\n\n/*\n    Bancor converter dedicated interface\n*/\ncontract IBancorConverterExtended is IBancorConverter, IOwned {\n    function token() public view returns (ISmartToken) {}\n    function maxConversionFee() public view returns (uint32) {}\n    function conversionFee() public view returns (uint32) {}\n    function connectorTokenCount() public view returns (uint16);\n    function reserveTokenCount() public view returns (uint16);\n    function connectorTokens(uint256 _index) public view returns (IERC20Token) { _index; }\n    function reserveTokens(uint256 _index) public view returns (IERC20Token) { _index; }\n    function setConversionWhitelist(IWhitelist _whitelist) public;\n    function transferTokenOwnership(address _newOwner) public;\n    function withdrawTokens(IERC20Token _token, address _to, uint256 _amount) public;\n    function acceptTokenOwnership() public;\n    function transferManagement(address _newManager) public;\n    function acceptManagement() public;\n    function setConversionFee(uint32 _conversionFee) public;\n    function addConnector(IERC20Token _token, uint32 _weight, bool _enableVirtualBalance) public;\n    function updateConnector(IERC20Token _connectorToken, uint32 _weight, bool _enableVirtualBalance, uint256 _virtualBalance) public;\n    function getConnectorBalance(IERC20Token _connectorToken) public view returns (uint256);\n    function getReserveBalance(IERC20Token _reserveToken) public view returns (uint256);\n    function reserves(address _address) public view returns (\n        uint256 virtualBalance, \n        uint32 weight, \n        bool isVirtualBalanceEnabled, \n        bool isPurchaseEnabled, \n        bool isSet\n    );\n}\n\n/*\n    Bancor Converter Upgrader\n\n    The Bancor converter upgrader contract allows upgrading an older Bancor converter\n    contract (0.4 and up) to the latest version.\n    To begin the upgrade process, first transfer the converter ownership to the upgrader\n    contract and then call the upgrade function.\n    At the end of the process, the ownership of the newly upgraded converter will be transferred\n    back to the original owner.\n    The address of the new converter is available in the ConverterUpgrade event.\n*/\ncontract BancorConverterUpgrader is IBancorConverterUpgrader, Owned, ContractIds, FeatureIds {\n    string public version = '0.3';\n\n    IContractRegistry public registry;                      // contract registry contract address\n\n    // triggered when the contract accept a converter ownership\n    event ConverterOwned(address indexed _converter, address indexed _owner);\n    // triggered when the upgrading process is done\n    event ConverterUpgrade(address indexed _oldConverter, address indexed _newConverter);\n\n    /**\n        @dev constructor\n    */\n    constructor(IContractRegistry _registry) public {\n        registry = _registry;\n    }\n\n    /*\n        @dev allows the owner to update the contract registry contract address\n\n        @param _registry   address of a contract registry contract\n    */\n    function setRegistry(IContractRegistry _registry) public ownerOnly {\n        registry = _registry;\n    }\n\n    /**\n        @dev upgrades an old converter to the latest version\n        will throw if ownership wasn't transferred to the upgrader before calling this function.\n        ownership of the new converter will be transferred back to the original owner.\n        fires the ConverterUpgrade event upon success.\n        can only be called by a converter\n\n        @param _version old converter version\n    */\n    function upgrade(bytes32 _version) public {\n        upgradeOld(IBancorConverter(msg.sender), _version);\n    }\n\n    /**\n        @dev upgrades an old converter to the latest version\n        will throw if ownership wasn't transferred to the upgrader before calling this function.\n        ownership of the new converter will be transferred back to the original owner.\n        fires the ConverterUpgrade event upon success.\n\n        @param _converter   old converter contract address\n        @param _version     old converter version\n    */\n    function upgradeOld(IBancorConverter _converter, bytes32 _version) public {\n        bool formerVersions = false;\n        if (_version == \"0.4\")\n            formerVersions = true;\n        IBancorConverterExtended converter = IBancorConverterExtended(_converter);\n        address prevOwner = converter.owner();\n        acceptConverterOwnership(converter);\n        IBancorConverterExtended newConverter = createConverter(converter);\n        copyConnectors(converter, newConverter, formerVersions);\n        copyConversionFee(converter, newConverter);\n        transferConnectorsBalances(converter, newConverter, formerVersions);                \n        ISmartToken token = converter.token();\n\n        if (token.owner() == address(converter)) {\n            converter.transferTokenOwnership(newConverter);\n            newConverter.acceptTokenOwnership();\n        }\n\n        converter.transferOwnership(prevOwner);\n        newConverter.transferOwnership(prevOwner);\n        newConverter.transferManagement(prevOwner);\n\n        emit ConverterUpgrade(address(converter), address(newConverter));\n    }\n\n    /**\n        @dev the first step when upgrading a converter is to transfer the ownership to the local contract.\n        the upgrader contract then needs to accept the ownership transfer before initiating\n        the upgrade process.\n        fires the ConverterOwned event upon success\n\n        @param _oldConverter       converter to accept ownership of\n    */\n    function acceptConverterOwnership(IBancorConverterExtended _oldConverter) private {\n        _oldConverter.acceptOwnership();\n        emit ConverterOwned(_oldConverter, this);\n    }\n\n    /**\n        @dev creates a new converter with same basic data as the original old converter\n        the newly created converter will have no connectors at this step.\n\n        @param _oldConverter    old converter contract address\n\n        @return the new converter  new converter contract address\n    */\n    function createConverter(IBancorConverterExtended _oldConverter) private returns(IBancorConverterExtended) {\n        IWhitelist whitelist;\n        ISmartToken token = _oldConverter.token();\n        uint32 maxConversionFee = _oldConverter.maxConversionFee();\n\n        IBancorConverterFactory converterFactory = IBancorConverterFactory(registry.addressOf(ContractIds.BANCOR_CONVERTER_FACTORY));\n        address converterAddress  = converterFactory.createConverter(\n            token,\n            registry,\n            maxConversionFee,\n            IERC20Token(address(0)),\n            0\n        );\n\n        IBancorConverterExtended converter = IBancorConverterExtended(converterAddress);\n        converter.acceptOwnership();\n        converter.acceptManagement();\n\n        // get the contract features address from the registry\n        IContractFeatures features = IContractFeatures(registry.addressOf(ContractIds.CONTRACT_FEATURES));\n\n        if (features.isSupported(_oldConverter, FeatureIds.CONVERTER_CONVERSION_WHITELIST)) {\n            whitelist = _oldConverter.conversionWhitelist();\n            if (whitelist != address(0))\n                converter.setConversionWhitelist(whitelist);\n        }\n\n        return converter;\n    }\n\n    /**\n        @dev copies the connectors from the old converter to the new one.\n        note that this will not work for an unlimited number of connectors due to block gas limit constraints.\n\n        @param _oldConverter    old converter contract address\n        @param _newConverter    new converter contract address\n        @param _isLegacyVersion true if the converter version is under 0.5\n    */\n    function copyConnectors(IBancorConverterExtended _oldConverter, IBancorConverterExtended _newConverter, bool _isLegacyVersion)\n        private\n    {\n        uint256 virtualBalance;\n        uint32 weight;\n        bool isVirtualBalanceEnabled;\n        bool isPurchaseEnabled;\n        bool isSet;\n        uint16 connectorTokenCount = _isLegacyVersion ? _oldConverter.reserveTokenCount() : _oldConverter.connectorTokenCount();\n\n        for (uint16 i = 0; i < connectorTokenCount; i++) {\n            address connectorAddress = _isLegacyVersion ? _oldConverter.reserveTokens(i) : _oldConverter.connectorTokens(i);\n            (virtualBalance, weight, isVirtualBalanceEnabled, isPurchaseEnabled, isSet) = readConnector(\n                _oldConverter,\n                connectorAddress,\n                _isLegacyVersion\n            );\n\n            IERC20Token connectorToken = IERC20Token(connectorAddress);\n            _newConverter.addConnector(connectorToken, weight, isVirtualBalanceEnabled);\n\n            if (isVirtualBalanceEnabled)\n                _newConverter.updateConnector(connectorToken, weight, isVirtualBalanceEnabled, virtualBalance);\n        }\n    }\n\n    /**\n        @dev copies the conversion fee from the old converter to the new one\n\n        @param _oldConverter    old converter contract address\n        @param _newConverter    new converter contract address\n    */\n    function copyConversionFee(IBancorConverterExtended _oldConverter, IBancorConverterExtended _newConverter) private {\n        uint32 conversionFee = _oldConverter.conversionFee();\n        _newConverter.setConversionFee(conversionFee);\n    }\n\n    /**\n        @dev transfers the balance of each connector in the old converter to the new one.\n        note that the function assumes that the new converter already has the exact same number of\n        also, this will not work for an unlimited number of connectors due to block gas limit constraints.\n\n        @param _oldConverter    old converter contract address\n        @param _newConverter    new converter contract address\n        @param _isLegacyVersion true if the converter version is under 0.5\n    */\n    function transferConnectorsBalances(IBancorConverterExtended _oldConverter, IBancorConverterExtended _newConverter, bool _isLegacyVersion)\n        private\n    {\n        uint256 connectorBalance;\n        uint16 connectorTokenCount = _isLegacyVersion ? _oldConverter.reserveTokenCount() : _oldConverter.connectorTokenCount();\n\n        for (uint16 i = 0; i < connectorTokenCount; i++) {\n            address connectorAddress = _isLegacyVersion ? _oldConverter.reserveTokens(i) : _oldConverter.connectorTokens(i);\n            IERC20Token connector = IERC20Token(connectorAddress);\n            connectorBalance = connector.balanceOf(_oldConverter);\n            _oldConverter.withdrawTokens(connector, address(_newConverter), connectorBalance);\n        }\n    }\n\n    /**\n        @dev returns the connector settings\n\n        @param _converter       old converter contract address\n        @param _address         connector's address to read from\n        @param _isLegacyVersion true if the converter version is under 0.5\n\n        @return connector's settings\n    */\n    function readConnector(IBancorConverterExtended _converter, address _address, bool _isLegacyVersion) \n        private\n        view\n        returns(uint256 virtualBalance, uint32 weight, bool isVirtualBalanceEnabled, bool isPurchaseEnabled, bool isSet)\n    {\n        return _isLegacyVersion ? _converter.reserves(_address) : _converter.connectors(_address);\n    }\n}",
  "sourcePath": "/home/volt/tmp/BatchedBondingCurves/contracts/BancorContracts/converter/BancorConverterUpgrader.sol",
  "compiler": {
    "name": "solc",
    "version": "0.4.24+commit.e67f0147.Emscripten.clang"
  },
  "schemaVersion": "3.0.0-beta.0",
  "updatedAt": "2019-01-02T14:26:53.757Z"
}