{
  "contractName": "BancorConverterFactory",
  "abi": [
    {
      "inputs": [],
      "payable": false,
      "stateMutability": "nonpayable",
      "type": "constructor"
    },
    {
      "anonymous": false,
      "inputs": [
        {
          "indexed": true,
          "name": "_converter",
          "type": "address"
        },
        {
          "indexed": true,
          "name": "_owner",
          "type": "address"
        }
      ],
      "name": "NewConverter",
      "type": "event"
    },
    {
      "constant": false,
      "inputs": [
        {
          "name": "_token",
          "type": "address"
        },
        {
          "name": "_registry",
          "type": "address"
        },
        {
          "name": "_maxConversionFee",
          "type": "uint32"
        },
        {
          "name": "_connectorToken",
          "type": "address"
        },
        {
          "name": "_connectorWeight",
          "type": "uint32"
        }
      ],
      "name": "createConverter",
      "outputs": [
        {
          "name": "converterAddress",
          "type": "address"
        }
      ],
      "payable": false,
      "stateMutability": "nonpayable",
      "type": "function"
    }
  ],
  "bytecode": "0x608060405234801561001057600080fd5b50618611806100206000396000f300608060405260043610610041576000357c0100000000000000000000000000000000000000000000000000000000900463ffffffff168063034efaeb14610046575b600080fd5b34801561005257600080fd5b506100e7600480360381019080803573ffffffffffffffffffffffffffffffffffffffff169060200190929190803573ffffffffffffffffffffffffffffffffffffffff169060200190929190803563ffffffff169060200190929190803573ffffffffffffffffffffffffffffffffffffffff169060200190929190803563ffffffff169060200190929190505050610129565b604051808273ffffffffffffffffffffffffffffffffffffffff1673ffffffffffffffffffffffffffffffffffffffff16815260200191505060405180910390f35b6000806000878787878761013b6103ed565b808673ffffffffffffffffffffffffffffffffffffffff1673ffffffffffffffffffffffffffffffffffffffff1681526020018573ffffffffffffffffffffffffffffffffffffffff1673ffffffffffffffffffffffffffffffffffffffff1681526020018463ffffffff1663ffffffff1681526020018373ffffffffffffffffffffffffffffffffffffffff1673ffffffffffffffffffffffffffffffffffffffff1681526020018263ffffffff1663ffffffff16815260200195505050505050604051809103906000f080158015610219573d6000803e3d6000fd5b5091508173ffffffffffffffffffffffffffffffffffffffff1663f2fde38b336040518263ffffffff167c0100000000000000000000000000000000000000000000000000000000028152600401808273ffffffffffffffffffffffffffffffffffffffff1673ffffffffffffffffffffffffffffffffffffffff168152602001915050600060405180830381600087803b1580156102b757600080fd5b505af11580156102cb573d6000803e3d6000fd5b505050508173ffffffffffffffffffffffffffffffffffffffff1663e4edf852336040518263ffffffff167c0100000000000000000000000000000000000000000000000000000000028152600401808273ffffffffffffffffffffffffffffffffffffffff1673ffffffffffffffffffffffffffffffffffffffff168152602001915050600060405180830381600087803b15801561036a57600080fd5b505af115801561037e573d6000803e3d6000fd5b505050508190503373ffffffffffffffffffffffffffffffffffffffff168173ffffffffffffffffffffffffffffffffffffffff167fb54eb8f70476910bea510b4ca1ece1fdb11eeb345b0d46221dd40ba86e64953360405160405180910390a3809250505095945050505050565b6040516181e780620003ff83390190560060806040527f302e3131000000000000000000000000000000000000000000000000000000006005906000191690556040805190810160405280600681526020017f62616e636f720000000000000000000000000000000000000000000000000000815250600690805190602001906200007b92919062000b21565b506001600760006101000a81548160ff0219169083151502179055506000600760016101000a81548160ff0219169083151502179055506000600c60006101000a81548163ffffffff021916908363ffffffff1602179055506000600c60046101000a81548163ffffffff021916908363ffffffff1602179055506000600c60086101000a81548163ffffffff021916908363ffffffff1602179055506001600c806101000a81548160ff0219169083151502179055503480156200013f57600080fd5b5060405160a080620081e78339810180604052810190808051906020019092919080519060200190929190805190602001909291908051906020019092919080519060200190929190505050600085336000806101000a81548173ffffffffffffffffffffffffffffffffffffffff021916908373ffffffffffffffffffffffffffffffffffffffff16021790555080600073ffffffffffffffffffffffffffffffffffffffff168173ffffffffffffffffffffffffffffffffffffffff16141515156200020c57600080fd5b81600260006101000a81548173ffffffffffffffffffffffffffffffffffffffff021916908373ffffffffffffffffffffffffffffffffffffffff160217905550505033600360006101000a81548173ffffffffffffffffffffffffffffffffffffffff021916908373ffffffffffffffffffffffffffffffffffffffff16021790555084600073ffffffffffffffffffffffffffffffffffffffff168173ffffffffffffffffffffffffffffffffffffffff1614151515620002ce57600080fd5b8460008163ffffffff1610158015620002fa5750620f424067ffffffffffffffff168163ffffffff1611155b15156200030657600080fd5b86600860006101000a81548173ffffffffffffffffffffffffffffffffffffffff021916908373ffffffffffffffffffffffffffffffffffffffff16021790555086600760026101000a81548173ffffffffffffffffffffffffffffffffffffffff021916908373ffffffffffffffffffffffffffffffffffffffff160217905550600860009054906101000a900473ffffffffffffffffffffffffffffffffffffffff1673ffffffffffffffffffffffffffffffffffffffff1663bb34534c7f436f6e74726163744665617475726573000000000000000000000000000000006040518263ffffffff167c0100000000000000000000000000000000000000000000000000000000028152600401808260001916600019168152602001915050602060405180830381600087803b1580156200044257600080fd5b505af115801562000457573d6000803e3d6000fd5b505050506040513d60208110156200046e57600080fd5b81019080805190602001909291905050509250600073ffffffffffffffffffffffffffffffffffffffff168373ffffffffffffffffffffffffffffffffffffffff161415156200054f578273ffffffffffffffffffffffffffffffffffffffff16632c7077c06001806040518363ffffffff167c0100000000000000000000000000000000000000000000000000000000028152600401808381526020018215151515815260200192505050600060405180830381600087803b1580156200053557600080fd5b505af11580156200054a573d6000803e3d6000fd5b505050505b85600c60046101000a81548163ffffffff021916908363ffffffff160217905550600073ffffffffffffffffffffffffffffffffffffffff168573ffffffffffffffffffffffffffffffffffffffff16141515620005c557620005c485856000620005d3640100000000026401000000009004565b5b505050505050505062000bd0565b6000809054906101000a900473ffffffffffffffffffffffffffffffffffffffff1673ffffffffffffffffffffffffffffffffffffffff163373ffffffffffffffffffffffffffffffffffffffff161415156200062f57600080fd5b3073ffffffffffffffffffffffffffffffffffffffff16600260009054906101000a900473ffffffffffffffffffffffffffffffffffffffff1673ffffffffffffffffffffffffffffffffffffffff16638da5cb5b6040518163ffffffff167c0100000000000000000000000000000000000000000000000000000000028152600401602060405180830381600087803b158015620006cd57600080fd5b505af1158015620006e2573d6000803e3d6000fd5b505050506040513d6020811015620006f957600080fd5b810190808051906020019092919050505073ffffffffffffffffffffffffffffffffffffffff16141515156200072e57600080fd5b82600073ffffffffffffffffffffffffffffffffffffffff168173ffffffffffffffffffffffffffffffffffffffff16141515156200076c57600080fd5b833073ffffffffffffffffffffffffffffffffffffffff168173ffffffffffffffffffffffffffffffffffffffff1614151515620007a957600080fd5b8360008163ffffffff16118015620007d05750620f424063ffffffff168163ffffffff1611155b1515620007dc57600080fd5b600260009054906101000a900473ffffffffffffffffffffffffffffffffffffffff1673ffffffffffffffffffffffffffffffffffffffff168673ffffffffffffffffffffffffffffffffffffffff1614158015620008885750600b60008773ffffffffffffffffffffffffffffffffffffffff1673ffffffffffffffffffffffffffffffffffffffff16815260200190815260200160002060010160069054906101000a900460ff16155b8015620008b85750620f424063ffffffff1685600c60009054906101000a900463ffffffff160163ffffffff1611155b1515620008c457600080fd5b6000600b60008873ffffffffffffffffffffffffffffffffffffffff1673ffffffffffffffffffffffffffffffffffffffff1681526020019081526020016000206000018190555084600b60008873ffffffffffffffffffffffffffffffffffffffff1673ffffffffffffffffffffffffffffffffffffffff16815260200190815260200160002060010160006101000a81548163ffffffff021916908363ffffffff16021790555083600b60008873ffffffffffffffffffffffffffffffffffffffff1673ffffffffffffffffffffffffffffffffffffffff16815260200190815260200160002060010160046101000a81548160ff0219169083151502179055506001600b60008873ffffffffffffffffffffffffffffffffffffffff1673ffffffffffffffffffffffffffffffffffffffff16815260200190815260200160002060010160056101000a81548160ff0219169083151502179055506001600b60008873ffffffffffffffffffffffffffffffffffffffff1673ffffffffffffffffffffffffffffffffffffffff16815260200190815260200160002060010160066101000a81548160ff021916908315150217905550600a8690806001815401808255809150509060018203906000526020600020016000909192909190916101000a81548173ffffffffffffffffffffffffffffffffffffffff021916908373ffffffffffffffffffffffffffffffffffffffff1602179055505084600c60008282829054906101000a900463ffffffff160192506101000a81548163ffffffff021916908363ffffffff160217905550505050505050565b828054600181600116156101000203166002900490600052602060002090601f016020900481019282601f1062000b6457805160ff191683800117855562000b95565b8280016001018555821562000b95579182015b8281111562000b9457825182559160200191906001019062000b77565b5b50905062000ba4919062000ba8565b5090565b62000bcd91905b8082111562000bc957600081600090555060010162000baf565b5090565b90565b6176078062000be06000396000f3006080604052600436106102eb576000357c0100000000000000000000000000000000000000000000000000000000900463ffffffff1680630c87355e146102f05780630ca78923146103235780630e53aae91461038c57806319b64015146104175780631d000b61146104845780631e1401f8146104b757806320d7d3671461053f57806321e6b53d1461056e57806322742564146105b1578063228d28201461066557806325f9bfef146106945780632a2e2f0c146106c757806338a5e016146107525780633aa0145a146107695780633e8ff43f146107b75780633f4d2fc214610847578063415f1240146108a657806341a5b33d146108d35780634290602914610940578063481c6a751461099757806349d10b64146109ee5780634af80f0e14610a05578063514385be14610a4857806354fd4d5014610a97578063579cd3ca14610aca5780635a46f06c14610b015780635e35359e14610b345780635e5144eb14610ba157806361cd756e14610c2c57806362614ae614610c835780636d7bd3fc14610cb657806371f52bf314610ce957806372b44b2c14610d1c57806375892cf114610d8457806379ba509714610e0f5780637b10399914610e2657806383315b6e14610e7d57806385d5e63114610eb05780638b34839f14610edf5780638da5cb5b14610f0e5780638e3047e014610f655780639232494e14610fed5780639249993a1461102057806392d1abb71461105357806394c275ad1461107e578063a2c4c336146110b5578063ad374f5b1461111d578063b4a176d31461114c578063bf75455814611163578063c45d3d9214611192578063c4a8598e146111e9578063c8c2fe6c1461121c578063ca1d209d14611233578063d4ee1d9014611260578063d55ec697146112b7578063d8959512146112ce578063e4edf85214611325578063ecbca55d14611368578063f0843ba91461139b578063f2fde38b1461141c578063fa1c594e1461145f578063fc0c546a1461148e578063fe417fa5146114e5575b600080fd5b3480156102fc57600080fd5b50610305611532565b60405180826000191660001916815260200191505060405180910390f35b34801561032f57600080fd5b5061038a600480360381019080803573ffffffffffffffffffffffffffffffffffffffff169060200190929190803563ffffffff16906020019092919080351515906020019092919080359060200190929190505050611556565b005b34801561039857600080fd5b506103cd600480360381019080803573ffffffffffffffffffffffffffffffffffffffff169060200190929190505050611765565b604051808681526020018563ffffffff1663ffffffff1681526020018415151515815260200183151515158152602001821515151581526020019550505050505060405180910390f35b34801561042357600080fd5b50610442600480360381019080803590602001909291905050506117d2565b604051808273ffffffffffffffffffffffffffffffffffffffff1673ffffffffffffffffffffffffffffffffffffffff16815260200191505060405180910390f35b34801561049057600080fd5b50610499611810565b60405180826000191660001916815260200191505060405180910390f35b3480156104c357600080fd5b50610522600480360381019080803573ffffffffffffffffffffffffffffffffffffffff169060200190929190803573ffffffffffffffffffffffffffffffffffffffff16906020019092919080359060200190929190505050611834565b604051808381526020018281526020019250505060405180910390f35b34801561054b57600080fd5b5061055461195c565b604051808215151515815260200191505060405180910390f35b34801561057a57600080fd5b506105af600480360381019080803573ffffffffffffffffffffffffffffffffffffffff16906020019092919050505061196f565b005b61064f60048036038101908080359060200190820180359060200190808060200260200160405190810160405280939291908181526020018383602002808284378201915050505050509192919290803590602001909291908035906020019092919080359060200190929190803560ff16906020019092919080356000191690602001909291908035600019169060200190929190505050611b2a565b6040518082815260200191505060405180910390f35b34801561067157600080fd5b50610692600480360381019080803515159060200190929190505050612128565b005b3480156106a057600080fd5b506106a961225c565b60405180826000191660001916815260200191505060405180910390f35b3480156106d357600080fd5b5061073c600480360381019080803573ffffffffffffffffffffffffffffffffffffffff169060200190929190803573ffffffffffffffffffffffffffffffffffffffff1690602001909291908035906020019092919080359060200190929190505050612280565b6040518082815260200191505060405180910390f35b34801561075e57600080fd5b50610767612abc565b005b34801561077557600080fd5b506107a160048036038101908080359060200190929190803560ff169060200190929190505050612bb7565b6040518082815260200191505060405180910390f35b3480156107c357600080fd5b506107cc612c14565b6040518080602001828103825283818151815260200191508051906020019080838360005b8381101561080c5780820151818401526020810190506107f1565b50505050905090810190601f1680156108395780820380516001836020036101000a031916815260200191505b509250505060405180910390f35b34801561085357600080fd5b506108a4600480360381019080803573ffffffffffffffffffffffffffffffffffffffff169060200190929190803563ffffffff169060200190929190803515159060200190929190505050612cb2565b005b3480156108b257600080fd5b506108d1600480360381019080803590602001909291905050506131f4565b005b3480156108df57600080fd5b5061093e600480360381019080803573ffffffffffffffffffffffffffffffffffffffff169060200190929190803573ffffffffffffffffffffffffffffffffffffffff16906020019092919080359060200190929190505050613631565b005b34801561094c57600080fd5b506109556137a2565b604051808273ffffffffffffffffffffffffffffffffffffffff1673ffffffffffffffffffffffffffffffffffffffff16815260200191505060405180910390f35b3480156109a357600080fd5b506109ac6137c8565b604051808273ffffffffffffffffffffffffffffffffffffffff1673ffffffffffffffffffffffffffffffffffffffff16815260200191505060405180910390f35b3480156109fa57600080fd5b50610a036137ee565b005b348015610a1157600080fd5b50610a46600480360381019080803573ffffffffffffffffffffffffffffffffffffffff169060200190929190505050613a95565b005b348015610a5457600080fd5b50610a95600480360381019080803573ffffffffffffffffffffffffffffffffffffffff169060200190929190803515159060200190929190505050613b71565b005b348015610aa357600080fd5b50610aac613c88565b60405180826000191660001916815260200191505060405180910390f35b348015610ad657600080fd5b50610adf613c8e565b604051808263ffffffff1663ffffffff16815260200191505060405180910390f35b348015610b0d57600080fd5b50610b16613ca4565b60405180826000191660001916815260200191505060405180910390f35b348015610b4057600080fd5b50610b9f600480360381019080803573ffffffffffffffffffffffffffffffffffffffff169060200190929190803573ffffffffffffffffffffffffffffffffffffffff16906020019092919080359060200190929190505050613cc8565b005b348015610bad57600080fd5b50610c16600480360381019080803573ffffffffffffffffffffffffffffffffffffffff169060200190929190803573ffffffffffffffffffffffffffffffffffffffff1690602001909291908035906020019092919080359060200190929190505050613f7b565b6040518082815260200191505060405180910390f35b348015610c3857600080fd5b50610c41613f93565b604051808273ffffffffffffffffffffffffffffffffffffffff1673ffffffffffffffffffffffffffffffffffffffff16815260200191505060405180910390f35b348015610c8f57600080fd5b50610c98613fb9565b60405180826000191660001916815260200191505060405180910390f35b348015610cc257600080fd5b50610ccb613fdd565b60405180826000191660001916815260200191505060405180910390f35b348015610cf557600080fd5b50610cfe614001565b604051808261ffff1661ffff16815260200191505060405180910390f35b348015610d2857600080fd5b50610d67600480360381019080803573ffffffffffffffffffffffffffffffffffffffff1690602001909291908035906020019092919050505061400e565b604051808381526020018281526020019250505060405180910390f35b348015610d9057600080fd5b50610df9600480360381019080803573ffffffffffffffffffffffffffffffffffffffff169060200190929190803573ffffffffffffffffffffffffffffffffffffffff169060200190929190803590602001909291908035906020019092919050505061447c565b6040518082815260200191505060405180910390f35b348015610e1b57600080fd5b50610e246145ec565b005b348015610e3257600080fd5b50610e3b61478b565b604051808273ffffffffffffffffffffffffffffffffffffffff1673ffffffffffffffffffffffffffffffffffffffff16815260200191505060405180910390f35b348015610e8957600080fd5b50610e926147b1565b60405180826000191660001916815260200191505060405180910390f35b348015610ebc57600080fd5b50610edd6004803603810190808035151590602001909291905050506147d5565b005b348015610eeb57600080fd5b50610ef46148e0565b604051808215151515815260200191505060405180910390f35b348015610f1a57600080fd5b50610f236148f3565b604051808273ffffffffffffffffffffffffffffffffffffffff1673ffffffffffffffffffffffffffffffffffffffff16815260200191505060405180910390f35b348015610f7157600080fd5b50610fd0600480360381019080803573ffffffffffffffffffffffffffffffffffffffff169060200190929190803573ffffffffffffffffffffffffffffffffffffffff16906020019092919080359060200190929190505050614918565b604051808381526020018281526020019250505060405180910390f35b348015610ff957600080fd5b50611002614daa565b60405180826000191660001916815260200191505060405180910390f35b34801561102c57600080fd5b50611035614dce565b60405180826000191660001916815260200191505060405180910390f35b34801561105f57600080fd5b50611068614df2565b6040518082815260200191505060405180910390f35b34801561108a57600080fd5b50611093614df7565b604051808263ffffffff1663ffffffff16815260200191505060405180910390f35b3480156110c157600080fd5b50611100600480360381019080803573ffffffffffffffffffffffffffffffffffffffff16906020019092919080359060200190929190505050614e0d565b604051808381526020018281526020019250505060405180910390f35b34801561112957600080fd5b5061114a600480360381019080803515159060200190929190505050615298565b005b34801561115857600080fd5b50611161615310565b005b34801561116f57600080fd5b50611178615443565b604051808215151515815260200191505060405180910390f35b34801561119e57600080fd5b506111a7615455565b604051808273ffffffffffffffffffffffffffffffffffffffff1673ffffffffffffffffffffffffffffffffffffffff16815260200191505060405180910390f35b3480156111f557600080fd5b506111fe61547b565b60405180826000191660001916815260200191505060405180910390f35b34801561122857600080fd5b5061123161549f565b005b34801561123f57600080fd5b5061125e60048036038101908080359060200190929190505050615640565b005b34801561126c57600080fd5b50611275615ac8565b604051808273ffffffffffffffffffffffffffffffffffffffff1673ffffffffffffffffffffffffffffffffffffffff16815260200191505060405180910390f35b3480156112c357600080fd5b506112cc615aee565b005b3480156112da57600080fd5b5061130f600480360381019080803573ffffffffffffffffffffffffffffffffffffffff169060200190929190505050615ce6565b6040518082815260200191505060405180910390f35b34801561133157600080fd5b50611366600480360381019080803573ffffffffffffffffffffffffffffffffffffffff169060200190929190505050615e86565b005b34801561137457600080fd5b50611399600480360381019080803563ffffffff169060200190929190505050615fda565b005b61140660048036038101908080359060200190820180359060200190808060200260200160405190810160405280939291908181526020018383602002808284378201915050505050509192919290803590602001909291908035906020019092919050505061615c565b6040518082815260200191505060405180910390f35b34801561142857600080fd5b5061145d600480360381019080803573ffffffffffffffffffffffffffffffffffffffff1690602001909291905050506161b8565b005b34801561146b57600080fd5b5061148c6004803603810190808035151590602001909291905050506162b3565b005b34801561149a57600080fd5b506114a3616384565b604051808273ffffffffffffffffffffffffffffffffffffffff1673ffffffffffffffffffffffffffffffffffffffff16815260200191505060405180910390f35b3480156114f157600080fd5b50611530600480360381019080803573ffffffffffffffffffffffffffffffffffffffff169060200190929190803590602001909291905050506163aa565b005b7f42616e636f72436f6e766572746572557067726164657200000000000000000081565b60008060009054906101000a900473ffffffffffffffffffffffffffffffffffffffff1673ffffffffffffffffffffffffffffffffffffffff163373ffffffffffffffffffffffffffffffffffffffff161415156115b357600080fd5b84600b60008273ffffffffffffffffffffffffffffffffffffffff1673ffffffffffffffffffffffffffffffffffffffff16815260200190815260200160002060010160069054906101000a900460ff16151561160f57600080fd5b8460008163ffffffff161180156116355750620f424063ffffffff168163ffffffff1611155b151561164057600080fd5b600b60008873ffffffffffffffffffffffffffffffffffffffff1673ffffffffffffffffffffffffffffffffffffffff1681526020019081526020016000209250620f424063ffffffff16868460010160009054906101000a900463ffffffff16600c60009054906101000a900463ffffffff16030163ffffffff16111515156116c957600080fd5b858360010160009054906101000a900463ffffffff16600c60009054906101000a900463ffffffff160301600c60006101000a81548163ffffffff021916908363ffffffff160217905550858360010160006101000a81548163ffffffff021916908363ffffffff160217905550848360010160046101000a81548160ff02191690831515021790555083836000018190555050505050505050565b600b6020528060005260406000206000915090508060000154908060010160009054906101000a900463ffffffff16908060010160049054906101000a900460ff16908060010160059054906101000a900460ff16908060010160069054906101000a900460ff16905085565b600a818154811015156117e157fe5b906000526020600020016000915054906101000a900473ffffffffffffffffffffffffffffffffffffffff1681565b7f424e54546f6b656e00000000000000000000000000000000000000000000000081565b6000808373ffffffffffffffffffffffffffffffffffffffff168573ffffffffffffffffffffffffffffffffffffffff161415151561187257600080fd5b600260009054906101000a900473ffffffffffffffffffffffffffffffffffffffff1673ffffffffffffffffffffffffffffffffffffffff168473ffffffffffffffffffffffffffffffffffffffff1614156118db576118d28584614e0d565b91509150611954565b600260009054906101000a900473ffffffffffffffffffffffffffffffffffffffff1673ffffffffffffffffffffffffffffffffffffffff168573ffffffffffffffffffffffffffffffffffffffff1614156119445761193b848461400e565b91509150611954565b61194f858585614918565b915091505b935093915050565b600760009054906101000a900460ff1681565b6000809054906101000a900473ffffffffffffffffffffffffffffffffffffffff1673ffffffffffffffffffffffffffffffffffffffff163373ffffffffffffffffffffffffffffffffffffffff161415156119ca57600080fd5b6000600860009054906101000a900473ffffffffffffffffffffffffffffffffffffffff1673ffffffffffffffffffffffffffffffffffffffff1663bb34534c7f42616e636f72436f6e76657274657255706772616465720000000000000000006040518263ffffffff167c0100000000000000000000000000000000000000000000000000000000028152600401808260001916600019168152602001915050602060405180830381600087803b158015611a8557600080fd5b505af1158015611a99573d6000803e3d6000fd5b505050506040513d6020811015611aaf57600080fd5b810190808051906020019092919050505090508073ffffffffffffffffffffffffffffffffffffffff166000809054906101000a900473ffffffffffffffffffffffffffffffffffffffff1673ffffffffffffffffffffffffffffffffffffffff16141515611b1d57600080fd5b611b26826166b6565b5050565b60008060008960028151118015611b4357506015815111155b8015611b5c5750600160028251811515611b5957fe5b06145b1515611b6757600080fd5b8a6000815181101515611b7657fe5b906020019060200201519250600860009054906101000a900473ffffffffffffffffffffffffffffffffffffffff1673ffffffffffffffffffffffffffffffffffffffff1663bb34534c7f42616e636f724e6574776f726b000000000000000000000000000000000000006040518263ffffffff167c0100000000000000000000000000000000000000000000000000000000028152600401808260001916600019168152602001915050602060405180830381600087803b158015611c3b57600080fd5b505af1158015611c4f573d6000803e3d6000fd5b505050506040513d6020811015611c6557600080fd5b810190808051906020019092919050505091506000341415611fb257600260009054906101000a900473ffffffffffffffffffffffffffffffffffffffff1673ffffffffffffffffffffffffffffffffffffffff168373ffffffffffffffffffffffffffffffffffffffff161415611e9657600260009054906101000a900473ffffffffffffffffffffffffffffffffffffffff1673ffffffffffffffffffffffffffffffffffffffff1663a24835d1338c6040518363ffffffff167c0100000000000000000000000000000000000000000000000000000000028152600401808373ffffffffffffffffffffffffffffffffffffffff1673ffffffffffffffffffffffffffffffffffffffff16815260200182815260200192505050600060405180830381600087803b158015611d9c57600080fd5b505af1158015611db0573d6000803e3d6000fd5b50505050600260009054906101000a900473ffffffffffffffffffffffffffffffffffffffff1673ffffffffffffffffffffffffffffffffffffffff1663867904b4838c6040518363ffffffff167c0100000000000000000000000000000000000000000000000000000000028152600401808373ffffffffffffffffffffffffffffffffffffffff1673ffffffffffffffffffffffffffffffffffffffff16815260200182815260200192505050600060405180830381600087803b158015611e7957600080fd5b505af1158015611e8d573d6000803e3d6000fd5b50505050611fb1565b8273ffffffffffffffffffffffffffffffffffffffff166323b872dd33848d6040518463ffffffff167c0100000000000000000000000000000000000000000000000000000000028152600401808473ffffffffffffffffffffffffffffffffffffffff1673ffffffffffffffffffffffffffffffffffffffff1681526020018373ffffffffffffffffffffffffffffffffffffffff1673ffffffffffffffffffffffffffffffffffffffff1681526020018281526020019350505050602060405180830381600087803b158015611f6d57600080fd5b505af1158015611f81573d6000803e3d6000fd5b505050506040513d6020811015611f9757600080fd5b81019080805190602001909291905050501515611fb057fe5b5b5b8173ffffffffffffffffffffffffffffffffffffffff16636b08f2ef348d8d8d338e8e8e8e6040518a63ffffffff167c010000000000000000000000000000000000000000000000000000000002815260040180806020018981526020018881526020018773ffffffffffffffffffffffffffffffffffffffff1673ffffffffffffffffffffffffffffffffffffffff1681526020018681526020018560ff1660ff1681526020018460001916600019168152602001836000191660001916815260200182810382528a818151815260200191508051906020019060200280838360005b838110156120b1578082015181840152602081019050612096565b5050505090500199505050505050505050506020604051808303818588803b1580156120dc57600080fd5b505af11580156120f0573d6000803e3d6000fd5b50505050506040513d602081101561210757600080fd5b81019080805190602001909291905050509350505050979650505050505050565b6000809054906101000a900473ffffffffffffffffffffffffffffffffffffffff1673ffffffffffffffffffffffffffffffffffffffff163373ffffffffffffffffffffffffffffffffffffffff1614806121d05750600360009054906101000a900473ffffffffffffffffffffffffffffffffffffffff1673ffffffffffffffffffffffffffffffffffffffff163373ffffffffffffffffffffffffffffffffffffffff16145b15156121db57600080fd5b801515600c809054906101000a900460ff1615151415612259578015600c806101000a81548160ff0219169083151502179055507fb8e670608a57255ce4f35952b324cba70211a4200a91ce81d26e06d488c1f66b600c809054906101000a900460ff16604051808215151515815260200191505060405180910390a15b50565b7f436f6e747261637452656769737472790000000000000000000000000000000081565b6000806000806000806000600860009054906101000a900473ffffffffffffffffffffffffffffffffffffffff1673ffffffffffffffffffffffffffffffffffffffff1663bb34534c7f42616e636f724e6574776f726b000000000000000000000000000000000000006040518263ffffffff167c0100000000000000000000000000000000000000000000000000000000028152600401808260001916600019168152602001915050602060405180830381600087803b15801561234457600080fd5b505af1158015612358573d6000803e3d6000fd5b505050506040513d602081101561236e57600080fd5b810190808051906020019092919050505090508073ffffffffffffffffffffffffffffffffffffffff163373ffffffffffffffffffffffffffffffffffffffff161415156123bb57600080fd5b600c809054906101000a900460ff1615156123d257fe5b876000811115156123e257600080fd5b8a73ffffffffffffffffffffffffffffffffffffffff168c73ffffffffffffffffffffffffffffffffffffffff161415151561241d57600080fd5b600260009054906101000a900473ffffffffffffffffffffffffffffffffffffffff1673ffffffffffffffffffffffffffffffffffffffff168b73ffffffffffffffffffffffffffffffffffffffff1614156124855761247e8c8b8b6167e9565b9750612aad565b600260009054906101000a900473ffffffffffffffffffffffffffffffffffffffff1673ffffffffffffffffffffffffffffffffffffffff168c73ffffffffffffffffffffffffffffffffffffffff1614156124ed576124e68b8b8b616c05565b9750612aad565b6124f88c8c8c614918565b8097508198505050600087141580156125115750888710155b151561251c57600080fd5b600b60008d73ffffffffffffffffffffffffffffffffffffffff1673ffffffffffffffffffffffffffffffffffffffff16815260200190815260200160002094508460010160049054906101000a900460ff161561258b5761258285600001548b6171e6565b85600001819055505b600b60008c73ffffffffffffffffffffffffffffffffffffffff1673ffffffffffffffffffffffffffffffffffffffff16815260200190815260200160002093508360010160049054906101000a900460ff16156125fa576125f1846000015488617204565b84600001819055505b6126038b615ce6565b9250828710151561261057fe5b8b73ffffffffffffffffffffffffffffffffffffffff166323b872dd33308d6040518463ffffffff167c0100000000000000000000000000000000000000000000000000000000028152600401808473ffffffffffffffffffffffffffffffffffffffff1673ffffffffffffffffffffffffffffffffffffffff1681526020018373ffffffffffffffffffffffffffffffffffffffff1673ffffffffffffffffffffffffffffffffffffffff1681526020018281526020019350505050602060405180830381600087803b1580156126e757600080fd5b505af11580156126fb573d6000803e3d6000fd5b505050506040513d602081101561271157600080fd5b8101908080519060200190929190505050151561272a57fe5b8a73ffffffffffffffffffffffffffffffffffffffff1663a9059cbb33896040518363ffffffff167c0100000000000000000000000000000000000000000000000000000000028152600401808373ffffffffffffffffffffffffffffffffffffffff1673ffffffffffffffffffffffffffffffffffffffff16815260200182815260200192505050602060405180830381600087803b1580156127cd57600080fd5b505af11580156127e1573d6000803e3d6000fd5b505050506040513d60208110156127f757600080fd5b8101908080519060200190929190505050151561281057fe5b61281d8c8c8c8a8a61721d565b8b73ffffffffffffffffffffffffffffffffffffffff167f8a6a7f53b3c8fa1dc4b83e3f1be668c1b251ff8d44cdcb83eb3acec3fec6a788600260009054906101000a900473ffffffffffffffffffffffffffffffffffffffff1673ffffffffffffffffffffffffffffffffffffffff166318160ddd6040518163ffffffff167c0100000000000000000000000000000000000000000000000000000000028152600401602060405180830381600087803b1580156128db57600080fd5b505af11580156128ef573d6000803e3d6000fd5b505050506040513d602081101561290557600080fd5b810190808051906020019092919050505061291f8f615ce6565b8860010160009054906101000a900463ffffffff16604051808481526020018381526020018263ffffffff1663ffffffff168152602001935050505060405180910390a28a73ffffffffffffffffffffffffffffffffffffffff167f8a6a7f53b3c8fa1dc4b83e3f1be668c1b251ff8d44cdcb83eb3acec3fec6a788600260009054906101000a900473ffffffffffffffffffffffffffffffffffffffff1673ffffffffffffffffffffffffffffffffffffffff166318160ddd6040518163ffffffff167c0100000000000000000000000000000000000000000000000000000000028152600401602060405180830381600087803b158015612a2157600080fd5b505af1158015612a35573d6000803e3d6000fd5b505050506040513d6020811015612a4b57600080fd5b8101908080519060200190929190505050612a658e615ce6565b8760010160009054906101000a900463ffffffff16604051808481526020018381526020018263ffffffff1663ffffffff168152602001935050505060405180910390a28697505b50505050505050949350505050565b6000809054906101000a900473ffffffffffffffffffffffffffffffffffffffff1673ffffffffffffffffffffffffffffffffffffffff163373ffffffffffffffffffffffffffffffffffffffff16141515612b1757600080fd5b600260009054906101000a900473ffffffffffffffffffffffffffffffffffffffff1673ffffffffffffffffffffffffffffffffffffffff166379ba50976040518163ffffffff167c0100000000000000000000000000000000000000000000000000000000028152600401600060405180830381600087803b158015612b9d57600080fd5b505af1158015612bb1573d6000803e3d6000fd5b50505050565b60008160ff16620f42400a67ffffffffffffffff16612c02848460ff16600c60089054906101000a900463ffffffff1663ffffffff16620f4240030a67ffffffffffffffff166172dc565b811515612c0b57fe5b04905092915050565b60068054600181600116156101000203166002900480601f016020809104026020016040519081016040528092919081815260200182805460018160011615610100020316600290048015612caa5780601f10612c7f57610100808354040283529160200191612caa565b820191906000526020600020905b815481529060010190602001808311612c8d57829003601f168201915b505050505081565b6000809054906101000a900473ffffffffffffffffffffffffffffffffffffffff1673ffffffffffffffffffffffffffffffffffffffff163373ffffffffffffffffffffffffffffffffffffffff16141515612d0d57600080fd5b3073ffffffffffffffffffffffffffffffffffffffff16600260009054906101000a900473ffffffffffffffffffffffffffffffffffffffff1673ffffffffffffffffffffffffffffffffffffffff16638da5cb5b6040518163ffffffff167c0100000000000000000000000000000000000000000000000000000000028152600401602060405180830381600087803b158015612daa57600080fd5b505af1158015612dbe573d6000803e3d6000fd5b505050506040513d6020811015612dd457600080fd5b810190808051906020019092919050505073ffffffffffffffffffffffffffffffffffffffff1614151515612e0857600080fd5b82600073ffffffffffffffffffffffffffffffffffffffff168173ffffffffffffffffffffffffffffffffffffffff1614151515612e4557600080fd5b833073ffffffffffffffffffffffffffffffffffffffff168173ffffffffffffffffffffffffffffffffffffffff1614151515612e8157600080fd5b8360008163ffffffff16118015612ea75750620f424063ffffffff168163ffffffff1611155b1515612eb257600080fd5b600260009054906101000a900473ffffffffffffffffffffffffffffffffffffffff1673ffffffffffffffffffffffffffffffffffffffff168673ffffffffffffffffffffffffffffffffffffffff1614158015612f5d5750600b60008773ffffffffffffffffffffffffffffffffffffffff1673ffffffffffffffffffffffffffffffffffffffff16815260200190815260200160002060010160069054906101000a900460ff16155b8015612f8c5750620f424063ffffffff1685600c60009054906101000a900463ffffffff160163ffffffff1611155b1515612f9757600080fd5b6000600b60008873ffffffffffffffffffffffffffffffffffffffff1673ffffffffffffffffffffffffffffffffffffffff1681526020019081526020016000206000018190555084600b60008873ffffffffffffffffffffffffffffffffffffffff1673ffffffffffffffffffffffffffffffffffffffff16815260200190815260200160002060010160006101000a81548163ffffffff021916908363ffffffff16021790555083600b60008873ffffffffffffffffffffffffffffffffffffffff1673ffffffffffffffffffffffffffffffffffffffff16815260200190815260200160002060010160046101000a81548160ff0219169083151502179055506001600b60008873ffffffffffffffffffffffffffffffffffffffff1673ffffffffffffffffffffffffffffffffffffffff16815260200190815260200160002060010160056101000a81548160ff0219169083151502179055506001600b60008873ffffffffffffffffffffffffffffffffffffffff1673ffffffffffffffffffffffffffffffffffffffff16815260200190815260200160002060010160066101000a81548160ff021916908315150217905550600a8690806001815401808255809150509060018203906000526020600020016000909192909190916101000a81548173ffffffffffffffffffffffffffffffffffffffff021916908373ffffffffffffffffffffffffffffffffffffffff1602179055505084600c60008282829054906101000a900463ffffffff160192506101000a81548163ffffffff021916908363ffffffff160217905550505050505050565b600080600080600080620f424063ffffffff16600c60009054906101000a900463ffffffff1663ffffffff1614151561322c57600080fd5b600260009054906101000a900473ffffffffffffffffffffffffffffffffffffffff1673ffffffffffffffffffffffffffffffffffffffff166318160ddd6040518163ffffffff167c0100000000000000000000000000000000000000000000000000000000028152600401602060405180830381600087803b1580156132b257600080fd5b505af11580156132c6573d6000803e3d6000fd5b505050506040513d60208110156132dc57600080fd5b81019080805190602001909291905050509550600260009054906101000a900473ffffffffffffffffffffffffffffffffffffffff1673ffffffffffffffffffffffffffffffffffffffff1663a24835d133896040518363ffffffff167c0100000000000000000000000000000000000000000000000000000000028152600401808373ffffffffffffffffffffffffffffffffffffffff1673ffffffffffffffffffffffffffffffffffffffff16815260200182815260200192505050600060405180830381600087803b1580156133b457600080fd5b505af11580156133c8573d6000803e3d6000fd5b50505050600091505b600a805490508261ffff16101561362857600a8261ffff168154811015156133f557fe5b9060005260206000200160009054906101000a900473ffffffffffffffffffffffffffffffffffffffff16945061342b85615ce6565b93508561343888866172dc565b81151561344157fe5b049250600b60008673ffffffffffffffffffffffffffffffffffffffff1673ffffffffffffffffffffffffffffffffffffffff16815260200190815260200160002090508060010160049054906101000a900460ff16156134b3576134aa816000015484617204565b81600001819055505b8473ffffffffffffffffffffffffffffffffffffffff1663a9059cbb33856040518363ffffffff167c0100000000000000000000000000000000000000000000000000000000028152600401808373ffffffffffffffffffffffffffffffffffffffff1673ffffffffffffffffffffffffffffffffffffffff16815260200182815260200192505050602060405180830381600087803b15801561355657600080fd5b505af115801561356a573d6000803e3d6000fd5b505050506040513d602081101561358057600080fd5b8101908080519060200190929190505050151561359957fe5b8473ffffffffffffffffffffffffffffffffffffffff167f8a6a7f53b3c8fa1dc4b83e3f1be668c1b251ff8d44cdcb83eb3acec3fec6a7888888038587038460010160009054906101000a900463ffffffff16604051808481526020018381526020018263ffffffff1663ffffffff168152602001935050505060405180910390a281806001019250506133d1565b50505050505050565b6000809054906101000a900473ffffffffffffffffffffffffffffffffffffffff1673ffffffffffffffffffffffffffffffffffffffff163373ffffffffffffffffffffffffffffffffffffffff1614151561368c57600080fd5b600260009054906101000a900473ffffffffffffffffffffffffffffffffffffffff1673ffffffffffffffffffffffffffffffffffffffff16635e35359e8484846040518463ffffffff167c0100000000000000000000000000000000000000000000000000000000028152600401808473ffffffffffffffffffffffffffffffffffffffff1673ffffffffffffffffffffffffffffffffffffffff1681526020018373ffffffffffffffffffffffffffffffffffffffff1673ffffffffffffffffffffffffffffffffffffffff1681526020018281526020019350505050600060405180830381600087803b15801561378557600080fd5b505af1158015613799573d6000803e3d6000fd5b50505050505050565b600460009054906101000a900473ffffffffffffffffffffffffffffffffffffffff1681565b600360009054906101000a900473ffffffffffffffffffffffffffffffffffffffff1681565b6000600760009054906101000a900460ff168061385757506000809054906101000a900473ffffffffffffffffffffffffffffffffffffffff1673ffffffffffffffffffffffffffffffffffffffff163373ffffffffffffffffffffffffffffffffffffffff16145b151561386257600080fd5b600860009054906101000a900473ffffffffffffffffffffffffffffffffffffffff1673ffffffffffffffffffffffffffffffffffffffff1663bb34534c7f436f6e74726163745265676973747279000000000000000000000000000000006040518263ffffffff167c0100000000000000000000000000000000000000000000000000000000028152600401808260001916600019168152602001915050602060405180830381600087803b15801561391b57600080fd5b505af115801561392f573d6000803e3d6000fd5b505050506040513d602081101561394557600080fd5b81019080805190602001909291905050509050600860009054906101000a900473ffffffffffffffffffffffffffffffffffffffff1673ffffffffffffffffffffffffffffffffffffffff168173ffffffffffffffffffffffffffffffffffffffff16141580156139e35750600073ffffffffffffffffffffffffffffffffffffffff168173ffffffffffffffffffffffffffffffffffffffff1614155b15156139ee57600080fd5b600860009054906101000a900473ffffffffffffffffffffffffffffffffffffffff16600760026101000a81548173ffffffffffffffffffffffffffffffffffffffff021916908373ffffffffffffffffffffffffffffffffffffffff16021790555080600860006101000a81548173ffffffffffffffffffffffffffffffffffffffff021916908373ffffffffffffffffffffffffffffffffffffffff16021790555050565b6000809054906101000a900473ffffffffffffffffffffffffffffffffffffffff1673ffffffffffffffffffffffffffffffffffffffff163373ffffffffffffffffffffffffffffffffffffffff16141515613af057600080fd5b803073ffffffffffffffffffffffffffffffffffffffff168173ffffffffffffffffffffffffffffffffffffffff1614151515613b2c57600080fd5b81600960006101000a81548173ffffffffffffffffffffffffffffffffffffffff021916908373ffffffffffffffffffffffffffffffffffffffff1602179055505050565b6000809054906101000a900473ffffffffffffffffffffffffffffffffffffffff1673ffffffffffffffffffffffffffffffffffffffff163373ffffffffffffffffffffffffffffffffffffffff16141515613bcc57600080fd5b81600b60008273ffffffffffffffffffffffffffffffffffffffff1673ffffffffffffffffffffffffffffffffffffffff16815260200190815260200160002060010160069054906101000a900460ff161515613c2857600080fd5b8115600b60008573ffffffffffffffffffffffffffffffffffffffff1673ffffffffffffffffffffffffffffffffffffffff16815260200190815260200160002060010160056101000a81548160ff021916908315150217905550505050565b60055481565b600c60089054906101000a900463ffffffff1681565b7f42616e636f72436f6e766572746572466163746f72790000000000000000000081565b6000600860009054906101000a900473ffffffffffffffffffffffffffffffffffffffff1673ffffffffffffffffffffffffffffffffffffffff1663bb34534c7f42616e636f72436f6e76657274657255706772616465720000000000000000006040518263ffffffff167c0100000000000000000000000000000000000000000000000000000000028152600401808260001916600019168152602001915050602060405180830381600087803b158015613d8357600080fd5b505af1158015613d97573d6000803e3d6000fd5b505050506040513d6020811015613dad57600080fd5b81019080805190602001909291905050509050600b60008573ffffffffffffffffffffffffffffffffffffffff1673ffffffffffffffffffffffffffffffffffffffff16815260200190815260200160002060010160069054906101000a900460ff161580613f0857503073ffffffffffffffffffffffffffffffffffffffff16600260009054906101000a900473ffffffffffffffffffffffffffffffffffffffff1673ffffffffffffffffffffffffffffffffffffffff16638da5cb5b6040518163ffffffff167c0100000000000000000000000000000000000000000000000000000000028152600401602060405180830381600087803b158015613eb457600080fd5b505af1158015613ec8573d6000803e3d6000fd5b505050506040513d6020811015613ede57600080fd5b810190808051906020019092919050505073ffffffffffffffffffffffffffffffffffffffff1614155b80613f5f57508073ffffffffffffffffffffffffffffffffffffffff166000809054906101000a900473ffffffffffffffffffffffffffffffffffffffff1673ffffffffffffffffffffffffffffffffffffffff16145b1515613f6a57600080fd5b613f7584848461730f565b50505050565b6000613f8985858585612280565b9050949350505050565b600760029054906101000a900473ffffffffffffffffffffffffffffffffffffffff1681565b7f424e54436f6e766572746572000000000000000000000000000000000000000081565b7f42616e636f72466f726d756c610000000000000000000000000000000000000081565b6000600a80549050905090565b6000806000806000806000803073ffffffffffffffffffffffffffffffffffffffff16600260009054906101000a900473ffffffffffffffffffffffffffffffffffffffff1673ffffffffffffffffffffffffffffffffffffffff16638da5cb5b6040518163ffffffff167c0100000000000000000000000000000000000000000000000000000000028152600401602060405180830381600087803b1580156140b757600080fd5b505af11580156140cb573d6000803e3d6000fd5b505050506040513d60208110156140e157600080fd5b810190808051906020019092919050505073ffffffffffffffffffffffffffffffffffffffff1614151561411457600080fd5b89600b60008273ffffffffffffffffffffffffffffffffffffffff1673ffffffffffffffffffffffffffffffffffffffff16815260200190815260200160002060010160069054906101000a900460ff16151561417057600080fd5b600b60008c73ffffffffffffffffffffffffffffffffffffffff1673ffffffffffffffffffffffffffffffffffffffff1681526020019081526020016000209650600260009054906101000a900473ffffffffffffffffffffffffffffffffffffffff1673ffffffffffffffffffffffffffffffffffffffff166318160ddd6040518163ffffffff167c0100000000000000000000000000000000000000000000000000000000028152600401602060405180830381600087803b15801561423757600080fd5b505af115801561424b573d6000803e3d6000fd5b505050506040513d602081101561426157600080fd5b8101908080519060200190929190505050955061427d8b615ce6565b9450600860009054906101000a900473ffffffffffffffffffffffffffffffffffffffff1673ffffffffffffffffffffffffffffffffffffffff1663bb34534c7f42616e636f72466f726d756c61000000000000000000000000000000000000006040518263ffffffff167c0100000000000000000000000000000000000000000000000000000000028152600401808260001916600019168152602001915050602060405180830381600087803b15801561433857600080fd5b505af115801561434c573d6000803e3d6000fd5b505050506040513d602081101561436257600080fd5b810190808051906020019092919050505093508373ffffffffffffffffffffffffffffffffffffffff166349f9b0f787878a60010160009054906101000a900463ffffffff168e6040518563ffffffff167c0100000000000000000000000000000000000000000000000000000000028152600401808581526020018481526020018363ffffffff1663ffffffff168152602001828152602001945050505050602060405180830381600087803b15801561441c57600080fd5b505af1158015614430573d6000803e3d6000fd5b505050506040513d602081101561444657600080fd5b81019080805190602001909291905050509250614464836001612bb7565b91508182840398509850505050505050509250929050565b60006060604051908101604052808673ffffffffffffffffffffffffffffffffffffffff1673ffffffffffffffffffffffffffffffffffffffff168152602001600260009054906101000a900473ffffffffffffffffffffffffffffffffffffffff1673ffffffffffffffffffffffffffffffffffffffff1673ffffffffffffffffffffffffffffffffffffffff1681526020018573ffffffffffffffffffffffffffffffffffffffff1673ffffffffffffffffffffffffffffffffffffffff16815250600d90600361455092919061750e565b506145e2600d8054806020026020016040519081016040528092919081815260200182805480156145d657602002820191906000526020600020905b8160009054906101000a900473ffffffffffffffffffffffffffffffffffffffff1673ffffffffffffffffffffffffffffffffffffffff168152602001906001019080831161458c575b5050505050848461615c565b9050949350505050565b600160009054906101000a900473ffffffffffffffffffffffffffffffffffffffff1673ffffffffffffffffffffffffffffffffffffffff163373ffffffffffffffffffffffffffffffffffffffff1614151561464857600080fd5b600160009054906101000a900473ffffffffffffffffffffffffffffffffffffffff1673ffffffffffffffffffffffffffffffffffffffff166000809054906101000a900473ffffffffffffffffffffffffffffffffffffffff1673ffffffffffffffffffffffffffffffffffffffff167f343765429aea5a34b3ff6a3785a98a5abb2597aca87bfbb58632c173d585373a60405160405180910390a3600160009054906101000a900473ffffffffffffffffffffffffffffffffffffffff166000806101000a81548173ffffffffffffffffffffffffffffffffffffffff021916908373ffffffffffffffffffffffffffffffffffffffff1602179055506000600160006101000a81548173ffffffffffffffffffffffffffffffffffffffff021916908373ffffffffffffffffffffffffffffffffffffffff160217905550565b600860009054906101000a900473ffffffffffffffffffffffffffffffffffffffff1681565b7f436f6e747261637446656174757265730000000000000000000000000000000081565b6000809054906101000a900473ffffffffffffffffffffffffffffffffffffffff1673ffffffffffffffffffffffffffffffffffffffff163373ffffffffffffffffffffffffffffffffffffffff1614151561483057600080fd5b600260009054906101000a900473ffffffffffffffffffffffffffffffffffffffff1673ffffffffffffffffffffffffffffffffffffffff16631608f18f826040518263ffffffff167c01000000000000000000000000000000000000000000000000000000000281526004018082151515158152602001915050600060405180830381600087803b1580156148c557600080fd5b505af11580156148d9573d6000803e3d6000fd5b5050505050565b600760019054906101000a900460ff1681565b6000809054906101000a900473ffffffffffffffffffffffffffffffffffffffff1681565b60008060008060008060003073ffffffffffffffffffffffffffffffffffffffff16600260009054906101000a900473ffffffffffffffffffffffffffffffffffffffff1673ffffffffffffffffffffffffffffffffffffffff16638da5cb5b6040518163ffffffff167c0100000000000000000000000000000000000000000000000000000000028152600401602060405180830381600087803b1580156149c057600080fd5b505af11580156149d4573d6000803e3d6000fd5b505050506040513d60208110156149ea57600080fd5b810190808051906020019092919050505073ffffffffffffffffffffffffffffffffffffffff16141515614a1d57600080fd5b89600b60008273ffffffffffffffffffffffffffffffffffffffff1673ffffffffffffffffffffffffffffffffffffffff16815260200190815260200160002060010160069054906101000a900460ff161515614a7957600080fd5b89600b60008273ffffffffffffffffffffffffffffffffffffffff1673ffffffffffffffffffffffffffffffffffffffff16815260200190815260200160002060010160069054906101000a900460ff161515614ad557600080fd5b600b60008d73ffffffffffffffffffffffffffffffffffffffff1673ffffffffffffffffffffffffffffffffffffffff1681526020019081526020016000209650600b60008c73ffffffffffffffffffffffffffffffffffffffff1673ffffffffffffffffffffffffffffffffffffffff16815260200190815260200160002095508560010160059054906101000a900460ff161515614b7457600080fd5b600860009054906101000a900473ffffffffffffffffffffffffffffffffffffffff1673ffffffffffffffffffffffffffffffffffffffff1663bb34534c7f42616e636f72466f726d756c61000000000000000000000000000000000000006040518263ffffffff167c0100000000000000000000000000000000000000000000000000000000028152600401808260001916600019168152602001915050602060405180830381600087803b158015614c2d57600080fd5b505af1158015614c41573d6000803e3d6000fd5b505050506040513d6020811015614c5757600080fd5b810190808051906020019092919050505094508473ffffffffffffffffffffffffffffffffffffffff166365098bb3614c8f8e615ce6565b8960010160009054906101000a900463ffffffff16614cad8f615ce6565b8a60010160009054906101000a900463ffffffff168f6040518663ffffffff167c0100000000000000000000000000000000000000000000000000000000028152600401808681526020018563ffffffff1663ffffffff1681526020018481526020018363ffffffff1663ffffffff16815260200182815260200195505050505050602060405180830381600087803b158015614d4957600080fd5b505af1158015614d5d573d6000803e3d6000fd5b505050506040513d6020811015614d7357600080fd5b81019080805190602001909291905050509350614d91846002612bb7565b9250828385039850985050505050505050935093915050565b7f42616e636f724e6574776f726b0000000000000000000000000000000000000081565b7f42616e636f7247617350726963654c696d69740000000000000000000000000081565b600181565b600c60049054906101000a900463ffffffff1681565b6000806000806000806000803073ffffffffffffffffffffffffffffffffffffffff16600260009054906101000a900473ffffffffffffffffffffffffffffffffffffffff1673ffffffffffffffffffffffffffffffffffffffff16638da5cb5b6040518163ffffffff167c0100000000000000000000000000000000000000000000000000000000028152600401602060405180830381600087803b158015614eb657600080fd5b505af1158015614eca573d6000803e3d6000fd5b505050506040513d6020811015614ee057600080fd5b810190808051906020019092919050505073ffffffffffffffffffffffffffffffffffffffff16141515614f1357600080fd5b89600b60008273ffffffffffffffffffffffffffffffffffffffff1673ffffffffffffffffffffffffffffffffffffffff16815260200190815260200160002060010160069054906101000a900460ff161515614f6f57600080fd5b600b60008c73ffffffffffffffffffffffffffffffffffffffff1673ffffffffffffffffffffffffffffffffffffffff16815260200190815260200160002096508660010160059054906101000a900460ff161515614fcd57600080fd5b600260009054906101000a900473ffffffffffffffffffffffffffffffffffffffff1673ffffffffffffffffffffffffffffffffffffffff166318160ddd6040518163ffffffff167c0100000000000000000000000000000000000000000000000000000000028152600401602060405180830381600087803b15801561505357600080fd5b505af1158015615067573d6000803e3d6000fd5b505050506040513d602081101561507d57600080fd5b810190808051906020019092919050505095506150998b615ce6565b9450600860009054906101000a900473ffffffffffffffffffffffffffffffffffffffff1673ffffffffffffffffffffffffffffffffffffffff1663bb34534c7f42616e636f72466f726d756c61000000000000000000000000000000000000006040518263ffffffff167c0100000000000000000000000000000000000000000000000000000000028152600401808260001916600019168152602001915050602060405180830381600087803b15801561515457600080fd5b505af1158015615168573d6000803e3d6000fd5b505050506040513d602081101561517e57600080fd5b810190808051906020019092919050505093508373ffffffffffffffffffffffffffffffffffffffff166329a00e7c87878a60010160009054906101000a900463ffffffff168e6040518563ffffffff167c0100000000000000000000000000000000000000000000000000000000028152600401808581526020018481526020018363ffffffff1663ffffffff168152602001828152602001945050505050602060405180830381600087803b15801561523857600080fd5b505af115801561524c573d6000803e3d6000fd5b505050506040513d602081101561526257600080fd5b81019080805190602001909291905050509250615280836001612bb7565b91508182840398509850505050505050509250929050565b6000809054906101000a900473ffffffffffffffffffffffffffffffffffffffff1673ffffffffffffffffffffffffffffffffffffffff163373ffffffffffffffffffffffffffffffffffffffff161415156152f357600080fd5b80600760016101000a81548160ff02191690831515021790555050565b6000809054906101000a900473ffffffffffffffffffffffffffffffffffffffff1673ffffffffffffffffffffffffffffffffffffffff163373ffffffffffffffffffffffffffffffffffffffff1614806153b85750600360009054906101000a900473ffffffffffffffffffffffffffffffffffffffff1673ffffffffffffffffffffffffffffffffffffffff163373ffffffffffffffffffffffffffffffffffffffff16145b15156153c357600080fd5b600760029054906101000a900473ffffffffffffffffffffffffffffffffffffffff16600860006101000a81548173ffffffffffffffffffffffffffffffffffffffff021916908373ffffffffffffffffffffffffffffffffffffffff1602179055506000600760006101000a81548160ff021916908315150217905550565b600c809054906101000a900460ff1681565b600960009054906101000a900473ffffffffffffffffffffffffffffffffffffffff1681565b7f42616e636f72580000000000000000000000000000000000000000000000000081565b600460009054906101000a900473ffffffffffffffffffffffffffffffffffffffff1673ffffffffffffffffffffffffffffffffffffffff163373ffffffffffffffffffffffffffffffffffffffff161415156154fb57600080fd5b600460009054906101000a900473ffffffffffffffffffffffffffffffffffffffff1673ffffffffffffffffffffffffffffffffffffffff16600360009054906101000a900473ffffffffffffffffffffffffffffffffffffffff1673ffffffffffffffffffffffffffffffffffffffff167fbe4cc281795971a471c980e842627a7f1ea3892ddfce8c5b6357cd2611c1973260405160405180910390a3600460009054906101000a900473ffffffffffffffffffffffffffffffffffffffff16600360006101000a81548173ffffffffffffffffffffffffffffffffffffffff021916908373ffffffffffffffffffffffffffffffffffffffff1602179055506000600460006101000a81548173ffffffffffffffffffffffffffffffffffffffff021916908373ffffffffffffffffffffffffffffffffffffffff160217905550565b600080600080600080620f424063ffffffff16600c60009054906101000a900463ffffffff1663ffffffff1614151561567857600080fd5b600c809054906101000a900460ff16151561568f57fe5b600260009054906101000a900473ffffffffffffffffffffffffffffffffffffffff1673ffffffffffffffffffffffffffffffffffffffff166318160ddd6040518163ffffffff167c0100000000000000000000000000000000000000000000000000000000028152600401602060405180830381600087803b15801561571557600080fd5b505af1158015615729573d6000803e3d6000fd5b505050506040513d602081101561573f57600080fd5b81019080805190602001909291905050509550600091505b600a805490508261ffff1610156159e257600a8261ffff1681548110151561577b57fe5b9060005260206000200160009054906101000a900473ffffffffffffffffffffffffffffffffffffffff1694506157b185615ce6565b9350856157be88866172dc565b8115156157c757fe5b049250600b60008673ffffffffffffffffffffffffffffffffffffffff1673ffffffffffffffffffffffffffffffffffffffff16815260200190815260200160002090508060010160049054906101000a900460ff1615615839576158308160000154846171e6565b81600001819055505b8473ffffffffffffffffffffffffffffffffffffffff166323b872dd3330866040518463ffffffff167c0100000000000000000000000000000000000000000000000000000000028152600401808473ffffffffffffffffffffffffffffffffffffffff1673ffffffffffffffffffffffffffffffffffffffff1681526020018373ffffffffffffffffffffffffffffffffffffffff1673ffffffffffffffffffffffffffffffffffffffff1681526020018281526020019350505050602060405180830381600087803b15801561591057600080fd5b505af1158015615924573d6000803e3d6000fd5b505050506040513d602081101561593a57600080fd5b8101908080519060200190929190505050151561595357fe5b8473ffffffffffffffffffffffffffffffffffffffff167f8a6a7f53b3c8fa1dc4b83e3f1be668c1b251ff8d44cdcb83eb3acec3fec6a7888888018587018460010160009054906101000a900463ffffffff16604051808481526020018381526020018263ffffffff1663ffffffff168152602001935050505060405180910390a28180600101925050615757565b600260009054906101000a900473ffffffffffffffffffffffffffffffffffffffff1673ffffffffffffffffffffffffffffffffffffffff1663867904b433896040518363ffffffff167c0100000000000000000000000000000000000000000000000000000000028152600401808373ffffffffffffffffffffffffffffffffffffffff1673ffffffffffffffffffffffffffffffffffffffff16815260200182815260200192505050600060405180830381600087803b158015615aa757600080fd5b505af1158015615abb573d6000803e3d6000fd5b5050505050505050505050565b600160009054906101000a900473ffffffffffffffffffffffffffffffffffffffff1681565b60008060009054906101000a900473ffffffffffffffffffffffffffffffffffffffff1673ffffffffffffffffffffffffffffffffffffffff163373ffffffffffffffffffffffffffffffffffffffff16141515615b4b57600080fd5b600860009054906101000a900473ffffffffffffffffffffffffffffffffffffffff1673ffffffffffffffffffffffffffffffffffffffff1663bb34534c7f42616e636f72436f6e76657274657255706772616465720000000000000000006040518263ffffffff167c0100000000000000000000000000000000000000000000000000000000028152600401808260001916600019168152602001915050602060405180830381600087803b158015615c0457600080fd5b505af1158015615c18573d6000803e3d6000fd5b505050506040513d6020811015615c2e57600080fd5b81019080805190602001909291905050509050615c4a816161b8565b8073ffffffffffffffffffffffffffffffffffffffff1663bc444e136005546040518263ffffffff167c0100000000000000000000000000000000000000000000000000000000028152600401808260001916600019168152602001915050600060405180830381600087803b158015615cc357600080fd5b505af1158015615cd7573d6000803e3d6000fd5b50505050615ce36145ec565b50565b60008082600b60008273ffffffffffffffffffffffffffffffffffffffff1673ffffffffffffffffffffffffffffffffffffffff16815260200190815260200160002060010160069054906101000a900460ff161515615d4557600080fd5b600b60008573ffffffffffffffffffffffffffffffffffffffff1673ffffffffffffffffffffffffffffffffffffffff16815260200190815260200160002091508160010160049054906101000a900460ff16615e77578373ffffffffffffffffffffffffffffffffffffffff166370a08231306040518263ffffffff167c0100000000000000000000000000000000000000000000000000000000028152600401808273ffffffffffffffffffffffffffffffffffffffff1673ffffffffffffffffffffffffffffffffffffffff168152602001915050602060405180830381600087803b158015615e3757600080fd5b505af1158015615e4b573d6000803e3d6000fd5b505050506040513d6020811015615e6157600080fd5b8101908080519060200190929190505050615e7d565b81600001545b92505050919050565b6000809054906101000a900473ffffffffffffffffffffffffffffffffffffffff1673ffffffffffffffffffffffffffffffffffffffff163373ffffffffffffffffffffffffffffffffffffffff161480615f2e5750600360009054906101000a900473ffffffffffffffffffffffffffffffffffffffff1673ffffffffffffffffffffffffffffffffffffffff163373ffffffffffffffffffffffffffffffffffffffff16145b1515615f3957600080fd5b600360009054906101000a900473ffffffffffffffffffffffffffffffffffffffff1673ffffffffffffffffffffffffffffffffffffffff168173ffffffffffffffffffffffffffffffffffffffff1614151515615f9657600080fd5b80600460006101000a81548173ffffffffffffffffffffffffffffffffffffffff021916908373ffffffffffffffffffffffffffffffffffffffff16021790555050565b6000809054906101000a900473ffffffffffffffffffffffffffffffffffffffff1673ffffffffffffffffffffffffffffffffffffffff163373ffffffffffffffffffffffffffffffffffffffff1614806160825750600360009054906101000a900473ffffffffffffffffffffffffffffffffffffffff1673ffffffffffffffffffffffffffffffffffffffff163373ffffffffffffffffffffffffffffffffffffffff16145b151561608d57600080fd5b8060008163ffffffff16101580156160c35750600c60049054906101000a900463ffffffff1663ffffffff168163ffffffff1611155b15156160ce57600080fd5b7f81cd2ffb37dd237c0e4e2a3de5265fcf9deb43d3e7801e80db9f1ccfba7ee600600c60089054906101000a900463ffffffff1683604051808363ffffffff1663ffffffff1681526020018263ffffffff1663ffffffff1681526020019250505060405180910390a181600c60086101000a81548163ffffffff021916908363ffffffff1602179055505050565b6000836002815111801561617257506015815111155b801561618b575060016002825181151561618857fe5b06145b151561619657600080fd5b6161ae85858560008060006001026000600102611b2a565b9150509392505050565b6000809054906101000a900473ffffffffffffffffffffffffffffffffffffffff1673ffffffffffffffffffffffffffffffffffffffff163373ffffffffffffffffffffffffffffffffffffffff1614151561621357600080fd5b6000809054906101000a900473ffffffffffffffffffffffffffffffffffffffff1673ffffffffffffffffffffffffffffffffffffffff168173ffffffffffffffffffffffffffffffffffffffff161415151561626f57600080fd5b80600160006101000a81548173ffffffffffffffffffffffffffffffffffffffff021916908373ffffffffffffffffffffffffffffffffffffffff16021790555050565b6000809054906101000a900473ffffffffffffffffffffffffffffffffffffffff1673ffffffffffffffffffffffffffffffffffffffff163373ffffffffffffffffffffffffffffffffffffffff16148061635b5750600360009054906101000a900473ffffffffffffffffffffffffffffffffffffffff1673ffffffffffffffffffffffffffffffffffffffff163373ffffffffffffffffffffffffffffffffffffffff16145b151561636657600080fd5b8015600760006101000a81548160ff02191690831515021790555050565b600260009054906101000a900473ffffffffffffffffffffffffffffffffffffffff1681565b6000600760019054906101000a900460ff1615156163c757600080fd5b600860009054906101000a900473ffffffffffffffffffffffffffffffffffffffff1673ffffffffffffffffffffffffffffffffffffffff1663bb34534c7f42616e636f7258000000000000000000000000000000000000000000000000006040518263ffffffff167c0100000000000000000000000000000000000000000000000000000000028152600401808260001916600019168152602001915050602060405180830381600087803b15801561648057600080fd5b505af1158015616494573d6000803e3d6000fd5b505050506040513d60208110156164aa57600080fd5b810190808051906020019092919050505090508073ffffffffffffffffffffffffffffffffffffffff163373ffffffffffffffffffffffffffffffffffffffff161415156164f757600080fd5b600260009054906101000a900473ffffffffffffffffffffffffffffffffffffffff1673ffffffffffffffffffffffffffffffffffffffff1663a24835d184846040518363ffffffff167c0100000000000000000000000000000000000000000000000000000000028152600401808373ffffffffffffffffffffffffffffffffffffffff1673ffffffffffffffffffffffffffffffffffffffff16815260200182815260200192505050600060405180830381600087803b1580156165bc57600080fd5b505af11580156165d0573d6000803e3d6000fd5b50505050600260009054906101000a900473ffffffffffffffffffffffffffffffffffffffff1673ffffffffffffffffffffffffffffffffffffffff1663867904b482846040518363ffffffff167c0100000000000000000000000000000000000000000000000000000000028152600401808373ffffffffffffffffffffffffffffffffffffffff1673ffffffffffffffffffffffffffffffffffffffff16815260200182815260200192505050600060405180830381600087803b15801561669957600080fd5b505af11580156166ad573d6000803e3d6000fd5b50505050505050565b6000809054906101000a900473ffffffffffffffffffffffffffffffffffffffff1673ffffffffffffffffffffffffffffffffffffffff163373ffffffffffffffffffffffffffffffffffffffff1614151561671157600080fd5b600260009054906101000a900473ffffffffffffffffffffffffffffffffffffffff1673ffffffffffffffffffffffffffffffffffffffff1663f2fde38b826040518263ffffffff167c0100000000000000000000000000000000000000000000000000000000028152600401808273ffffffffffffffffffffffffffffffffffffffff1673ffffffffffffffffffffffffffffffffffffffff168152602001915050600060405180830381600087803b1580156167ce57600080fd5b505af11580156167e2573d6000803e3d6000fd5b5050505050565b6000806000806167f98787614e0d565b8093508194505050600083141580156168125750848310155b151561681d57600080fd5b600b60008873ffffffffffffffffffffffffffffffffffffffff1673ffffffffffffffffffffffffffffffffffffffff16815260200190815260200160002090508060010160049054906101000a900460ff161561688c576168838160000154876171e6565b81600001819055505b8673ffffffffffffffffffffffffffffffffffffffff166323b872dd3330896040518463ffffffff167c0100000000000000000000000000000000000000000000000000000000028152600401808473ffffffffffffffffffffffffffffffffffffffff1673ffffffffffffffffffffffffffffffffffffffff1681526020018373ffffffffffffffffffffffffffffffffffffffff1673ffffffffffffffffffffffffffffffffffffffff1681526020018281526020019350505050602060405180830381600087803b15801561696357600080fd5b505af1158015616977573d6000803e3d6000fd5b505050506040513d602081101561698d57600080fd5b810190808051906020019092919050505015156169a657fe5b600260009054906101000a900473ffffffffffffffffffffffffffffffffffffffff1673ffffffffffffffffffffffffffffffffffffffff1663867904b433856040518363ffffffff167c0100000000000000000000000000000000000000000000000000000000028152600401808373ffffffffffffffffffffffffffffffffffffffff1673ffffffffffffffffffffffffffffffffffffffff16815260200182815260200192505050600060405180830381600087803b158015616a6b57600080fd5b505af1158015616a7f573d6000803e3d6000fd5b50505050616ab287600260009054906101000a900473ffffffffffffffffffffffffffffffffffffffff1688868661721d565b8673ffffffffffffffffffffffffffffffffffffffff167f8a6a7f53b3c8fa1dc4b83e3f1be668c1b251ff8d44cdcb83eb3acec3fec6a788600260009054906101000a900473ffffffffffffffffffffffffffffffffffffffff1673ffffffffffffffffffffffffffffffffffffffff166318160ddd6040518163ffffffff167c0100000000000000000000000000000000000000000000000000000000028152600401602060405180830381600087803b158015616b7057600080fd5b505af1158015616b84573d6000803e3d6000fd5b505050506040513d6020811015616b9a57600080fd5b8101908080519060200190929190505050616bb48a615ce6565b8460010160009054906101000a900463ffffffff16604051808481526020018381526020018263ffffffff1663ffffffff168152602001935050505060405180910390a28293505050509392505050565b600080600080600080600260009054906101000a900473ffffffffffffffffffffffffffffffffffffffff1673ffffffffffffffffffffffffffffffffffffffff166370a08231336040518263ffffffff167c0100000000000000000000000000000000000000000000000000000000028152600401808273ffffffffffffffffffffffffffffffffffffffff1673ffffffffffffffffffffffffffffffffffffffff168152602001915050602060405180830381600087803b158015616ccb57600080fd5b505af1158015616cdf573d6000803e3d6000fd5b505050506040513d6020811015616cf557600080fd5b81019080805190602001909291905050508811151515616d1457600080fd5b616d1e898961400e565b809550819650505060008514158015616d375750868510155b1515616d4257600080fd5b600260009054906101000a900473ffffffffffffffffffffffffffffffffffffffff1673ffffffffffffffffffffffffffffffffffffffff166318160ddd6040518163ffffffff167c0100000000000000000000000000000000000000000000000000000000028152600401602060405180830381600087803b158015616dc857600080fd5b505af1158015616ddc573d6000803e3d6000fd5b505050506040513d6020811015616df257600080fd5b81019080805190602001909291905050509250616e0e89615ce6565b915081851080616e2857508185148015616e2757508288145b5b1515616e3057fe5b600b60008a73ffffffffffffffffffffffffffffffffffffffff1673ffffffffffffffffffffffffffffffffffffffff16815260200190815260200160002090508060010160049054906101000a900460ff1615616e9f57616e96816000015486617204565b81600001819055505b600260009054906101000a900473ffffffffffffffffffffffffffffffffffffffff1673ffffffffffffffffffffffffffffffffffffffff1663a24835d1338a6040518363ffffffff167c0100000000000000000000000000000000000000000000000000000000028152600401808373ffffffffffffffffffffffffffffffffffffffff1673ffffffffffffffffffffffffffffffffffffffff16815260200182815260200192505050600060405180830381600087803b158015616f6457600080fd5b505af1158015616f78573d6000803e3d6000fd5b505050508873ffffffffffffffffffffffffffffffffffffffff1663a9059cbb33876040518363ffffffff167c0100000000000000000000000000000000000000000000000000000000028152600401808373ffffffffffffffffffffffffffffffffffffffff1673ffffffffffffffffffffffffffffffffffffffff16815260200182815260200192505050602060405180830381600087803b15801561701f57600080fd5b505af1158015617033573d6000803e3d6000fd5b505050506040513d602081101561704957600080fd5b8101908080519060200190929190505050151561706257fe5b617091600260009054906101000a900473ffffffffffffffffffffffffffffffffffffffff168a8a888861721d565b8873ffffffffffffffffffffffffffffffffffffffff167f8a6a7f53b3c8fa1dc4b83e3f1be668c1b251ff8d44cdcb83eb3acec3fec6a788600260009054906101000a900473ffffffffffffffffffffffffffffffffffffffff1673ffffffffffffffffffffffffffffffffffffffff166318160ddd6040518163ffffffff167c0100000000000000000000000000000000000000000000000000000000028152600401602060405180830381600087803b15801561714f57600080fd5b505af1158015617163573d6000803e3d6000fd5b505050506040513d602081101561717957600080fd5b81019080805190602001909291905050506171938c615ce6565b8460010160009054906101000a900463ffffffff16604051808481526020018381526020018263ffffffff1663ffffffff168152602001935050505060405180910390a284955050505050509392505050565b60008082840190508381101515156171fa57fe5b8091505092915050565b600081831015151561721257fe5b818303905092915050565b7f8000000000000000000000000000000000000000000000000000000000000000811115151561724957fe5b3373ffffffffffffffffffffffffffffffffffffffff168473ffffffffffffffffffffffffffffffffffffffff168673ffffffffffffffffffffffffffffffffffffffff167f276856b36cbc45526a0ba64f44611557a2a8b68662c5388e9fe6d72e86e1c8cb86868660405180848152602001838152602001828152602001935050505060405180910390a45050505050565b600080828402905060008414806172fd57508284828115156172fa57fe5b04145b151561730557fe5b8091505092915050565b6000809054906101000a900473ffffffffffffffffffffffffffffffffffffffff1673ffffffffffffffffffffffffffffffffffffffff163373ffffffffffffffffffffffffffffffffffffffff1614151561736a57600080fd5b82600073ffffffffffffffffffffffffffffffffffffffff168173ffffffffffffffffffffffffffffffffffffffff16141515156173a757600080fd5b82600073ffffffffffffffffffffffffffffffffffffffff168173ffffffffffffffffffffffffffffffffffffffff16141515156173e457600080fd5b833073ffffffffffffffffffffffffffffffffffffffff168173ffffffffffffffffffffffffffffffffffffffff161415151561742057600080fd5b8573ffffffffffffffffffffffffffffffffffffffff1663a9059cbb86866040518363ffffffff167c0100000000000000000000000000000000000000000000000000000000028152600401808373ffffffffffffffffffffffffffffffffffffffff1673ffffffffffffffffffffffffffffffffffffffff16815260200182815260200192505050602060405180830381600087803b1580156174c357600080fd5b505af11580156174d7573d6000803e3d6000fd5b505050506040513d60208110156174ed57600080fd5b8101908080519060200190929190505050151561750657fe5b505050505050565b828054828255906000526020600020908101928215617587579160200282015b828111156175865782518260006101000a81548173ffffffffffffffffffffffffffffffffffffffff021916908373ffffffffffffffffffffffffffffffffffffffff1602179055509160200191906001019061752e565b5b5090506175949190617598565b5090565b6175d891905b808211156175d457600081816101000a81549073ffffffffffffffffffffffffffffffffffffffff02191690555060010161759e565b5090565b905600a165627a7a723058200371260664d4bca5ce0776deedfc65cdfad284a2d293cbd43bed83036fe44a7c0029a165627a7a723058206052189f08aef341c28628e174e9b7c365748b26619d1b1308c79d4068acb9d50029",
  "source": "pragma solidity ^0.4.24;\nimport './BancorConverter.sol';\nimport './interfaces/IBancorConverterFactory.sol';\nimport '../utility/interfaces/IContractRegistry.sol';\n\n/*\n    Bancor Converter Factory\n*/\ncontract BancorConverterFactory is IBancorConverterFactory {\n    // triggered when a new converter is created\n    event NewConverter(address indexed _converter, address indexed _owner);\n\n    /**\n        @dev constructor\n    */\n    constructor() public {\n    }\n\n    /**\n        @dev creates a new converter with the given arguments and transfers\n        the ownership and management to the sender.\n\n        @param  _token              smart token governed by the converter\n        @param  _registry           address of a contract registry contract\n        @param  _maxConversionFee   maximum conversion fee, represented in ppm\n        @param  _connectorToken     optional, initial connector, allows defining the first connector at deployment time\n        @param  _connectorWeight    optional, weight for the initial connector\n\n        @return a new converter\n    */\n    function createConverter(\n        ISmartToken _token,\n        IContractRegistry _registry,\n        uint32 _maxConversionFee,\n        IERC20Token _connectorToken,\n        uint32 _connectorWeight\n    ) public returns(address converterAddress) {\n        BancorConverter converter = new BancorConverter(\n            _token,\n            _registry,\n            _maxConversionFee,\n            _connectorToken,\n            _connectorWeight\n        );\n\n        converter.transferOwnership(msg.sender);\n        converter.transferManagement(msg.sender);\n\n        address _converterAddress = address(converter);\n        emit NewConverter(_converterAddress, msg.sender);\n        return _converterAddress;\n    }\n}\n",
  "sourcePath": "/home/volt/tmp/BatchedBondingCurves/contracts/BancorContracts/converter/BancorConverterFactory.sol",
  "compiler": {
    "name": "solc",
    "version": "0.4.24+commit.e67f0147.Emscripten.clang"
  },
  "schemaVersion": "3.0.0-beta.0",
  "updatedAt": "2019-01-02T14:26:53.721Z"
}