{
  "contractName": "BancorNetwork",
  "abi": [
    {
      "constant": true,
      "inputs": [],
      "name": "BANCOR_CONVERTER_UPGRADER",
      "outputs": [
        {
          "name": "",
          "type": "bytes32"
        }
      ],
      "payable": false,
      "stateMutability": "view",
      "type": "function"
    },
    {
      "constant": true,
      "inputs": [],
      "name": "BNT_TOKEN",
      "outputs": [
        {
          "name": "",
          "type": "bytes32"
        }
      ],
      "payable": false,
      "stateMutability": "view",
      "type": "function"
    },
    {
      "constant": true,
      "inputs": [],
      "name": "CONTRACT_REGISTRY",
      "outputs": [
        {
          "name": "",
          "type": "bytes32"
        }
      ],
      "payable": false,
      "stateMutability": "view",
      "type": "function"
    },
    {
      "constant": true,
      "inputs": [],
      "name": "BANCOR_CONVERTER_FACTORY",
      "outputs": [
        {
          "name": "",
          "type": "bytes32"
        }
      ],
      "payable": false,
      "stateMutability": "view",
      "type": "function"
    },
    {
      "constant": true,
      "inputs": [],
      "name": "signerAddress",
      "outputs": [
        {
          "name": "",
          "type": "address"
        }
      ],
      "payable": false,
      "stateMutability": "view",
      "type": "function"
    },
    {
      "constant": false,
      "inputs": [
        {
          "name": "_token",
          "type": "address"
        },
        {
          "name": "_to",
          "type": "address"
        },
        {
          "name": "_amount",
          "type": "uint256"
        }
      ],
      "name": "withdrawTokens",
      "outputs": [],
      "payable": false,
      "stateMutability": "nonpayable",
      "type": "function"
    },
    {
      "constant": true,
      "inputs": [],
      "name": "BNT_CONVERTER",
      "outputs": [
        {
          "name": "",
          "type": "bytes32"
        }
      ],
      "payable": false,
      "stateMutability": "view",
      "type": "function"
    },
    {
      "constant": true,
      "inputs": [],
      "name": "BANCOR_FORMULA",
      "outputs": [
        {
          "name": "",
          "type": "bytes32"
        }
      ],
      "payable": false,
      "stateMutability": "view",
      "type": "function"
    },
    {
      "constant": false,
      "inputs": [],
      "name": "acceptOwnership",
      "outputs": [],
      "payable": false,
      "stateMutability": "nonpayable",
      "type": "function"
    },
    {
      "constant": true,
      "inputs": [],
      "name": "registry",
      "outputs": [
        {
          "name": "",
          "type": "address"
        }
      ],
      "payable": false,
      "stateMutability": "view",
      "type": "function"
    },
    {
      "constant": true,
      "inputs": [
        {
          "name": "",
          "type": "address"
        }
      ],
      "name": "etherTokens",
      "outputs": [
        {
          "name": "",
          "type": "bool"
        }
      ],
      "payable": false,
      "stateMutability": "view",
      "type": "function"
    },
    {
      "constant": true,
      "inputs": [],
      "name": "CONTRACT_FEATURES",
      "outputs": [
        {
          "name": "",
          "type": "bytes32"
        }
      ],
      "payable": false,
      "stateMutability": "view",
      "type": "function"
    },
    {
      "constant": true,
      "inputs": [
        {
          "name": "",
          "type": "bytes32"
        }
      ],
      "name": "conversionHashes",
      "outputs": [
        {
          "name": "",
          "type": "bool"
        }
      ],
      "payable": false,
      "stateMutability": "view",
      "type": "function"
    },
    {
      "constant": true,
      "inputs": [],
      "name": "owner",
      "outputs": [
        {
          "name": "",
          "type": "address"
        }
      ],
      "payable": false,
      "stateMutability": "view",
      "type": "function"
    },
    {
      "constant": true,
      "inputs": [],
      "name": "BANCOR_NETWORK",
      "outputs": [
        {
          "name": "",
          "type": "bytes32"
        }
      ],
      "payable": false,
      "stateMutability": "view",
      "type": "function"
    },
    {
      "constant": true,
      "inputs": [],
      "name": "BANCOR_GAS_PRICE_LIMIT",
      "outputs": [
        {
          "name": "",
          "type": "bytes32"
        }
      ],
      "payable": false,
      "stateMutability": "view",
      "type": "function"
    },
    {
      "constant": true,
      "inputs": [],
      "name": "CONVERTER_CONVERSION_WHITELIST",
      "outputs": [
        {
          "name": "",
          "type": "uint256"
        }
      ],
      "payable": false,
      "stateMutability": "view",
      "type": "function"
    },
    {
      "constant": true,
      "inputs": [],
      "name": "BANCOR_X",
      "outputs": [
        {
          "name": "",
          "type": "bytes32"
        }
      ],
      "payable": false,
      "stateMutability": "view",
      "type": "function"
    },
    {
      "constant": true,
      "inputs": [],
      "name": "newOwner",
      "outputs": [
        {
          "name": "",
          "type": "address"
        }
      ],
      "payable": false,
      "stateMutability": "view",
      "type": "function"
    },
    {
      "constant": false,
      "inputs": [
        {
          "name": "_newOwner",
          "type": "address"
        }
      ],
      "name": "transferOwnership",
      "outputs": [],
      "payable": false,
      "stateMutability": "nonpayable",
      "type": "function"
    },
    {
      "inputs": [
        {
          "name": "_registry",
          "type": "address"
        }
      ],
      "payable": false,
      "stateMutability": "nonpayable",
      "type": "constructor"
    },
    {
      "anonymous": false,
      "inputs": [
        {
          "indexed": true,
          "name": "_prevOwner",
          "type": "address"
        },
        {
          "indexed": true,
          "name": "_newOwner",
          "type": "address"
        }
      ],
      "name": "OwnerUpdate",
      "type": "event"
    },
    {
      "constant": false,
      "inputs": [
        {
          "name": "_registry",
          "type": "address"
        }
      ],
      "name": "setRegistry",
      "outputs": [],
      "payable": false,
      "stateMutability": "nonpayable",
      "type": "function"
    },
    {
      "constant": false,
      "inputs": [
        {
          "name": "_signerAddress",
          "type": "address"
        }
      ],
      "name": "setSignerAddress",
      "outputs": [],
      "payable": false,
      "stateMutability": "nonpayable",
      "type": "function"
    },
    {
      "constant": false,
      "inputs": [
        {
          "name": "_token",
          "type": "address"
        },
        {
          "name": "_register",
          "type": "bool"
        }
      ],
      "name": "registerEtherToken",
      "outputs": [],
      "payable": false,
      "stateMutability": "nonpayable",
      "type": "function"
    },
    {
      "constant": false,
      "inputs": [
        {
          "name": "_path",
          "type": "address[]"
        },
        {
          "name": "_amount",
          "type": "uint256"
        },
        {
          "name": "_minReturn",
          "type": "uint256"
        },
        {
          "name": "_for",
          "type": "address"
        }
      ],
      "name": "convertFor",
      "outputs": [
        {
          "name": "",
          "type": "uint256"
        }
      ],
      "payable": true,
      "stateMutability": "payable",
      "type": "function"
    },
    {
      "constant": false,
      "inputs": [
        {
          "name": "_path",
          "type": "address[]"
        },
        {
          "name": "_amount",
          "type": "uint256"
        },
        {
          "name": "_minReturn",
          "type": "uint256"
        },
        {
          "name": "_for",
          "type": "address"
        },
        {
          "name": "_block",
          "type": "uint256"
        },
        {
          "name": "_v",
          "type": "uint8"
        },
        {
          "name": "_r",
          "type": "bytes32"
        },
        {
          "name": "_s",
          "type": "bytes32"
        }
      ],
      "name": "convertForPrioritized2",
      "outputs": [
        {
          "name": "",
          "type": "uint256"
        }
      ],
      "payable": true,
      "stateMutability": "payable",
      "type": "function"
    },
    {
      "constant": false,
      "inputs": [
        {
          "name": "_paths",
          "type": "address[]"
        },
        {
          "name": "_pathStartIndex",
          "type": "uint256[]"
        },
        {
          "name": "_amounts",
          "type": "uint256[]"
        },
        {
          "name": "_minReturns",
          "type": "uint256[]"
        },
        {
          "name": "_for",
          "type": "address"
        }
      ],
      "name": "convertForMultiple",
      "outputs": [
        {
          "name": "",
          "type": "uint256[]"
        }
      ],
      "payable": true,
      "stateMutability": "payable",
      "type": "function"
    },
    {
      "constant": true,
      "inputs": [
        {
          "name": "_path",
          "type": "address[]"
        },
        {
          "name": "_amount",
          "type": "uint256"
        }
      ],
      "name": "getReturnByPath",
      "outputs": [
        {
          "name": "",
          "type": "uint256"
        },
        {
          "name": "",
          "type": "uint256"
        }
      ],
      "payable": false,
      "stateMutability": "view",
      "type": "function"
    },
    {
      "constant": false,
      "inputs": [
        {
          "name": "_path",
          "type": "address[]"
        },
        {
          "name": "_amount",
          "type": "uint256"
        },
        {
          "name": "_minReturn",
          "type": "uint256"
        },
        {
          "name": "_for",
          "type": "address"
        }
      ],
      "name": "claimAndConvertFor",
      "outputs": [
        {
          "name": "",
          "type": "uint256"
        }
      ],
      "payable": false,
      "stateMutability": "nonpayable",
      "type": "function"
    },
    {
      "constant": false,
      "inputs": [
        {
          "name": "_path",
          "type": "address[]"
        },
        {
          "name": "_amount",
          "type": "uint256"
        },
        {
          "name": "_minReturn",
          "type": "uint256"
        }
      ],
      "name": "convert",
      "outputs": [
        {
          "name": "",
          "type": "uint256"
        }
      ],
      "payable": true,
      "stateMutability": "payable",
      "type": "function"
    },
    {
      "constant": false,
      "inputs": [
        {
          "name": "_path",
          "type": "address[]"
        },
        {
          "name": "_amount",
          "type": "uint256"
        },
        {
          "name": "_minReturn",
          "type": "uint256"
        }
      ],
      "name": "claimAndConvert",
      "outputs": [
        {
          "name": "",
          "type": "uint256"
        }
      ],
      "payable": false,
      "stateMutability": "nonpayable",
      "type": "function"
    },
    {
      "constant": false,
      "inputs": [
        {
          "name": "_path",
          "type": "address[]"
        },
        {
          "name": "_amount",
          "type": "uint256"
        },
        {
          "name": "_minReturn",
          "type": "uint256"
        },
        {
          "name": "_for",
          "type": "address"
        },
        {
          "name": "_block",
          "type": "uint256"
        },
        {
          "name": "_nonce",
          "type": "uint256"
        },
        {
          "name": "_v",
          "type": "uint8"
        },
        {
          "name": "_r",
          "type": "bytes32"
        },
        {
          "name": "_s",
          "type": "bytes32"
        }
      ],
      "name": "convertForPrioritized",
      "outputs": [
        {
          "name": "",
          "type": "uint256"
        }
      ],
      "payable": true,
      "stateMutability": "payable",
      "type": "function"
    }
  ],
  "bytecode": "0x60806040526000600260006101000a81548173ffffffffffffffffffffffffffffffffffffffff021916908373ffffffffffffffffffffffffffffffffffffffff16021790555034801561005257600080fd5b50604051602080613fb483398101806040528101908080519060200190929190505050336000806101000a81548173ffffffffffffffffffffffffffffffffffffffff021916908373ffffffffffffffffffffffffffffffffffffffff16021790555080600073ffffffffffffffffffffffffffffffffffffffff168173ffffffffffffffffffffffffffffffffffffffff16141515156100f257600080fd5b81600360006101000a81548173ffffffffffffffffffffffffffffffffffffffff021916908373ffffffffffffffffffffffffffffffffffffffff1602179055505050613e70806101446000396000f30060806040526004361061018b576000357c0100000000000000000000000000000000000000000000000000000000900463ffffffff16806302ef521e14610190578063046dc166146101df5780630c8496cc146102225780630c87355e146102ad5780631134269a146102e05780631d000b61146103be57806325f9bfef146103f15780635a46f06c146104245780635b7633d0146104575780635e35359e146104ae57806362614ae61461051b5780636b08f2ef1461054e5780636d7bd3fc1461062257806379ba5097146106555780637b1039991461066c5780638077ccf7146106c357806383315b6e1461071e57806389e63a60146107515780638da5cb5b1461079a5780639232494e146107f15780639249993a1461082457806392d1abb714610857578063a91ee0dc14610882578063b1e9932b146108c5578063b5cadc9114610973578063c4a8598e14610b0a578063c7ba24bc14610b3d578063c98fefed14610bcb578063d4ee1d9014610c6c578063f2fde38b14610cc3578063f3898a9714610d06575b600080fd5b34801561019c57600080fd5b506101dd600480360381019080803573ffffffffffffffffffffffffffffffffffffffff169060200190929190803515159060200190929190505050610d87565b005b3480156101eb57600080fd5b50610220600480360381019080803573ffffffffffffffffffffffffffffffffffffffff169060200190929190505050610eb8565b005b34801561022e57600080fd5b506102906004803603810190808035906020019082018035906020019080806020026020016040519081016040528093929190818152602001838360200280828437820191505050505050919291929080359060200190929190505050610fd2565b604051808381526020018281526020019250505060405180910390f35b3480156102b957600080fd5b506102c2611bb5565b60405180826000191660001916815260200191505060405180910390f35b6103a8600480360381019080803590602001908201803590602001908080602002602001604051908101604052809392919081815260200183836020028082843782019150505050505091929192908035906020019092919080359060200190929190803573ffffffffffffffffffffffffffffffffffffffff1690602001909291908035906020019092919080359060200190929190803560ff16906020019092919080356000191690602001909291908035600019169060200190929190505050611bd9565b6040518082815260200191505060405180910390f35b3480156103ca57600080fd5b506103d3611bfa565b60405180826000191660001916815260200191505060405180910390f35b3480156103fd57600080fd5b50610406611c1e565b60405180826000191660001916815260200191505060405180910390f35b34801561043057600080fd5b50610439611c42565b60405180826000191660001916815260200191505060405180910390f35b34801561046357600080fd5b5061046c611c66565b604051808273ffffffffffffffffffffffffffffffffffffffff1673ffffffffffffffffffffffffffffffffffffffff16815260200191505060405180910390f35b3480156104ba57600080fd5b50610519600480360381019080803573ffffffffffffffffffffffffffffffffffffffff169060200190929190803573ffffffffffffffffffffffffffffffffffffffff16906020019092919080359060200190929190505050611c8c565b005b34801561052757600080fd5b50610530611e8b565b60405180826000191660001916815260200191505060405180910390f35b61060c600480360381019080803590602001908201803590602001908080602002602001604051908101604052809392919081815260200183836020028082843782019150505050505091929192908035906020019092919080359060200190929190803573ffffffffffffffffffffffffffffffffffffffff16906020019092919080359060200190929190803560ff16906020019092919080356000191690602001909291908035600019169060200190929190505050611eaf565b6040518082815260200191505060405180910390f35b34801561062e57600080fd5b5061063761201a565b60405180826000191660001916815260200191505060405180910390f35b34801561066157600080fd5b5061066a61203e565b005b34801561067857600080fd5b506106816121dd565b604051808273ffffffffffffffffffffffffffffffffffffffff1673ffffffffffffffffffffffffffffffffffffffff16815260200191505060405180910390f35b3480156106cf57600080fd5b50610704600480360381019080803573ffffffffffffffffffffffffffffffffffffffff169060200190929190505050612203565b604051808215151515815260200191505060405180910390f35b34801561072a57600080fd5b50610733612223565b60405180826000191660001916815260200191505060405180910390f35b34801561075d57600080fd5b506107806004803603810190808035600019169060200190929190505050612247565b604051808215151515815260200191505060405180910390f35b3480156107a657600080fd5b506107af612267565b604051808273ffffffffffffffffffffffffffffffffffffffff1673ffffffffffffffffffffffffffffffffffffffff16815260200191505060405180910390f35b3480156107fd57600080fd5b5061080661228c565b60405180826000191660001916815260200191505060405180910390f35b34801561083057600080fd5b506108396122b0565b60405180826000191660001916815260200191505060405180910390f35b34801561086357600080fd5b5061086c6122d4565b6040518082815260200191505060405180910390f35b34801561088e57600080fd5b506108c3600480360381019080803573ffffffffffffffffffffffffffffffffffffffff1690602001909291905050506122d9565b005b3480156108d157600080fd5b5061095d600480360381019080803590602001908201803590602001908080602002602001604051908101604052809392919081815260200183836020028082843782019150505050505091929192908035906020019092919080359060200190929190803573ffffffffffffffffffffffffffffffffffffffff1690602001909291905050506123f3565b6040518082815260200191505060405180910390f35b610ab360048036038101908080359060200190820180359060200190808060200260200160405190810160405280939291908181526020018383602002808284378201915050505050509192919290803590602001908201803590602001908080602002602001604051908101604052809392919081815260200183836020028082843782019150505050505091929192908035906020019082018035906020019080806020026020016040519081016040528093929190818152602001838360200280828437820191505050505050919291929080359060200190820180359060200190808060200260200160405190810160405280939291908181526020018383602002808284378201915050505050509192919290803573ffffffffffffffffffffffffffffffffffffffff169060200190929190505050612542565b6040518080602001828103825283818151815260200191508051906020019060200280838360005b83811015610af6578082015181840152602081019050610adb565b505050509050019250505060405180910390f35b348015610b1657600080fd5b50610b1f612917565b60405180826000191660001916815260200191505060405180910390f35b348015610b4957600080fd5b50610bb560048036038101908080359060200190820180359060200190808060200260200160405190810160405280939291908181526020018383602002808284378201915050505050509192919290803590602001909291908035906020019092919050505061293b565b6040518082815260200191505060405180910390f35b610c56600480360381019080803590602001908201803590602001908080602002602001604051908101604052809392919081815260200183836020028082843782019150505050505091929192908035906020019092919080359060200190929190803573ffffffffffffffffffffffffffffffffffffffff169060200190929190505050612952565b6040518082815260200191505060405180910390f35b348015610c7857600080fd5b50610c81612977565b604051808273ffffffffffffffffffffffffffffffffffffffff1673ffffffffffffffffffffffffffffffffffffffff16815260200191505060405180910390f35b348015610ccf57600080fd5b50610d04600480360381019080803573ffffffffffffffffffffffffffffffffffffffff16906020019092919050505061299d565b005b610d71600480360381019080803590602001908201803590602001908080602002602001604051908101604052809392919081815260200183836020028082843782019150505050505091929192908035906020019092919080359060200190929190505050612a98565b6040518082815260200191505060405180910390f35b6000809054906101000a900473ffffffffffffffffffffffffffffffffffffffff1673ffffffffffffffffffffffffffffffffffffffff163373ffffffffffffffffffffffffffffffffffffffff16141515610de257600080fd5b81600073ffffffffffffffffffffffffffffffffffffffff168173ffffffffffffffffffffffffffffffffffffffff1614151515610e1f57600080fd5b823073ffffffffffffffffffffffffffffffffffffffff168173ffffffffffffffffffffffffffffffffffffffff1614151515610e5b57600080fd5b82600460008673ffffffffffffffffffffffffffffffffffffffff1673ffffffffffffffffffffffffffffffffffffffff16815260200190815260200160002060006101000a81548160ff02191690831515021790555050505050565b6000809054906101000a900473ffffffffffffffffffffffffffffffffffffffff1673ffffffffffffffffffffffffffffffffffffffff163373ffffffffffffffffffffffffffffffffffffffff16141515610f1357600080fd5b80600073ffffffffffffffffffffffffffffffffffffffff168173ffffffffffffffffffffffffffffffffffffffff1614151515610f5057600080fd5b813073ffffffffffffffffffffffffffffffffffffffff168173ffffffffffffffffffffffffffffffffffffffff1614151515610f8c57600080fd5b82600260006101000a81548173ffffffffffffffffffffffffffffffffffffffff021916908373ffffffffffffffffffffffffffffffffffffffff160217905550505050565b600080600080600080600080600080600080600080600360009054906101000a900473ffffffffffffffffffffffffffffffffffffffff1673ffffffffffffffffffffffffffffffffffffffff166321f8a7217f42616e636f72466f726d756c61000000000000000000000000000000000000006040518263ffffffff167c0100000000000000000000000000000000000000000000000000000000028152600401808260001916600019168152602001915050602060405180830381600087803b1580156110a057600080fd5b505af11580156110b4573d6000803e3d6000fd5b505050506040513d60208110156110ca57600080fd5b810190808051906020019092919050505091508e97508f60008151811015156110ef57fe5b906020019060200201519b50600190505b8f51811015611b9c578f8181518110151561111757fe5b906020019060200201519a508f6001820181518110151561113457fe5b9060200190602002015199508a73ffffffffffffffffffffffffffffffffffffffff16638da5cb5b6040518163ffffffff167c0100000000000000000000000000000000000000000000000000000000028152600401602060405180830381600087803b1580156111a457600080fd5b505af11580156111b8573d6000803e3d6000fd5b505050506040513d60208110156111ce57600080fd5b810190808051906020019092919050505098508a73ffffffffffffffffffffffffffffffffffffffff168a73ffffffffffffffffffffffffffffffffffffffff16141561162e578273ffffffffffffffffffffffffffffffffffffffff168b73ffffffffffffffffffffffffffffffffffffffff16146112ec578a73ffffffffffffffffffffffffffffffffffffffff166318160ddd6040518163ffffffff167c0100000000000000000000000000000000000000000000000000000000028152600401602060405180830381600087803b1580156112ac57600080fd5b505af11580156112c0573d6000803e3d6000fd5b505050506040513d60208110156112d657600080fd5b81019080805190602001909291905050506112ee565b855b95506112fa898d612aaf565b151561130557600080fd5b8873ffffffffffffffffffffffffffffffffffffffff1663d89595128d6040518263ffffffff167c0100000000000000000000000000000000000000000000000000000000028152600401808273ffffffffffffffffffffffffffffffffffffffff1673ffffffffffffffffffffffffffffffffffffffff168152602001915050602060405180830381600087803b1580156113a057600080fd5b505af11580156113b4573d6000803e3d6000fd5b505050506040513d60208110156113ca57600080fd5b810190808051906020019092919050505094506113e7898d612bd8565b93508173ffffffffffffffffffffffffffffffffffffffff166329a00e7c8787878c6040518563ffffffff167c0100000000000000000000000000000000000000000000000000000000028152600401808581526020018481526020018363ffffffff1663ffffffff168152602001828152602001945050505050602060405180830381600087803b15801561147c57600080fd5b505af1158015611490573d6000803e3d6000fd5b505050506040513d60208110156114a657600080fd5b81019080805190602001909291905050509750620f424067ffffffffffffffff16611575898b73ffffffffffffffffffffffffffffffffffffffff1663579cd3ca6040518163ffffffff167c0100000000000000000000000000000000000000000000000000000000028152600401602060405180830381600087803b15801561152f57600080fd5b505af1158015611543573d6000803e3d6000fd5b505050506040513d602081101561155957600080fd5b810190808051906020019092919050505063ffffffff16612d01565b81151561157e57fe5b0496508688039750878b73ffffffffffffffffffffffffffffffffffffffff166318160ddd6040518163ffffffff167c0100000000000000000000000000000000000000000000000000000000028152600401602060405180830381600087803b1580156115eb57600080fd5b505af11580156115ff573d6000803e3d6000fd5b505050506040513d602081101561161557600080fd5b8101908080519060200190929190505050019550611b8b565b8a73ffffffffffffffffffffffffffffffffffffffff168c73ffffffffffffffffffffffffffffffffffffffff161415611a66578273ffffffffffffffffffffffffffffffffffffffff168b73ffffffffffffffffffffffffffffffffffffffff1614611739578a73ffffffffffffffffffffffffffffffffffffffff166318160ddd6040518163ffffffff167c0100000000000000000000000000000000000000000000000000000000028152600401602060405180830381600087803b1580156116f957600080fd5b505af115801561170d573d6000803e3d6000fd5b505050506040513d602081101561172357600080fd5b810190808051906020019092919050505061173b565b855b95508873ffffffffffffffffffffffffffffffffffffffff1663d89595128b6040518263ffffffff167c0100000000000000000000000000000000000000000000000000000000028152600401808273ffffffffffffffffffffffffffffffffffffffff1673ffffffffffffffffffffffffffffffffffffffff168152602001915050602060405180830381600087803b1580156117d857600080fd5b505af11580156117ec573d6000803e3d6000fd5b505050506040513d602081101561180257600080fd5b8101908080519060200190929190505050945061181f898b612bd8565b93508173ffffffffffffffffffffffffffffffffffffffff166349f9b0f78787878c6040518563ffffffff167c0100000000000000000000000000000000000000000000000000000000028152600401808581526020018481526020018363ffffffff1663ffffffff168152602001828152602001945050505050602060405180830381600087803b1580156118b457600080fd5b505af11580156118c8573d6000803e3d6000fd5b505050506040513d60208110156118de57600080fd5b81019080805190602001909291905050509750620f424067ffffffffffffffff166119ad898b73ffffffffffffffffffffffffffffffffffffffff1663579cd3ca6040518163ffffffff167c0100000000000000000000000000000000000000000000000000000000028152600401602060405180830381600087803b15801561196757600080fd5b505af115801561197b573d6000803e3d6000fd5b505050506040513d602081101561199157600080fd5b810190808051906020019092919050505063ffffffff16612d01565b8115156119b657fe5b0496508688039750878b73ffffffffffffffffffffffffffffffffffffffff166318160ddd6040518163ffffffff167c0100000000000000000000000000000000000000000000000000000000028152600401602060405180830381600087803b158015611a2357600080fd5b505af1158015611a37573d6000803e3d6000fd5b505050506040513d6020811015611a4d57600080fd5b8101908080519060200190929190505050039550611b8a565b8873ffffffffffffffffffffffffffffffffffffffff16631e1401f88d8c8b6040518463ffffffff167c0100000000000000000000000000000000000000000000000000000000028152600401808473ffffffffffffffffffffffffffffffffffffffff1673ffffffffffffffffffffffffffffffffffffffff1681526020018373ffffffffffffffffffffffffffffffffffffffff1673ffffffffffffffffffffffffffffffffffffffff16815260200182815260200193505050506040805180830381600087803b158015611b3c57600080fd5b505af1158015611b50573d6000803e3d6000fd5b505050506040513d6040811015611b6657600080fd5b81019080805190602001909291908051906020019092919050505080985081995050505b5b8a9250899b50600281019050611100565b87879d509d505050505050505050505050509250929050565b7f42616e636f72436f6e766572746572557067726164657200000000000000000081565b6000611beb8a8a8a8a8a898989611eaf565b90509998505050505050505050565b7f424e54546f6b656e00000000000000000000000000000000000000000000000081565b7f436f6e747261637452656769737472790000000000000000000000000000000081565b7f42616e636f72436f6e766572746572466163746f72790000000000000000000081565b600260009054906101000a900473ffffffffffffffffffffffffffffffffffffffff1681565b6000809054906101000a900473ffffffffffffffffffffffffffffffffffffffff1673ffffffffffffffffffffffffffffffffffffffff163373ffffffffffffffffffffffffffffffffffffffff16141515611ce757600080fd5b82600073ffffffffffffffffffffffffffffffffffffffff168173ffffffffffffffffffffffffffffffffffffffff1614151515611d2457600080fd5b82600073ffffffffffffffffffffffffffffffffffffffff168173ffffffffffffffffffffffffffffffffffffffff1614151515611d6157600080fd5b833073ffffffffffffffffffffffffffffffffffffffff168173ffffffffffffffffffffffffffffffffffffffff1614151515611d9d57600080fd5b8573ffffffffffffffffffffffffffffffffffffffff1663a9059cbb86866040518363ffffffff167c0100000000000000000000000000000000000000000000000000000000028152600401808373ffffffffffffffffffffffffffffffffffffffff1673ffffffffffffffffffffffffffffffffffffffff16815260200182815260200192505050602060405180830381600087803b158015611e4057600080fd5b505af1158015611e54573d6000803e3d6000fd5b505050506040513d6020811015611e6a57600080fd5b81019080805190602001909291905050501515611e8357fe5b505050505050565b7f424e54436f6e766572746572000000000000000000000000000000000000000081565b6000808960028151118015611ec657506015815111155b8015611edf5750600160028251811515611edc57fe5b06145b1515611eea57600080fd5b8a6000815181101515611ef957fe5b9060200190602002015191506000341480611f685750348a148015611f675750600460008373ffffffffffffffffffffffffffffffffffffffff1673ffffffffffffffffffffffffffffffffffffffff16815260200190815260200160002060009054906101000a900460ff165b5b1515611f7357600080fd5b6000341115611ffa578173ffffffffffffffffffffffffffffffffffffffff1663d0e30db0346040518263ffffffff167c01000000000000000000000000000000000000000000000000000000000281526004016000604051808303818588803b158015611fe057600080fd5b505af1158015611ff4573d6000803e3d6000fd5b50505050505b61200a8b8b8b8b8b8b8b8b612d34565b9250505098975050505050505050565b7f42616e636f72466f726d756c610000000000000000000000000000000000000081565b600160009054906101000a900473ffffffffffffffffffffffffffffffffffffffff1673ffffffffffffffffffffffffffffffffffffffff163373ffffffffffffffffffffffffffffffffffffffff1614151561209a57600080fd5b600160009054906101000a900473ffffffffffffffffffffffffffffffffffffffff1673ffffffffffffffffffffffffffffffffffffffff166000809054906101000a900473ffffffffffffffffffffffffffffffffffffffff1673ffffffffffffffffffffffffffffffffffffffff167f343765429aea5a34b3ff6a3785a98a5abb2597aca87bfbb58632c173d585373a60405160405180910390a3600160009054906101000a900473ffffffffffffffffffffffffffffffffffffffff166000806101000a81548173ffffffffffffffffffffffffffffffffffffffff021916908373ffffffffffffffffffffffffffffffffffffffff1602179055506000600160006101000a81548173ffffffffffffffffffffffffffffffffffffffff021916908373ffffffffffffffffffffffffffffffffffffffff160217905550565b600360009054906101000a900473ffffffffffffffffffffffffffffffffffffffff1681565b60046020528060005260406000206000915054906101000a900460ff1681565b7f436f6e747261637446656174757265730000000000000000000000000000000081565b60056020528060005260406000206000915054906101000a900460ff1681565b6000809054906101000a900473ffffffffffffffffffffffffffffffffffffffff1681565b7f42616e636f724e6574776f726b0000000000000000000000000000000000000081565b7f42616e636f7247617350726963654c696d69740000000000000000000000000081565b600181565b6000809054906101000a900473ffffffffffffffffffffffffffffffffffffffff1673ffffffffffffffffffffffffffffffffffffffff163373ffffffffffffffffffffffffffffffffffffffff1614151561233457600080fd5b80600073ffffffffffffffffffffffffffffffffffffffff168173ffffffffffffffffffffffffffffffffffffffff161415151561237157600080fd5b813073ffffffffffffffffffffffffffffffffffffffff168173ffffffffffffffffffffffffffffffffffffffff16141515156123ad57600080fd5b82600360006101000a81548173ffffffffffffffffffffffffffffffffffffffff021916908373ffffffffffffffffffffffffffffffffffffffff160217905550505050565b60008085600081518110151561240557fe5b9060200190602002015190508073ffffffffffffffffffffffffffffffffffffffff166323b872dd3330886040518463ffffffff167c0100000000000000000000000000000000000000000000000000000000028152600401808473ffffffffffffffffffffffffffffffffffffffff1673ffffffffffffffffffffffffffffffffffffffff1681526020018373ffffffffffffffffffffffffffffffffffffffff1673ffffffffffffffffffffffffffffffffffffffff1681526020018281526020019350505050602060405180830381600087803b1580156124e857600080fd5b505af11580156124fc573d6000803e3d6000fd5b505050506040513d602081101561251257600080fd5b8101908080519060200190929190505050151561252b57fe5b61253786868686612952565b915050949350505050565b60606000806000606060008060009550600093505b8a518410156128f75760018b5103841461258b578a6001850181518110151561257c57fe5b9060200190602002015161258e565b8b515b94508a8481518110151561259e57fe5b9060200190602002015185036040519080825280602002602001820160405280156125d85781602001602082028038833980820191505090505b5092508a848151811015156125e957fe5b9060200190602002015191505b84821015612684578b8281518110151561260c57fe5b90602001906020020151838c8681518110151561262557fe5b90602001906020020151840381518110151561263d57fe5b9060200190602002019073ffffffffffffffffffffffffffffffffffffffff16908173ffffffffffffffffffffffffffffffffffffffff16815250506001820191506125f6565b82600081518110151561269357fe5b906020019060200201519050600034148061271a5750348a858151811015156126b857fe5b90602001906020020151111580156127195750600460008273ffffffffffffffffffffffffffffffffffffffff1673ffffffffffffffffffffffffffffffffffffffff16815260200190815260200160002060009054906101000a900460ff165b5b8061276f5750600460008273ffffffffffffffffffffffffffffffffffffffff1673ffffffffffffffffffffffffffffffffffffffff16815260200190815260200160002060009054906101000a900460ff16155b151561277a57600080fd5b6000341180156127d35750600460008273ffffffffffffffffffffffffffffffffffffffff1673ffffffffffffffffffffffffffffffffffffffff16815260200190815260200160002060009054906101000a900460ff165b15612889578073ffffffffffffffffffffffffffffffffffffffff1663d0e30db08b8681518110151561280257fe5b906020019060200201516040518263ffffffff167c01000000000000000000000000000000000000000000000000000000000281526004016000604051808303818588803b15801561285357600080fd5b505af1158015612867573d6000803e3d6000fd5b5050505050898481518110151561287a57fe5b90602001906020020151860195505b6128d0838b8681518110151561289b57fe5b906020019060200201518b878151811015156128b357fe5b906020019060200201518b60008060006001026000600102612d34565b8a858151811015156128de57fe5b9060200190602002018181525050600184019350612557565b348614151561290557600080fd5b89965050505050505095945050505050565b7f42616e636f72580000000000000000000000000000000000000000000000000081565b6000612949848484336123f3565b90509392505050565b600061296d8585858560008060006001026000600102611eaf565b9050949350505050565b600160009054906101000a900473ffffffffffffffffffffffffffffffffffffffff1681565b6000809054906101000a900473ffffffffffffffffffffffffffffffffffffffff1673ffffffffffffffffffffffffffffffffffffffff163373ffffffffffffffffffffffffffffffffffffffff161415156129f857600080fd5b6000809054906101000a900473ffffffffffffffffffffffffffffffffffffffff1673ffffffffffffffffffffffffffffffffffffffff168173ffffffffffffffffffffffffffffffffffffffff1614151515612a5457600080fd5b80600160006101000a81548173ffffffffffffffffffffffffffffffffffffffff021916908373ffffffffffffffffffffffffffffffffffffffff16021790555050565b6000612aa684848433612952565b90509392505050565b6000806000806000808773ffffffffffffffffffffffffffffffffffffffff16630e53aae9886040518263ffffffff167c0100000000000000000000000000000000000000000000000000000000028152600401808273ffffffffffffffffffffffffffffffffffffffff1673ffffffffffffffffffffffffffffffffffffffff16815260200191505060a060405180830381600087803b158015612b5357600080fd5b505af1158015612b67573d6000803e3d6000fd5b505050506040513d60a0811015612b7d57600080fd5b8101908080519060200190929190805190602001909291908051906020019092919080519060200190929190805190602001909291905050508095508196508297508398508499505050505050819550505050505092915050565b6000806000806000808773ffffffffffffffffffffffffffffffffffffffff16630e53aae9886040518263ffffffff167c0100000000000000000000000000000000000000000000000000000000028152600401808273ffffffffffffffffffffffffffffffffffffffff1673ffffffffffffffffffffffffffffffffffffffff16815260200191505060a060405180830381600087803b158015612c7c57600080fd5b505af1158015612c90573d6000803e3d6000fd5b505050506040513d60a0811015612ca657600080fd5b8101908080519060200190929190805190602001909291908051906020019092919080519060200190929190805190602001909291905050508095508196508297508398508499505050505050839550505050505092915050565b60008082840290506000841480612d225750828482811515612d1f57fe5b04145b1515612d2a57fe5b8091505092915050565b6000806000808b60028151118015612d4e57506015815111155b8015612d675750600160028251811515612d6457fe5b06145b1515612d7257600080fd5b60008860ff16148015612d8c575060006001028760001916145b8015612d9f575060006001028660001916145b15612f2657600360009054906101000a900473ffffffffffffffffffffffffffffffffffffffff1673ffffffffffffffffffffffffffffffffffffffff1663bb34534c7f42616e636f7247617350726963654c696d6974000000000000000000000000006040518263ffffffff167c0100000000000000000000000000000000000000000000000000000000028152600401808260001916600019168152602001915050602060405180830381600087803b158015612e5d57600080fd5b505af1158015612e71573d6000803e3d6000fd5b505050506040513d6020811015612e8757600080fd5b810190808051906020019092919050505093508373ffffffffffffffffffffffffffffffffffffffff16636b4dff1f3a6040518263ffffffff167c010000000000000000000000000000000000000000000000000000000002815260040180828152602001915050600060405180830381600087803b158015612f0957600080fd5b505af1158015612f1d573d6000803e3d6000fd5b50505050612f41565b612f358d8d8b8d8c8c8c61317d565b1515612f4057600080fd5b5b8c6000815181101515612f5057fe5b906020019060200201519250612f698d8d8d868e61340e565b809d508193505050600460008373ffffffffffffffffffffffffffffffffffffffff1673ffffffffffffffffffffffffffffffffffffffff16815260200190815260200160002060009054906101000a900460ff1615613083578173ffffffffffffffffffffffffffffffffffffffff1663205c28788b8e6040518363ffffffff167c0100000000000000000000000000000000000000000000000000000000028152600401808373ffffffffffffffffffffffffffffffffffffffff1673ffffffffffffffffffffffffffffffffffffffff16815260200182815260200192505050600060405180830381600087803b15801561306657600080fd5b505af115801561307a573d6000803e3d6000fd5b5050505061316a565b8173ffffffffffffffffffffffffffffffffffffffff1663a9059cbb8b8e6040518363ffffffff167c0100000000000000000000000000000000000000000000000000000000028152600401808373ffffffffffffffffffffffffffffffffffffffff1673ffffffffffffffffffffffffffffffffffffffff16815260200182815260200192505050602060405180830381600087803b15801561312657600080fd5b505af115801561313a573d6000803e3d6000fd5b505050506040513d602081101561315057600080fd5b8101908080519060200190929190505050151561316957fe5b5b8b94505050505098975050505050505050565b600080600080883a89338d8f604051808781526020018681526020018573ffffffffffffffffffffffffffffffffffffffff1673ffffffffffffffffffffffffffffffffffffffff166c010000000000000000000000000281526014018473ffffffffffffffffffffffffffffffffffffffff1673ffffffffffffffffffffffffffffffffffffffff166c01000000000000000000000000028152601401838152602001828051906020019060200280838360005b8381101561324d578082015181840152602081019050613232565b5050505090500196505050505050506040518091039020925060056000846000191660001916815260200190815260200160002060009054906101000a900460ff1615801561329c5750884311155b15156132a757600080fd5b8260405180807f19457468657265756d205369676e6564204d6573736167653a0a333200000000815250601c01826000191660001916815260200191505060405180910390209150600260009054906101000a900473ffffffffffffffffffffffffffffffffffffffff1673ffffffffffffffffffffffffffffffffffffffff16600183898989604051600081526020016040526040518085600019166000191681526020018460ff1660ff1681526020018360001916600019168152602001826000191660001916815260200194505050505060206040516020810390808403906000865af115801561339f573d6000803e3d6000fd5b5050506020604051035173ffffffffffffffffffffffffffffffffffffffff1614905080156133fd57600160056000856000191660001916815260200190815260200160002060006101000a81548160ff0219169083151502179055505b809350505050979650505050505050565b600080600080600080600080600360009054906101000a900473ffffffffffffffffffffffffffffffffffffffff1673ffffffffffffffffffffffffffffffffffffffff1663bb34534c7f436f6e74726163744665617475726573000000000000000000000000000000006040518263ffffffff167c0100000000000000000000000000000000000000000000000000000000028152600401808260001916600019168152602001915050602060405180830381600087803b1580156134d357600080fd5b505af11580156134e7573d6000803e3d6000fd5b505050506040513d60208110156134fd57600080fd5b810190808051906020019092919050505092508c519150600190505b81811015613781578c8181518110151561352f57fe5b9060200190602002015195508c6001820181518110151561354c57fe5b9060200190602002015194508573ffffffffffffffffffffffffffffffffffffffff16638da5cb5b6040518163ffffffff167c0100000000000000000000000000000000000000000000000000000000028152600401602060405180830381600087803b1580156135bc57600080fd5b505af11580156135d0573d6000803e3d6000fd5b505050506040513d60208110156135e657600080fd5b81019080805190602001909291905050509350613604848a85613797565b8973ffffffffffffffffffffffffffffffffffffffff168673ffffffffffffffffffffffffffffffffffffffff16141515613645576136448a858e613a46565b5b8373ffffffffffffffffffffffffffffffffffffffff16635e5144eb8b878f600287038614613675576001613677565b8f5b6040518563ffffffff167c0100000000000000000000000000000000000000000000000000000000028152600401808573ffffffffffffffffffffffffffffffffffffffff1673ffffffffffffffffffffffffffffffffffffffff1681526020018473ffffffffffffffffffffffffffffffffffffffff1673ffffffffffffffffffffffffffffffffffffffff168152602001838152602001828152602001945050505050602060405180830381600087803b15801561373657600080fd5b505af115801561374a573d6000803e3d6000fd5b505050506040513d602081101561376057600080fd5b81019080805190602001909291905050509b50849950600281019050613519565b848c975097505050505050509550959350505050565b60008173ffffffffffffffffffffffffffffffffffffffff1663a5fbf2878560016040518363ffffffff167c0100000000000000000000000000000000000000000000000000000000028152600401808373ffffffffffffffffffffffffffffffffffffffff1673ffffffffffffffffffffffffffffffffffffffff16815260200182815260200192505050602060405180830381600087803b15801561383d57600080fd5b505af1158015613851573d6000803e3d6000fd5b505050506040513d602081101561386757600080fd5b8101908080519060200190929190505050151561388357613a40565b8373ffffffffffffffffffffffffffffffffffffffff1663c45d3d926040518163ffffffff167c0100000000000000000000000000000000000000000000000000000000028152600401602060405180830381600087803b1580156138e757600080fd5b505af11580156138fb573d6000803e3d6000fd5b505050506040513d602081101561391157600080fd5b81019080805190602001909291905050509050600073ffffffffffffffffffffffffffffffffffffffff168173ffffffffffffffffffffffffffffffffffffffff16141561395e57613a40565b8073ffffffffffffffffffffffffffffffffffffffff16633af32abf846040518263ffffffff167c0100000000000000000000000000000000000000000000000000000000028152600401808273ffffffffffffffffffffffffffffffffffffffff1673ffffffffffffffffffffffffffffffffffffffff168152602001915050602060405180830381600087803b1580156139f957600080fd5b505af1158015613a0d573d6000803e3d6000fd5b505050506040513d6020811015613a2357600080fd5b81019080805190602001909291905050501515613a3f57600080fd5b5b50505050565b808373ffffffffffffffffffffffffffffffffffffffff1663dd62ed3e30856040518363ffffffff167c0100000000000000000000000000000000000000000000000000000000028152600401808373ffffffffffffffffffffffffffffffffffffffff1673ffffffffffffffffffffffffffffffffffffffff1681526020018273ffffffffffffffffffffffffffffffffffffffff1673ffffffffffffffffffffffffffffffffffffffff16815260200192505050602060405180830381600087803b158015613b1657600080fd5b505af1158015613b2a573d6000803e3d6000fd5b505050506040513d6020811015613b4057600080fd5b8101908080519060200190929190505050101515613b5d57613e3f565b60008373ffffffffffffffffffffffffffffffffffffffff1663dd62ed3e30856040518363ffffffff167c0100000000000000000000000000000000000000000000000000000000028152600401808373ffffffffffffffffffffffffffffffffffffffff1673ffffffffffffffffffffffffffffffffffffffff1681526020018273ffffffffffffffffffffffffffffffffffffffff1673ffffffffffffffffffffffffffffffffffffffff16815260200192505050602060405180830381600087803b158015613c2e57600080fd5b505af1158015613c42573d6000803e3d6000fd5b505050506040513d6020811015613c5857600080fd5b8101908080519060200190929190505050141515613d58578273ffffffffffffffffffffffffffffffffffffffff1663095ea7b38360006040518363ffffffff167c0100000000000000000000000000000000000000000000000000000000028152600401808373ffffffffffffffffffffffffffffffffffffffff1673ffffffffffffffffffffffffffffffffffffffff16815260200182815260200192505050602060405180830381600087803b158015613d1457600080fd5b505af1158015613d28573d6000803e3d6000fd5b505050506040513d6020811015613d3e57600080fd5b81019080805190602001909291905050501515613d5757fe5b5b8273ffffffffffffffffffffffffffffffffffffffff1663095ea7b383836040518363ffffffff167c0100000000000000000000000000000000000000000000000000000000028152600401808373ffffffffffffffffffffffffffffffffffffffff1673ffffffffffffffffffffffffffffffffffffffff16815260200182815260200192505050602060405180830381600087803b158015613dfb57600080fd5b505af1158015613e0f573d6000803e3d6000fd5b505050506040513d6020811015613e2557600080fd5b81019080805190602001909291905050501515613e3e57fe5b5b5050505600a165627a7a7230582029b4064172d99a5ce2af3d910872a4f71df938c094862cbbca47d439f1f6f6410029",
  "source": "pragma solidity ^0.4.24;\nimport './IBancorNetwork.sol';\nimport './ContractIds.sol';\nimport './FeatureIds.sol';\nimport './converter/interfaces/IBancorConverter.sol';\nimport './converter/interfaces/IBancorFormula.sol';\nimport './converter/interfaces/IBancorGasPriceLimit.sol';\nimport './utility/TokenHolder.sol';\nimport './utility/interfaces/IContractRegistry.sol';\nimport './utility/interfaces/IContractFeatures.sol';\nimport './utility/interfaces/IWhitelist.sol';\nimport './token/interfaces/IEtherToken.sol';\nimport './token/interfaces/ISmartToken.sol';\n\n/*\n    The BancorNetwork contract is the main entry point for bancor token conversions.\n    It also allows converting between any token in the bancor network to any other token\n    in a single transaction by providing a conversion path.\n\n    A note on conversion path -\n    Conversion path is a data structure that's used when converting a token to another token in the bancor network\n    when the conversion cannot necessarily be done by single converter and might require multiple 'hops'.\n    The path defines which converters should be used and what kind of conversion should be done in each step.\n\n    The path format doesn't include complex structure and instead, it is represented by a single array\n    in which each 'hop' is represented by a 2-tuple - smart token & to token.\n    In addition, the first element is always the source token.\n    The smart token is only used as a pointer to a converter (since converter addresses are more likely to change).\n\n    Format:\n    [source token, smart token, to token, smart token, to token...]\n*/\ncontract BancorNetwork is IBancorNetwork, TokenHolder, ContractIds, FeatureIds {\n    uint64 private constant MAX_CONVERSION_FEE = 1000000;\n\n    address public signerAddress = 0x0;         // verified address that allows conversions with higher gas price\n    IContractRegistry public registry;          // contract registry contract address\n\n    mapping (address => bool) public etherTokens;       // list of all supported ether tokens\n    mapping (bytes32 => bool) public conversionHashes;  // list of conversion hashes, to prevent re-use of the same hash\n\n    /**\n        @dev constructor\n\n        @param _registry    address of a contract registry contract\n    */\n    constructor(IContractRegistry _registry) public validAddress(_registry) {\n        registry = _registry;\n    }\n\n    // validates a conversion path - verifies that the number of elements is odd and that maximum number of 'hops' is 10\n    modifier validConversionPath(IERC20Token[] _path) {\n        require(_path.length > 2 && _path.length <= (1 + 2 * 10) && _path.length % 2 == 1);\n        _;\n    }\n\n    /*\n        @dev allows the owner to update the contract registry contract address\n\n        @param _registry   address of a contract registry contract\n    */\n    function setRegistry(IContractRegistry _registry)\n        public\n        ownerOnly\n        validAddress(_registry)\n        notThis(_registry)\n    {\n        registry = _registry;\n    }\n\n    /*\n        @dev allows the owner to update the signer address\n\n        @param _signerAddress    new signer address\n    */\n    function setSignerAddress(address _signerAddress)\n        public\n        ownerOnly\n        validAddress(_signerAddress)\n        notThis(_signerAddress)\n    {\n        signerAddress = _signerAddress;\n    }\n\n    /**\n        @dev allows the owner to register/unregister ether tokens\n\n        @param _token       ether token contract address\n        @param _register    true to register, false to unregister\n    */\n    function registerEtherToken(IEtherToken _token, bool _register)\n        public\n        ownerOnly\n        validAddress(_token)\n        notThis(_token)\n    {\n        etherTokens[_token] = _register;\n    }\n\n    /**\n        @dev verifies that the signer address is trusted by recovering \n        the address associated with the public key from elliptic \n        curve signature, returns zero on error.\n        notice that the signature is valid only for one conversion\n        and expires after the give block.\n\n        @return true if the signer is verified\n    */\n    function verifyTrustedSender(IERC20Token[] _path, uint256 _amount, uint256 _block, address _addr, uint8 _v, bytes32 _r, bytes32 _s) private returns(bool) {\n        bytes32 hash = keccak256(_block, tx.gasprice, _addr, msg.sender, _amount, _path);\n\n        // checking that it is the first conversion with the given signature\n        // and that the current block number doesn't exceeded the maximum block\n        // number that's allowed with the current signature\n        require(!conversionHashes[hash] && block.number <= _block);\n\n        // recovering the signing address and comparing it to the trusted signer\n        // address that was set in the contract\n        bytes32 prefixedHash = keccak256(\"\\x19Ethereum Signed Message:\\n32\", hash);\n        bool verified = ecrecover(prefixedHash, _v, _r, _s) == signerAddress;\n\n        // if the signer is the trusted signer - mark the hash so that it can't\n        // be used multiple times\n        if (verified)\n            conversionHashes[hash] = true;\n        return verified;\n    }\n\n    /**\n        @dev converts the token to any other token in the bancor network by following\n        a predefined conversion path and transfers the result tokens to a target account\n        note that the converter should already own the source tokens\n\n        @param _path        conversion path, see conversion path format above\n        @param _amount      amount to convert from (in the initial source token)\n        @param _minReturn   if the conversion results in an amount smaller than the minimum return - it is cancelled, must be nonzero\n        @param _for         account that will receive the conversion result\n\n        @return tokens issued in return\n    */\n    function convertFor(IERC20Token[] _path, uint256 _amount, uint256 _minReturn, address _for) public payable returns (uint256) {\n        return convertForPrioritized2(_path, _amount, _minReturn, _for, 0x0, 0x0, 0x0, 0x0);\n    }\n\n    /**\n        @dev converts the token to any other token in the bancor network\n        by following a predefined conversion path and transfers the result\n        tokens to a target account.\n        this version of the function also allows the verified signer\n        to bypass the universal gas price limit.\n        note that the converter should already own the source tokens\n\n        @param _path        conversion path, see conversion path format above\n        @param _amount      amount to convert from (in the initial source token)\n        @param _minReturn   if the conversion results in an amount smaller than the minimum return - it is cancelled, must be nonzero\n        @param _for         account that will receive the conversion result\n\n        @return tokens issued in return\n    */\n    function convertForPrioritized2(IERC20Token[] _path, uint256 _amount, uint256 _minReturn, address _for, uint256 _block, uint8 _v, bytes32 _r, bytes32 _s)\n        public\n        payable\n        validConversionPath(_path)\n        returns (uint256)\n    {\n        // if ETH is provided, ensure that the amount is identical to _amount and verify that the source token is an ether token\n        IERC20Token fromToken = _path[0];\n        require(msg.value == 0 || (_amount == msg.value && etherTokens[fromToken]));\n\n        // if ETH was sent with the call, the source is an ether token - deposit the ETH in it\n        // otherwise, we assume we already have the tokens\n        if (msg.value > 0)\n            IEtherToken(fromToken).deposit.value(msg.value)();\n\n        return convertForInternal(_path, _amount, _minReturn, _for, _block, _v, _r, _s);\n    }\n\n    /**\n        @dev converts token to any other token in the bancor network\n        by following the predefined conversion paths and transfers the result\n        tokens to a targeted account.\n        this version of the function also allows multiple conversions\n        in a single atomic transaction.\n        note that the converter should already own the source tokens\n\n        @param _paths           merged conversion paths, i.e. [path1, path2, ...]. see conversion path format above\n        @param _pathStartIndex  each item in the array is the start index of the nth path in _paths\n        @param _amounts         amount to convert from (in the initial source token) for each path\n        @param _minReturns      minimum return for each path. if the conversion results in an amount \n                                smaller than the minimum return - it is cancelled, must be nonzero\n        @param _for             account that will receive the conversions result\n\n        @return amount of conversion result for each path\n    */\n    function convertForMultiple(IERC20Token[] _paths, uint256[] _pathStartIndex, uint256[] _amounts, uint256[] _minReturns, address _for)\n        public\n        payable\n        returns (uint256[])\n    {\n        // if ETH is provided, ensure that the total amount was converted into other tokens\n        uint256 convertedValue = 0;\n        uint256 pathEndIndex;\n        \n        // iterate over the conversion paths\n        for (uint256 i = 0; i < _pathStartIndex.length; i += 1) {\n            pathEndIndex = i == (_pathStartIndex.length - 1) ? _paths.length : _pathStartIndex[i + 1];\n\n            // copy a single path from _paths into an array\n            IERC20Token[] memory path = new IERC20Token[](pathEndIndex - _pathStartIndex[i]);\n            for (uint256 j = _pathStartIndex[i]; j < pathEndIndex; j += 1) {\n                path[j - _pathStartIndex[i]] = _paths[j];\n            }\n\n            // if ETH is provided, ensure that the amount is lower than the path amount and\n            // verify that the source token is an ether token. otherwise ensure that \n            // the source is not an ether token\n            IERC20Token fromToken = path[0];\n            require(msg.value == 0 || (_amounts[i] <= msg.value && etherTokens[fromToken]) || !etherTokens[fromToken]);\n\n            // if ETH was sent with the call, the source is an ether token - deposit the ETH path amount in it.\n            // otherwise, we assume we already have the tokens\n            if (msg.value > 0 && etherTokens[fromToken]) {\n                IEtherToken(fromToken).deposit.value(_amounts[i])();\n                convertedValue += _amounts[i];\n            }\n            _amounts[i] = convertForInternal(path, _amounts[i], _minReturns[i], _for, 0x0, 0x0, 0x0, 0x0);\n        }\n\n        // if ETH was provided, ensure that the full amount was converted\n        require(convertedValue == msg.value);\n\n        return _amounts;\n    }\n\n    /**\n        @dev converts token to any other token in the bancor network\n        by following a predefined conversion paths and transfers the result\n        tokens to a target account.\n\n        @param _path        conversion path, see conversion path format above\n        @param _amount      amount to convert from (in the initial source token)\n        @param _minReturn   if the conversion results in an amount smaller than the minimum return - it is cancelled, must be nonzero\n        @param _for         account that will receive the conversion result\n        @param _block       if the current block exceeded the given parameter - it is cancelled\n        @param _v           (signature[128:130]) associated with the signer address and helps to validate if the signature is legit\n        @param _r           (signature[0:64]) associated with the signer address and helps to validate if the signature is legit\n        @param _s           (signature[64:128]) associated with the signer address and helps to validate if the signature is legit\n\n        @return tokens issued in return\n    */\n    function convertForInternal(\n        IERC20Token[] _path, \n        uint256 _amount, \n        uint256 _minReturn, \n        address _for, \n        uint256 _block, \n        uint8 _v, \n        bytes32 _r, \n        bytes32 _s\n    )\n        private\n        validConversionPath(_path)\n        returns (uint256)\n    {\n        if (_v == 0x0 && _r == 0x0 && _s == 0x0) {\n            IBancorGasPriceLimit gasPriceLimit = IBancorGasPriceLimit(registry.addressOf(ContractIds.BANCOR_GAS_PRICE_LIMIT));\n            gasPriceLimit.validateGasPrice(tx.gasprice);\n        }\n        else {\n            require(verifyTrustedSender(_path, _amount, _block, _for, _v, _r, _s));\n        }\n\n        // if ETH is provided, ensure that the amount is identical to _amount and verify that the source token is an ether token\n        IERC20Token fromToken = _path[0];\n\n        IERC20Token toToken;\n        \n        (toToken, _amount) = convertByPath(_path, _amount, _minReturn, fromToken, _for);\n\n        // finished the conversion, transfer the funds to the target account\n        // if the target token is an ether token, withdraw the tokens and send them as ETH\n        // otherwise, transfer the tokens as is\n        if (etherTokens[toToken])\n            IEtherToken(toToken).withdrawTo(_for, _amount);\n        else\n            assert(toToken.transfer(_for, _amount));\n\n        return _amount;\n    }\n\n    /**\n        @dev executes the actual conversion by following the conversion path\n\n        @param _path        conversion path, see conversion path format above\n        @param _amount      amount to convert from (in the initial source token)\n        @param _minReturn   if the conversion results in an amount smaller than the minimum return - it is cancelled, must be nonzero\n        @param _fromToken   ERC20 token to convert from (the first element in the path)\n        @param _for         account that will receive the conversion result\n\n        @return ERC20 token to convert to (the last element in the path) & tokens issued in return\n    */\n    function convertByPath(\n        IERC20Token[] _path,\n        uint256 _amount,\n        uint256 _minReturn,\n        IERC20Token _fromToken,\n        address _for\n    ) private returns (IERC20Token, uint256) {\n        ISmartToken smartToken;\n        IERC20Token toToken;\n        IBancorConverter converter;\n\n        // get the contract features address from the registry\n        IContractFeatures features = IContractFeatures(registry.addressOf(ContractIds.CONTRACT_FEATURES));\n\n        // iterate over the conversion path\n        uint256 pathLength = _path.length;\n        for (uint256 i = 1; i < pathLength; i += 2) {\n            smartToken = ISmartToken(_path[i]);\n            toToken = _path[i + 1];\n            converter = IBancorConverter(smartToken.owner());\n            checkWhitelist(converter, _for, features);\n\n            // if the smart token isn't the source (from token), the converter doesn't have control over it and thus we need to approve the request\n            if (smartToken != _fromToken)\n                ensureAllowance(_fromToken, converter, _amount);\n\n            // make the conversion - if it's the last one, also provide the minimum return value\n            _amount = converter.change(_fromToken, toToken, _amount, i == pathLength - 2 ? _minReturn : 1);\n            _fromToken = toToken;\n        }\n        return (toToken, _amount);\n    }\n\n    /**\n        @dev returns the expected return amount for converting a specific amount by following\n        a given conversion path.\n        notice that there is no support for circular paths.\n\n        @param _path        conversion path, see conversion path format above\n        @param _amount      amount to convert from (in the initial source token)\n\n        @return expected conversion return amount and conversion fee\n    */\n    function getReturnByPath(IERC20Token[] _path, uint256 _amount) public view returns (uint256, uint256) {\n        IERC20Token fromToken;\n        ISmartToken smartToken; \n        IERC20Token toToken;\n        IBancorConverter converter;\n        uint256 amount;\n        uint256 fee;\n        uint256 supply;\n        uint256 balance;\n        uint32 weight;\n        ISmartToken prevSmartToken;\n        IBancorFormula formula = IBancorFormula(registry.getAddress(ContractIds.BANCOR_FORMULA));\n\n        amount = _amount;\n        fromToken = _path[0];\n\n        // iterate over the conversion path\n        for (uint256 i = 1; i < _path.length; i += 2) {\n            smartToken = ISmartToken(_path[i]);\n            toToken = _path[i + 1];\n            converter = IBancorConverter(smartToken.owner());\n\n            if (toToken == smartToken) { // buy the smart token\n                // check if the current smart token supply was changed in the previous iteration\n                supply = smartToken == prevSmartToken ? supply : smartToken.totalSupply();\n\n                // validate input\n                require(getConnectorPurchaseEnabled(converter, fromToken));\n\n                // calculate the amount & the conversion fee\n                balance = converter.getConnectorBalance(fromToken);\n                weight = getConnectorWeight(converter, fromToken);\n                amount = formula.calculatePurchaseReturn(supply, balance, weight, amount);\n                fee = safeMul(amount, converter.conversionFee()) / MAX_CONVERSION_FEE;\n                amount -= fee;\n\n                // update the smart token supply for the next iteration\n                supply = smartToken.totalSupply() + amount;\n            }\n            else if (fromToken == smartToken) { // sell the smart token\n                // check if the current smart token supply was changed in the previous iteration\n                supply = smartToken == prevSmartToken ? supply : smartToken.totalSupply();\n\n                // calculate the amount & the conversion fee\n                balance = converter.getConnectorBalance(toToken);\n                weight = getConnectorWeight(converter, toToken);\n                amount = formula.calculateSaleReturn(supply, balance, weight, amount);\n                fee = safeMul(amount, converter.conversionFee()) / MAX_CONVERSION_FEE;\n                amount -= fee;\n\n                // update the smart token supply for the next iteration\n                supply = smartToken.totalSupply() - amount;\n            }\n            else { // cross connector conversion\n                (amount, fee) = converter.getReturn(fromToken, toToken, amount);\n            }\n\n            prevSmartToken = smartToken;\n            fromToken = toToken;\n        }\n\n        return (amount, fee);\n    }\n\n    /**\n        @dev checks whether the given converter supports a whitelist and if so, ensures that\n        the account that should receive the conversion result is actually whitelisted\n\n        @param _converter   converter to check for whitelist\n        @param _for         account that will receive the conversion result\n        @param _features    contract features contract address\n    */\n    function checkWhitelist(IBancorConverter _converter, address _for, IContractFeatures _features) private view {\n        IWhitelist whitelist;\n\n        // check if the converter supports the conversion whitelist feature\n        if (!_features.isSupported(_converter, FeatureIds.CONVERTER_CONVERSION_WHITELIST))\n            return;\n\n        // get the whitelist contract from the converter\n        whitelist = _converter.conversionWhitelist();\n        if (whitelist == address(0))\n            return;\n\n        // check if the account that should receive the conversion result is actually whitelisted\n        require(whitelist.isWhitelisted(_for));\n    }\n\n    /**\n        @dev claims the caller's tokens, converts them to any other token in the bancor network\n        by following a predefined conversion path and transfers the result tokens to a target account\n        note that allowance must be set beforehand\n\n        @param _path        conversion path, see conversion path format above\n        @param _amount      amount to convert from (in the initial source token)\n        @param _minReturn   if the conversion results in an amount smaller than the minimum return - it is cancelled, must be nonzero\n        @param _for         account that will receive the conversion result\n\n        @return tokens issued in return\n    */\n    function claimAndConvertFor(IERC20Token[] _path, uint256 _amount, uint256 _minReturn, address _for) public returns (uint256) {\n        // we need to transfer the tokens from the caller to the converter before we follow\n        // the conversion path, to allow it to execute the conversion on behalf of the caller\n        // note: we assume we already have allowance\n        IERC20Token fromToken = _path[0];\n        assert(fromToken.transferFrom(msg.sender, this, _amount));\n        return convertFor(_path, _amount, _minReturn, _for);\n    }\n\n    /**\n        @dev converts the token to any other token in the bancor network by following\n        a predefined conversion path and transfers the result tokens back to the sender\n        note that the converter should already own the source tokens\n\n        @param _path        conversion path, see conversion path format above\n        @param _amount      amount to convert from (in the initial source token)\n        @param _minReturn   if the conversion results in an amount smaller than the minimum return - it is cancelled, must be nonzero\n\n        @return tokens issued in return\n    */\n    function convert(IERC20Token[] _path, uint256 _amount, uint256 _minReturn) public payable returns (uint256) {\n        return convertFor(_path, _amount, _minReturn, msg.sender);\n    }\n\n    /**\n        @dev claims the caller's tokens, converts them to any other token in the bancor network\n        by following a predefined conversion path and transfers the result tokens back to the sender\n        note that allowance must be set beforehand\n\n        @param _path        conversion path, see conversion path format above\n        @param _amount      amount to convert from (in the initial source token)\n        @param _minReturn   if the conversion results in an amount smaller than the minimum return - it is cancelled, must be nonzero\n\n        @return tokens issued in return\n    */\n    function claimAndConvert(IERC20Token[] _path, uint256 _amount, uint256 _minReturn) public returns (uint256) {\n        return claimAndConvertFor(_path, _amount, _minReturn, msg.sender);\n    }\n\n    /**\n        @dev utility, checks whether allowance for the given spender exists and approves one if it doesn't\n\n        @param _token   token to check the allowance in\n        @param _spender approved address\n        @param _value   allowance amount\n    */\n    function ensureAllowance(IERC20Token _token, address _spender, uint256 _value) private {\n        // check if allowance for the given amount already exists\n        if (_token.allowance(this, _spender) >= _value)\n            return;\n\n        // if the allowance is nonzero, must reset it to 0 first\n        if (_token.allowance(this, _spender) != 0)\n            assert(_token.approve(_spender, 0));\n\n        // approve the new allowance\n        assert(_token.approve(_spender, _value));\n    }\n\n    /**\n        @dev returns the connector weight\n\n        @param _converter       converter contract address\n        @param _connector       connector's address to read from\n\n        @return connector's weight\n    */\n    function getConnectorWeight(IBancorConverter _converter, IERC20Token _connector) \n        private\n        view\n        returns(uint32)\n    {\n        uint256 virtualBalance;\n        uint32 weight;\n        bool isVirtualBalanceEnabled;\n        bool isPurchaseEnabled;\n        bool isSet;\n        (virtualBalance, weight, isVirtualBalanceEnabled, isPurchaseEnabled, isSet) = _converter.connectors(_connector);\n        return weight;\n    }\n\n    /**\n        @dev returns true if connector purchase enabled\n\n        @param _converter       converter contract address\n        @param _connector       connector's address to read from\n\n        @return true if connector purchase enabled, otherwise - false\n    */\n    function getConnectorPurchaseEnabled(IBancorConverter _converter, IERC20Token _connector) \n        private\n        view\n        returns(bool)\n    {\n        uint256 virtualBalance;\n        uint32 weight;\n        bool isVirtualBalanceEnabled;\n        bool isPurchaseEnabled;\n        bool isSet;\n        (virtualBalance, weight, isVirtualBalanceEnabled, isPurchaseEnabled, isSet) = _converter.connectors(_connector);\n        return isPurchaseEnabled;\n    }\n\n    // deprecated, backward compatibility\n    function convertForPrioritized(\n        IERC20Token[] _path,\n        uint256 _amount,\n        uint256 _minReturn,\n        address _for,\n        uint256 _block,\n        uint256 _nonce,\n        uint8 _v,\n        bytes32 _r,\n        bytes32 _s)\n        public payable returns (uint256)\n    {\n        _nonce;\n        return convertForPrioritized2(_path, _amount, _minReturn, _for, _block, _v, _r, _s);\n    }\n}\n",
  "sourcePath": "/home/volt/tmp/BatchedBondingCurves/contracts/BancorContracts/BancorNetwork.sol",
  "compiler": {
    "name": "solc",
    "version": "0.4.24+commit.e67f0147.Emscripten.clang"
  },
  "schemaVersion": "3.0.0-beta.0",
  "updatedAt": "2019-01-02T14:26:53.779Z"
}