{
  "contractName": "BatchBondedToken",
  "abi": [
    {
      "constant": true,
      "inputs": [],
      "name": "name",
      "outputs": [
        {
          "name": "",
          "type": "string"
        }
      ],
      "payable": false,
      "stateMutability": "view",
      "type": "function"
    },
    {
      "constant": false,
      "inputs": [
        {
          "name": "_spender",
          "type": "address"
        },
        {
          "name": "_value",
          "type": "uint256"
        }
      ],
      "name": "approve",
      "outputs": [
        {
          "name": "",
          "type": "bool"
        }
      ],
      "payable": false,
      "stateMutability": "nonpayable",
      "type": "function"
    },
    {
      "constant": true,
      "inputs": [],
      "name": "reserveRatio",
      "outputs": [
        {
          "name": "",
          "type": "uint32"
        }
      ],
      "payable": false,
      "stateMutability": "view",
      "type": "function"
    },
    {
      "constant": true,
      "inputs": [],
      "name": "totalSupply",
      "outputs": [
        {
          "name": "",
          "type": "uint256"
        }
      ],
      "payable": false,
      "stateMutability": "view",
      "type": "function"
    },
    {
      "constant": false,
      "inputs": [
        {
          "name": "_from",
          "type": "address"
        },
        {
          "name": "_to",
          "type": "address"
        },
        {
          "name": "_value",
          "type": "uint256"
        }
      ],
      "name": "transferFrom",
      "outputs": [
        {
          "name": "",
          "type": "bool"
        }
      ],
      "payable": false,
      "stateMutability": "nonpayable",
      "type": "function"
    },
    {
      "constant": true,
      "inputs": [],
      "name": "virtualSupply",
      "outputs": [
        {
          "name": "",
          "type": "uint256"
        }
      ],
      "payable": false,
      "stateMutability": "view",
      "type": "function"
    },
    {
      "constant": true,
      "inputs": [
        {
          "name": "_supply",
          "type": "uint256"
        },
        {
          "name": "_connectorBalance",
          "type": "uint256"
        },
        {
          "name": "_connectorWeight",
          "type": "uint32"
        },
        {
          "name": "_depositAmount",
          "type": "uint256"
        }
      ],
      "name": "calculatePurchaseReturn",
      "outputs": [
        {
          "name": "",
          "type": "uint256"
        }
      ],
      "payable": false,
      "stateMutability": "view",
      "type": "function"
    },
    {
      "constant": true,
      "inputs": [],
      "name": "decimals",
      "outputs": [
        {
          "name": "",
          "type": "uint8"
        }
      ],
      "payable": false,
      "stateMutability": "view",
      "type": "function"
    },
    {
      "constant": true,
      "inputs": [
        {
          "name": "_supply",
          "type": "uint256"
        },
        {
          "name": "_connectorBalance",
          "type": "uint256"
        },
        {
          "name": "_connectorWeight",
          "type": "uint32"
        },
        {
          "name": "_sellAmount",
          "type": "uint256"
        }
      ],
      "name": "calculateSaleReturn",
      "outputs": [
        {
          "name": "",
          "type": "uint256"
        }
      ],
      "payable": false,
      "stateMutability": "view",
      "type": "function"
    },
    {
      "constant": true,
      "inputs": [],
      "name": "version",
      "outputs": [
        {
          "name": "",
          "type": "string"
        }
      ],
      "payable": false,
      "stateMutability": "view",
      "type": "function"
    },
    {
      "constant": true,
      "inputs": [
        {
          "name": "_fromConnectorBalance",
          "type": "uint256"
        },
        {
          "name": "_fromConnectorWeight",
          "type": "uint32"
        },
        {
          "name": "_toConnectorBalance",
          "type": "uint256"
        },
        {
          "name": "_toConnectorWeight",
          "type": "uint32"
        },
        {
          "name": "_amount",
          "type": "uint256"
        }
      ],
      "name": "calculateCrossConnectorReturn",
      "outputs": [
        {
          "name": "",
          "type": "uint256"
        }
      ],
      "payable": false,
      "stateMutability": "view",
      "type": "function"
    },
    {
      "constant": false,
      "inputs": [
        {
          "name": "_spender",
          "type": "address"
        },
        {
          "name": "_subtractedValue",
          "type": "uint256"
        }
      ],
      "name": "decreaseApproval",
      "outputs": [
        {
          "name": "",
          "type": "bool"
        }
      ],
      "payable": false,
      "stateMutability": "nonpayable",
      "type": "function"
    },
    {
      "constant": true,
      "inputs": [],
      "name": "waitingClear",
      "outputs": [
        {
          "name": "",
          "type": "uint256"
        }
      ],
      "payable": false,
      "stateMutability": "view",
      "type": "function"
    },
    {
      "constant": true,
      "inputs": [],
      "name": "ppm",
      "outputs": [
        {
          "name": "",
          "type": "uint32"
        }
      ],
      "payable": false,
      "stateMutability": "view",
      "type": "function"
    },
    {
      "constant": true,
      "inputs": [
        {
          "name": "_owner",
          "type": "address"
        }
      ],
      "name": "balanceOf",
      "outputs": [
        {
          "name": "",
          "type": "uint256"
        }
      ],
      "payable": false,
      "stateMutability": "view",
      "type": "function"
    },
    {
      "constant": true,
      "inputs": [],
      "name": "symbol",
      "outputs": [
        {
          "name": "",
          "type": "string"
        }
      ],
      "payable": false,
      "stateMutability": "view",
      "type": "function"
    },
    {
      "constant": true,
      "inputs": [],
      "name": "poolBalance",
      "outputs": [
        {
          "name": "",
          "type": "uint256"
        }
      ],
      "payable": false,
      "stateMutability": "view",
      "type": "function"
    },
    {
      "constant": false,
      "inputs": [
        {
          "name": "_to",
          "type": "address"
        },
        {
          "name": "_value",
          "type": "uint256"
        }
      ],
      "name": "transfer",
      "outputs": [
        {
          "name": "",
          "type": "bool"
        }
      ],
      "payable": false,
      "stateMutability": "nonpayable",
      "type": "function"
    },
    {
      "constant": true,
      "inputs": [
        {
          "name": "",
          "type": "uint256"
        }
      ],
      "name": "batches",
      "outputs": [
        {
          "name": "init",
          "type": "bool"
        },
        {
          "name": "buysCleared",
          "type": "bool"
        },
        {
          "name": "sellsCleared",
          "type": "bool"
        },
        {
          "name": "cleared",
          "type": "bool"
        },
        {
          "name": "poolBalance",
          "type": "uint256"
        },
        {
          "name": "totalSupply",
          "type": "uint256"
        },
        {
          "name": "totalBuySpend",
          "type": "uint256"
        },
        {
          "name": "totalBuyReturn",
          "type": "uint256"
        },
        {
          "name": "totalSellSpend",
          "type": "uint256"
        },
        {
          "name": "totalSellReturn",
          "type": "uint256"
        }
      ],
      "payable": false,
      "stateMutability": "view",
      "type": "function"
    },
    {
      "constant": true,
      "inputs": [
        {
          "name": "",
          "type": "address"
        },
        {
          "name": "",
          "type": "uint256"
        }
      ],
      "name": "addressToBlocks",
      "outputs": [
        {
          "name": "",
          "type": "uint256"
        }
      ],
      "payable": false,
      "stateMutability": "view",
      "type": "function"
    },
    {
      "constant": true,
      "inputs": [],
      "name": "batchBlocks",
      "outputs": [
        {
          "name": "",
          "type": "uint256"
        }
      ],
      "payable": false,
      "stateMutability": "view",
      "type": "function"
    },
    {
      "constant": false,
      "inputs": [
        {
          "name": "_spender",
          "type": "address"
        },
        {
          "name": "_addedValue",
          "type": "uint256"
        }
      ],
      "name": "increaseApproval",
      "outputs": [
        {
          "name": "",
          "type": "bool"
        }
      ],
      "payable": false,
      "stateMutability": "nonpayable",
      "type": "function"
    },
    {
      "constant": true,
      "inputs": [],
      "name": "virtualBalance",
      "outputs": [
        {
          "name": "",
          "type": "uint256"
        }
      ],
      "payable": false,
      "stateMutability": "view",
      "type": "function"
    },
    {
      "constant": true,
      "inputs": [
        {
          "name": "_owner",
          "type": "address"
        },
        {
          "name": "_spender",
          "type": "address"
        }
      ],
      "name": "allowance",
      "outputs": [
        {
          "name": "",
          "type": "uint256"
        }
      ],
      "payable": false,
      "stateMutability": "view",
      "type": "function"
    },
    {
      "constant": true,
      "inputs": [],
      "name": "category",
      "outputs": [
        {
          "name": "",
          "type": "uint8"
        }
      ],
      "payable": false,
      "stateMutability": "view",
      "type": "function"
    },
    {
      "inputs": [
        {
          "name": "_name",
          "type": "string"
        },
        {
          "name": "_symbol",
          "type": "string"
        },
        {
          "name": "_decimals",
          "type": "uint8"
        },
        {
          "name": "_category",
          "type": "uint8"
        },
        {
          "name": "_batchBlocks",
          "type": "uint256"
        },
        {
          "name": "_reserveRatio",
          "type": "uint32"
        },
        {
          "name": "_virtualSupply",
          "type": "uint256"
        },
        {
          "name": "_virtualBalance",
          "type": "uint256"
        }
      ],
      "payable": false,
      "stateMutability": "nonpayable",
      "type": "constructor"
    },
    {
      "payable": true,
      "stateMutability": "payable",
      "type": "fallback"
    },
    {
      "anonymous": false,
      "inputs": [
        {
          "indexed": true,
          "name": "to",
          "type": "address"
        },
        {
          "indexed": false,
          "name": "amount",
          "type": "uint256"
        }
      ],
      "name": "Mint",
      "type": "event"
    },
    {
      "anonymous": false,
      "inputs": [
        {
          "indexed": true,
          "name": "burner",
          "type": "address"
        },
        {
          "indexed": false,
          "name": "amount",
          "type": "uint256"
        }
      ],
      "name": "Burn",
      "type": "event"
    },
    {
      "anonymous": false,
      "inputs": [
        {
          "indexed": true,
          "name": "to",
          "type": "address"
        },
        {
          "indexed": false,
          "name": "poolBalance",
          "type": "uint256"
        },
        {
          "indexed": false,
          "name": "tokenSupply",
          "type": "uint256"
        },
        {
          "indexed": false,
          "name": "amountTokens",
          "type": "uint256"
        },
        {
          "indexed": false,
          "name": "totalCostEth",
          "type": "uint256"
        }
      ],
      "name": "Buy",
      "type": "event"
    },
    {
      "anonymous": false,
      "inputs": [
        {
          "indexed": true,
          "name": "from",
          "type": "address"
        },
        {
          "indexed": false,
          "name": "poolBalance",
          "type": "uint256"
        },
        {
          "indexed": false,
          "name": "tokenSupply",
          "type": "uint256"
        },
        {
          "indexed": false,
          "name": "amountTokens",
          "type": "uint256"
        },
        {
          "indexed": false,
          "name": "returnedEth",
          "type": "uint256"
        }
      ],
      "name": "Sell",
      "type": "event"
    },
    {
      "anonymous": false,
      "inputs": [
        {
          "indexed": true,
          "name": "owner",
          "type": "address"
        },
        {
          "indexed": true,
          "name": "spender",
          "type": "address"
        },
        {
          "indexed": false,
          "name": "value",
          "type": "uint256"
        }
      ],
      "name": "Approval",
      "type": "event"
    },
    {
      "anonymous": false,
      "inputs": [
        {
          "indexed": true,
          "name": "from",
          "type": "address"
        },
        {
          "indexed": true,
          "name": "to",
          "type": "address"
        },
        {
          "indexed": false,
          "name": "value",
          "type": "uint256"
        }
      ],
      "name": "Transfer",
      "type": "event"
    },
    {
      "constant": true,
      "inputs": [],
      "name": "currentBatch",
      "outputs": [
        {
          "name": "cb",
          "type": "uint256"
        }
      ],
      "payable": false,
      "stateMutability": "view",
      "type": "function"
    },
    {
      "constant": true,
      "inputs": [
        {
          "name": "user",
          "type": "address"
        }
      ],
      "name": "getUserBlocks",
      "outputs": [
        {
          "name": "",
          "type": "uint256[]"
        }
      ],
      "payable": false,
      "stateMutability": "view",
      "type": "function"
    },
    {
      "constant": true,
      "inputs": [
        {
          "name": "user",
          "type": "address"
        }
      ],
      "name": "getUserBlocksLength",
      "outputs": [
        {
          "name": "",
          "type": "uint256"
        }
      ],
      "payable": false,
      "stateMutability": "view",
      "type": "function"
    },
    {
      "constant": true,
      "inputs": [
        {
          "name": "user",
          "type": "address"
        },
        {
          "name": "index",
          "type": "uint256"
        }
      ],
      "name": "getUserBlocksByIndex",
      "outputs": [
        {
          "name": "",
          "type": "uint256"
        }
      ],
      "payable": false,
      "stateMutability": "view",
      "type": "function"
    },
    {
      "constant": true,
      "inputs": [
        {
          "name": "user",
          "type": "address"
        },
        {
          "name": "index",
          "type": "uint256"
        }
      ],
      "name": "isUserBuyerByBlock",
      "outputs": [
        {
          "name": "",
          "type": "bool"
        }
      ],
      "payable": false,
      "stateMutability": "view",
      "type": "function"
    },
    {
      "constant": true,
      "inputs": [
        {
          "name": "user",
          "type": "address"
        },
        {
          "name": "index",
          "type": "uint256"
        }
      ],
      "name": "isUserSellerByBlock",
      "outputs": [
        {
          "name": "",
          "type": "bool"
        }
      ],
      "payable": false,
      "stateMutability": "view",
      "type": "function"
    },
    {
      "constant": true,
      "inputs": [],
      "name": "getPolynomial",
      "outputs": [
        {
          "name": "",
          "type": "uint256"
        }
      ],
      "payable": false,
      "stateMutability": "view",
      "type": "function"
    },
    {
      "constant": true,
      "inputs": [
        {
          "name": "_totalSupply",
          "type": "uint256"
        }
      ],
      "name": "getSlopePPM",
      "outputs": [
        {
          "name": "",
          "type": "uint256"
        }
      ],
      "payable": false,
      "stateMutability": "view",
      "type": "function"
    },
    {
      "constant": true,
      "inputs": [
        {
          "name": "_totalSupply",
          "type": "uint256"
        },
        {
          "name": "_poolBalance",
          "type": "uint256"
        }
      ],
      "name": "getPricePPM",
      "outputs": [
        {
          "name": "",
          "type": "uint256"
        }
      ],
      "payable": false,
      "stateMutability": "view",
      "type": "function"
    },
    {
      "constant": true,
      "inputs": [
        {
          "name": "_totalSupply",
          "type": "uint256"
        },
        {
          "name": "_poolBalance",
          "type": "uint256"
        },
        {
          "name": "buyValue",
          "type": "uint256"
        }
      ],
      "name": "getBuy",
      "outputs": [
        {
          "name": "",
          "type": "uint256"
        }
      ],
      "payable": false,
      "stateMutability": "view",
      "type": "function"
    },
    {
      "constant": true,
      "inputs": [
        {
          "name": "_totalSupply",
          "type": "uint256"
        },
        {
          "name": "_poolBalance",
          "type": "uint256"
        },
        {
          "name": "sellAmount",
          "type": "uint256"
        }
      ],
      "name": "getSell",
      "outputs": [
        {
          "name": "",
          "type": "uint256"
        }
      ],
      "payable": false,
      "stateMutability": "view",
      "type": "function"
    },
    {
      "constant": false,
      "inputs": [
        {
          "name": "sender",
          "type": "address"
        }
      ],
      "name": "addBuy",
      "outputs": [
        {
          "name": "",
          "type": "bool"
        }
      ],
      "payable": true,
      "stateMutability": "payable",
      "type": "function"
    },
    {
      "constant": false,
      "inputs": [
        {
          "name": "amount",
          "type": "uint256"
        }
      ],
      "name": "addSell",
      "outputs": [
        {
          "name": "",
          "type": "bool"
        }
      ],
      "payable": false,
      "stateMutability": "nonpayable",
      "type": "function"
    },
    {
      "constant": false,
      "inputs": [],
      "name": "clearBatch",
      "outputs": [],
      "payable": false,
      "stateMutability": "nonpayable",
      "type": "function"
    },
    {
      "constant": false,
      "inputs": [
        {
          "name": "batch",
          "type": "uint256"
        },
        {
          "name": "sender",
          "type": "address"
        }
      ],
      "name": "claimSell",
      "outputs": [],
      "payable": false,
      "stateMutability": "nonpayable",
      "type": "function"
    },
    {
      "constant": false,
      "inputs": [
        {
          "name": "batch",
          "type": "uint256"
        },
        {
          "name": "sender",
          "type": "address"
        }
      ],
      "name": "claimBuy",
      "outputs": [],
      "payable": false,
      "stateMutability": "nonpayable",
      "type": "function"
    }
  ],
  "bytecode": "0x60806040526040805190810160405280600381526020017f302e330000000000000000000000000000000000000000000000000000000000815250600390805190602001906200005192919062001096565b50620f4240608660056101000a81548163ffffffff021916908363ffffffff1602179055503480156200008357600080fd5b5060405162005e7638038062005e768339810180604052810190808051820192919060200180518201929190602001805190602001909291908051906020019092919080519060200190929190805190602001909291908051906020019092919080519060200190929190505050701c35fedd14ffffffffffffffffffffffff600460206080811015156200011457fe5b0181905550701b0ce43b323fffffffffffffffffffffff600460216080811015156200013c57fe5b01819055507019f0028ec1ffffffffffffffffffffffff600460226080811015156200016457fe5b01819055507018ded91f0e7fffffffffffffffffffffff600460236080811015156200018c57fe5b01819055507017d8ec7f0417ffffffffffffffffffffff60046024608081101515620001b457fe5b01819055507016ddc6556cdbffffffffffffffffffffff60046025608081101515620001dc57fe5b01819055507015ecf52776a1ffffffffffffffffffffff600460266080811015156200020457fe5b01819055507015060c256cb2ffffffffffffffffffffff600460276080811015156200022c57fe5b0181905550701428a2f98d72ffffffffffffffffffffff600460286080811015156200025457fe5b01819055507013545598e5c23fffffffffffffffffffff600460296080811015156200027c57fe5b0181905550701288c4161ce1dfffffffffffffffffffff6004602a608081101515620002a457fe5b01819055507011c592761c666fffffffffffffffffffff6004602b608081101515620002cc57fe5b018190555070110a688680a757ffffffffffffffffffff6004602c608081101515620002f457fe5b0181905550701056f1b5bedf77ffffffffffffffffffff6004602d6080811015156200031c57fe5b0181905550700faadceceeff8bffffffffffffffffffff6004602e6080811015156200034457fe5b0181905550700f05dc6b27edadffffffffffffffffffff6004602f6080811015156200036c57fe5b0181905550700e67a5a25da4107fffffffffffffffffff600460306080811015156200039457fe5b0181905550700dcff115b14eedffffffffffffffffffff60046031608081101515620003bc57fe5b0181905550700d3e7a392431239fffffffffffffffffff60046032608081101515620003e457fe5b0181905550700cb2ff529eb71e4fffffffffffffffffff600460336080811015156200040c57fe5b0181905550700c2d415c3db974afffffffffffffffffff600460346080811015156200043457fe5b0181905550700bad03e7d883f69bffffffffffffffffff600460356080811015156200045c57fe5b0181905550700b320d03b2c343d5ffffffffffffffffff600460366080811015156200048457fe5b0181905550700abc25204e02828dffffffffffffffffff60046037608081101515620004ac57fe5b0181905550700a4b16f74ee4bb207fffffffffffffffff60046038608081101515620004d457fe5b01819055507009deaf736ac1f569ffffffffffffffffff60046039608081101515620004fc57fe5b0181905550700976bd9952c7aa957fffffffffffffffff6004603a6080811015156200052457fe5b01819055507009131271922eaa606fffffffffffffffff6004603b6080811015156200054c57fe5b01819055507008b380f3558668c46fffffffffffffffff6004603c6080811015156200057457fe5b0181905550700857ddf0117efa215bffffffffffffffff6004603d6080811015156200059c57fe5b01819055507007ffffffffffffffffffffffffffffffff6004603e608081101515620005c457fe5b01819055507007abbf6f6abb9d087fffffffffffffffff6004603f608081101515620005ec57fe5b018190555070075af62cbac95f7dfa7fffffffffffffff600460406080811015156200061457fe5b018190555070070d7fb7452e187ac13fffffffffffffff600460416080811015156200063c57fe5b01819055507006c3390ecc8af379295fffffffffffffff600460426080811015156200066457fe5b018190555070067c00a3b07ffc01fd6fffffffffffffff600460436080811015156200068c57fe5b0181905550700637b647c39cbb9d3d27ffffffffffffff60046044608081101515620006b457fe5b01819055507005f63b1fc104dbd39587ffffffffffffff60046045608081101515620006dc57fe5b01819055507005b771955b36e12f7235ffffffffffffff600460466080811015156200070457fe5b018190555070057b3d49dda84556d6f6ffffffffffffff600460476080811015156200072c57fe5b018190555070054183095b2c8ececf30ffffffffffffff600460486080811015156200075457fe5b018190555070050a28be635ca2b888f77fffffffffffff600460496080811015156200077c57fe5b01819055507004d5156639708c9db33c3fffffffffffff6004604a608081101515620007a457fe5b01819055507004a23105873875bd52dfdfffffffffffff6004604b608081101515620007cc57fe5b0181905550700471649d87199aa990756fffffffffffff6004604c608081101515620007f457fe5b01819055507004429a21a029d4c1457cfbffffffffffff6004604d6080811015156200081c57fe5b0181905550700415bc6d6fb7dd71af2cb3ffffffffffff6004604e6080811015156200084457fe5b01819055507003eab73b3bbfe282243ce1ffffffffffff6004604f6080811015156200086c57fe5b01819055507003c1771ac9fb6b4c18e229ffffffffffff600460506080811015156200089457fe5b0181905550700399e96897690418f785257fffffffffff60046051608081101515620008bc57fe5b0181905550700373fc456c53bb779bf0ea9fffffffffff60046052608081101515620008e457fe5b018190555070034f9e8e490c48e67e6ab8bfffffffffff600460536080811015156200090c57fe5b018190555070032cbfd4a7adc790560b3337ffffffffff600460546080811015156200093457fe5b018190555070030b50570f6e5d2acca94613ffffffffff600460556080811015156200095c57fe5b01819055507002eb40f9f620fda6b56c2861ffffffffff600460566080811015156200098457fe5b01819055507002cc8340ecb0d0f520a6af58ffffffffff60046057608081101515620009ac57fe5b01819055507002af09481380a0a35cf1ba02ffffffffff60046058608081101515620009d457fe5b0181905550700292c5bdd3b92ec810287b1b3fffffffff60046059608081101515620009fc57fe5b0181905550700277abdcdab07d5a77ac6d6b9fffffffff6004605a60808110151562000a2457fe5b018190555070025daf6654b1eaa55fd64df5efffffffff6004605b60808110151562000a4c57fe5b0181905550700244c49c648baa98192dce88b7ffffffff6004605c60808110151562000a7457fe5b018190555070022ce03cd5619a311b2471268bffffffff6004605d60808110151562000a9c57fe5b0181905550700215f77c045fbe885654a44a0fffffffff6004605e60808110151562000ac457fe5b01819055507001ffffffffffffffffffffffffffffffff6004605f60808110151562000aec57fe5b01819055507001eaefdbdaaee7421fc4d3ede5ffffffff6004606060808110151562000b1457fe5b01819055507001d6bd8b2eb257df7e8ca57b09bfffffff6004606160808110151562000b3c57fe5b01819055507001c35fedd14b861eb0443f7f133fffffff6004606260808110151562000b6457fe5b01819055507001b0ce43b322bcde4a56e8ada5afffffff6004606360808110151562000b8c57fe5b018190555070019f0028ec1fff007f5a195a39dfffffff6004606460808110151562000bb457fe5b018190555070018ded91f0e72ee74f49b15ba527ffffff6004606560808110151562000bdc57fe5b018190555070017d8ec7f04136f4e5615fd41a63ffffff6004606660808110151562000c0457fe5b018190555070016ddc6556cdb84bdc8d12d22e6fffffff6004606760808110151562000c2c57fe5b018190555070015ecf52776a1155b5bd8395814f7fffff6004606860808110151562000c5457fe5b018190555070015060c256cb23b3b3cc3754cf40ffffff6004606960808110151562000c7c57fe5b01819055507001428a2f98d728ae223ddab715be3fffff6004606a60808110151562000ca457fe5b018190555070013545598e5c23276ccf0ede68034fffff6004606b60808110151562000ccc57fe5b01819055507001288c4161ce1d6f54b7f61081194fffff6004606c60808110151562000cf457fe5b018190555070011c592761c666aa641d5a01a40f17ffff6004606d60808110151562000d1c57fe5b0181905550700110a688680a7530515f3e6e6cfdcdffff6004606e60808110151562000d4457fe5b01819055507001056f1b5bedf75c6bcb2ce8aed428ffff6004606f60808110151562000d6c57fe5b01819055506ffaadceceeff8a0890f3875f008277fff6004607060808110151562000d9357fe5b01819055506ff05dc6b27edad306388a600f6ba0bfff6004607160808110151562000dba57fe5b01819055506fe67a5a25da41063de1495d5b18cdbfff6004607260808110151562000de157fe5b01819055506fdcff115b14eedde6fc3aa5353f2e4fff6004607360808110151562000e0857fe5b01819055506fd3e7a3924312399f9aae2e0f868f8fff6004607460808110151562000e2f57fe5b01819055506fcb2ff529eb71e41582cccd5a1ee26fff6004607560808110151562000e5657fe5b01819055506fc2d415c3db974ab32a51840c0b67edff6004607660808110151562000e7d57fe5b01819055506fbad03e7d883f69ad5b0a186184e06bff6004607760808110151562000ea457fe5b01819055506fb320d03b2c343d4829abd6075f0cc5ff6004607860808110151562000ecb57fe5b01819055506fabc25204e02828d73c6e80bcdb1a95bf6004607960808110151562000ef257fe5b01819055506fa4b16f74ee4bb2040a1ec6c15fbbf2df6004607a60808110151562000f1957fe5b01819055506f9deaf736ac1f569deb1b5ae3f36c130f6004607b60808110151562000f4057fe5b01819055506f976bd9952c7aa957f5937d790ef650376004607c60808110151562000f6757fe5b01819055506f9131271922eaa6064b73a22d0bd4f2bf6004607d60808110151562000f8e57fe5b01819055506f8b380f3558668c46c91c49a2f8e967b96004607e60808110151562000fb557fe5b01819055506f857ddf0117efa215952912839f6473e66004607f60808110151562000fdc57fe5b0181905550876084908051906020019062000ff992919062001096565b5086608590805190602001906200101292919062001096565b5085608660006101000a81548160ff021916908360ff16021790555084608a60006101000a81548160ff021916908360028111156200104d57fe5b021790555083608c8190555082608660016101000a81548163ffffffff021916908363ffffffff1602179055508160878190555080608881905550505050505050505062001145565b828054600181600116156101000203166002900490600052602060002090601f016020900481019282601f10620010d957805160ff19168380011785556200110a565b828001600101855582156200110a579182015b8281111562001109578251825591602001919060010190620010ec565b5b5090506200111991906200111d565b5090565b6200114291905b808211156200113e57600081600090555060010162001124565b5090565b90565b614d2180620011556000396000f3006080604052600436106101f8576000357c0100000000000000000000000000000000000000000000000000000000900463ffffffff168062dad67f146101fa57806304d2abd21461025f57806306fdde03146102a0578063095ea7b3146103305780630c7d5cd814610395578063152447c1146103cc57806318160ddd1461046457806323b872dd1461048f578063245a355a146105145780632739888f1461052b578063277b2f971461057857806329a00e7c146105a3578063313ce567146106085780633ca3a46614610639578063428ff0141461066457806349f9b0f7146106b257806354fd4d50146107175780635651dd71146107a75780635c0eceeb1461080c578063639793d31461085957806365098bb3146108ba578063661884631461092f5780636c22b13f146109945780636eea662c146109bf57806370a08231146109f657806376cd940e14610a4d5780637abc91a414610a7857806395d89b4114610acd57806396365d4414610b5d578063a4ad755f14610b88578063a9059cbb14610bd3578063b32c4d8d14610c38578063c1de5d8b14610cc8578063c56f0f6c14610d29578063d73dd62314610d54578063dcd2af1714610db9578063dd62ed3e14610de4578063def48e5d14610e5b578063e5cb193414610eb2578063e83b8caa14610ef7578063ef430aa614610f4c575b005b34801561020657600080fd5b50610245600480360381019080803573ffffffffffffffffffffffffffffffffffffffff16906020019092919080359060200190929190505050610f85565b604051808215151515815260200191505060405180910390f35b34801561026b57600080fd5b5061028a60048036038101908080359060200190929190505050610fe5565b6040518082815260200191505060405180910390f35b3480156102ac57600080fd5b506102b56110bb565b6040518080602001828103825283818151815260200191508051906020019080838360005b838110156102f55780820151818401526020810190506102da565b50505050905090810190601f1680156103225780820380516001836020036101000a031916815260200191505b509250505060405180910390f35b34801561033c57600080fd5b5061037b600480360381019080803573ffffffffffffffffffffffffffffffffffffffff16906020019092919080359060200190929190505050611159565b604051808215151515815260200191505060405180910390f35b3480156103a157600080fd5b506103aa61124b565b604051808263ffffffff1663ffffffff16815260200191505060405180910390f35b3480156103d857600080fd5b5061040d600480360381019080803573ffffffffffffffffffffffffffffffffffffffff169060200190929190505050611261565b6040518080602001828103825283818151815260200191508051906020019060200280838360005b83811015610450578082015181840152602081019050610435565b505050509050019250505060405180910390f35b34801561047057600080fd5b506104796112f8565b6040518082815260200191505060405180910390f35b34801561049b57600080fd5b506104fa600480360381019080803573ffffffffffffffffffffffffffffffffffffffff169060200190929190803573ffffffffffffffffffffffffffffffffffffffff16906020019092919080359060200190929190505050611302565b604051808215151515815260200191505060405180910390f35b34801561052057600080fd5b506105296116bc565b005b34801561053757600080fd5b5061057660048036038101908080359060200190929190803573ffffffffffffffffffffffffffffffffffffffff16906020019092919050505061190c565b005b34801561058457600080fd5b5061058d611b8e565b6040518082815260200191505060405180910390f35b3480156105af57600080fd5b506105f26004803603810190808035906020019092919080359060200190929190803563ffffffff16906020019092919080359060200190929190505050611b94565b6040518082815260200191505060405180910390f35b34801561061457600080fd5b5061061d611c73565b604051808260ff1660ff16815260200191505060405180910390f35b34801561064557600080fd5b5061064e611c86565b6040518082815260200191505060405180910390f35b610698600480360381019080803573ffffffffffffffffffffffffffffffffffffffff169060200190929190505050611ce2565b604051808215151515815260200191505060405180910390f35b3480156106be57600080fd5b506107016004803603810190808035906020019092919080359060200190929190803563ffffffff16906020019092919080359060200190929190505050611e9f565b6040518082815260200191505060405180910390f35b34801561072357600080fd5b5061072c611fa3565b6040518080602001828103825283818151815260200191508051906020019080838360005b8381101561076c578082015181840152602081019050610751565b50505050905090810190601f1680156107995780820380516001836020036101000a031916815260200191505b509250505060405180910390f35b3480156107b357600080fd5b506107f2600480360381019080803573ffffffffffffffffffffffffffffffffffffffff16906020019092919080359060200190929190505050612041565b604051808215151515815260200191505060405180910390f35b34801561081857600080fd5b5061085760048036038101908080359060200190929190803573ffffffffffffffffffffffffffffffffffffffff1690602001909291905050506120a1565b005b34801561086557600080fd5b506108a4600480360381019080803573ffffffffffffffffffffffffffffffffffffffff169060200190929190803590602001909291905050506123d8565b6040518082815260200191505060405180910390f35b3480156108c657600080fd5b5061091960048036038101908080359060200190929190803563ffffffff16906020019092919080359060200190929190803563ffffffff16906020019092919080359060200190929190505050612439565b6040518082815260200191505060405180910390f35b34801561093b57600080fd5b5061097a600480360381019080803573ffffffffffffffffffffffffffffffffffffffff16906020019092919080359060200190929190505050612547565b604051808215151515815260200191505060405180910390f35b3480156109a057600080fd5b506109a96127d8565b6040518082815260200191505060405180910390f35b3480156109cb57600080fd5b506109d46127de565b604051808263ffffffff1663ffffffff16815260200191505060405180910390f35b348015610a0257600080fd5b50610a37600480360381019080803573ffffffffffffffffffffffffffffffffffffffff1690602001909291905050506127f4565b6040518082815260200191505060405180910390f35b348015610a5957600080fd5b50610a6261283c565b6040518082815260200191505060405180910390f35b348015610a8457600080fd5b50610ab7600480360381019080803590602001909291908035906020019092919080359060200190929190505050612855565b6040518082815260200191505060405180910390f35b348015610ad957600080fd5b50610ae2612894565b6040518080602001828103825283818151815260200191508051906020019080838360005b83811015610b22578082015181840152602081019050610b07565b50505050905090810190601f168015610b4f5780820380516001836020036101000a031916815260200191505b509250505060405180910390f35b348015610b6957600080fd5b50610b72612932565b6040518082815260200191505060405180910390f35b348015610b9457600080fd5b50610bbd6004803603810190808035906020019092919080359060200190929190505050612938565b6040518082815260200191505060405180910390f35b348015610bdf57600080fd5b50610c1e600480360381019080803573ffffffffffffffffffffffffffffffffffffffff169060200190929190803590602001909291905050506129a2565b604051808215151515815260200191505060405180910390f35b348015610c4457600080fd5b50610c6360048036038101908080359060200190929190505050612bc1565b604051808b1515151581526020018a15151515815260200189151515158152602001881515151581526020018781526020018681526020018581526020018481526020018381526020018281526020019a505050505050505050505060405180910390f35b348015610cd457600080fd5b50610d13600480360381019080803573ffffffffffffffffffffffffffffffffffffffff16906020019092919080359060200190929190505050612c49565b6040518082815260200191505060405180910390f35b348015610d3557600080fd5b50610d3e612c79565b6040518082815260200191505060405180910390f35b348015610d6057600080fd5b50610d9f600480360381019080803573ffffffffffffffffffffffffffffffffffffffff16906020019092919080359060200190929190505050612c7f565b604051808215151515815260200191505060405180910390f35b348015610dc557600080fd5b50610dce612e7b565b6040518082815260200191505060405180910390f35b348015610df057600080fd5b50610e45600480360381019080803573ffffffffffffffffffffffffffffffffffffffff169060200190929190803573ffffffffffffffffffffffffffffffffffffffff169060200190929190505050612e81565b6040518082815260200191505060405180910390f35b348015610e6757600080fd5b50610e9c600480360381019080803573ffffffffffffffffffffffffffffffffffffffff169060200190929190505050612f08565b6040518082815260200191505060405180910390f35b348015610ebe57600080fd5b50610edd60048036038101908080359060200190929190505050612f54565b604051808215151515815260200191505060405180910390f35b348015610f0357600080fd5b50610f3660048036038101908080359060200190929190803590602001909291908035906020019092919050505061320f565b6040518082815260200191505060405180910390f35b348015610f5857600080fd5b50610f6161324e565b60405180826002811115610f7157fe5b60ff16815260200191505060405180910390f35b600080608d600084815260200190815260200160002060080160008573ffffffffffffffffffffffffffffffffffffffff1673ffffffffffffffffffffffffffffffffffffffff1681526020019081526020016000205411905092915050565b6000608660019054906101000a900463ffffffff1663ffffffff16608660059054906101000a900463ffffffff1663ffffffff1681151561102257fe5b0463ffffffff1661105483608660019054906101000a900463ffffffff1663ffffffff1661326190919063ffffffff16565b0a6110aa608660059054906101000a900463ffffffff1663ffffffff1661109c608660059054906101000a900463ffffffff1663ffffffff168661326190919063ffffffff16565b61326190919063ffffffff16565b8115156110b357fe5b049050919050565b60848054600181600116156101000203166002900480601f0160208091040260200160405190810160405280929190818152602001828054600181600116156101000203166002900480156111515780601f1061112657610100808354040283529160200191611151565b820191906000526020600020905b81548152906001019060200180831161113457829003601f168201915b505050505081565b600081600260003373ffffffffffffffffffffffffffffffffffffffff1673ffffffffffffffffffffffffffffffffffffffff16815260200190815260200160002060008573ffffffffffffffffffffffffffffffffffffffff1673ffffffffffffffffffffffffffffffffffffffff168152602001908152602001600020819055508273ffffffffffffffffffffffffffffffffffffffff163373ffffffffffffffffffffffffffffffffffffffff167f8c5be1e5ebec7d5bd14f71427d1e84f3dd0314c0f7b2291e5b200ac8c7c3b925846040518082815260200191505060405180910390a36001905092915050565b608660019054906101000a900463ffffffff1681565b6060608e60008373ffffffffffffffffffffffffffffffffffffffff1673ffffffffffffffffffffffffffffffffffffffff1681526020019081526020016000208054806020026020016040519081016040528092919081815260200182805480156112ec57602002820191906000526020600020905b8154815260200190600101908083116112d8575b50505050509050919050565b6000600154905090565b60008073ffffffffffffffffffffffffffffffffffffffff168373ffffffffffffffffffffffffffffffffffffffff161415151561133f57600080fd5b6000808573ffffffffffffffffffffffffffffffffffffffff1673ffffffffffffffffffffffffffffffffffffffff16815260200190815260200160002054821115151561138c57600080fd5b600260008573ffffffffffffffffffffffffffffffffffffffff1673ffffffffffffffffffffffffffffffffffffffff16815260200190815260200160002060003373ffffffffffffffffffffffffffffffffffffffff1673ffffffffffffffffffffffffffffffffffffffff16815260200190815260200160002054821115151561141757600080fd5b611468826000808773ffffffffffffffffffffffffffffffffffffffff1673ffffffffffffffffffffffffffffffffffffffff1681526020019081526020016000205461329990919063ffffffff16565b6000808673ffffffffffffffffffffffffffffffffffffffff1673ffffffffffffffffffffffffffffffffffffffff168152602001908152602001600020819055506114fb826000808673ffffffffffffffffffffffffffffffffffffffff1673ffffffffffffffffffffffffffffffffffffffff168152602001908152602001600020546132b290919063ffffffff16565b6000808573ffffffffffffffffffffffffffffffffffffffff1673ffffffffffffffffffffffffffffffffffffffff168152602001908152602001600020819055506115cc82600260008773ffffffffffffffffffffffffffffffffffffffff1673ffffffffffffffffffffffffffffffffffffffff16815260200190815260200160002060003373ffffffffffffffffffffffffffffffffffffffff1673ffffffffffffffffffffffffffffffffffffffff1681526020019081526020016000205461329990919063ffffffff16565b600260008673ffffffffffffffffffffffffffffffffffffffff1673ffffffffffffffffffffffffffffffffffffffff16815260200190815260200160002060003373ffffffffffffffffffffffffffffffffffffffff1673ffffffffffffffffffffffffffffffffffffffff168152602001908152602001600020819055508273ffffffffffffffffffffffffffffffffffffffff168473ffffffffffffffffffffffffffffffffffffffff167fddf252ad1be2c89b69c2b068fc378daa952ba7f163c4a11628f55a4df523b3ef846040518082815260200191505060405180910390a3600190509392505050565b600080608b5414156116cd57611909565b608d6000608b54815260200190815260200160002090508060000160039054906101000a900460ff161561170057611909565b6000600281111561170d57fe5b608a60009054906101000a900460ff16600281111561172857fe5b141561173b576117366132ce565b611830565b6001600281111561174857fe5b608a60009054906101000a900460ff16600281111561176357fe5b141561177e57611771613562565b611779613619565b61182f565b60028081111561178a57fe5b608a60009054906101000a900460ff1660028111156117a557fe5b14156117c0576117b3613619565b6117bb613562565b61182e565b6040517f08c379a000000000000000000000000000000000000000000000000000000000815260040180806020018281038252600a8152602001807f496d706f7373696272750000000000000000000000000000000000000000000081525060200191505060405180910390fd5b5b5b80600101546089819055506118493082600401546136d0565b15156118e3576040517f08c379a000000000000000000000000000000000000000000000000000000000815260040180806020018281038252603f8152602001807f6d696e74696e67206e657720746f6b656e7320746f2062652068656c6420756e81526020017f74696c2062757965727320636f6c6c656374206d75737420737563636565640081525060400191505060405180910390fd5b60018160000160036101000a81548160ff0219169083151502179055506000608b819055505b50565b600080608d600085815260200190815260200160002091508160000160039054906101000a900460ff1615156119d0576040517f08c379a00000000000000000000000000000000000000000000000000000000081526004018080602001828103825260278152602001807f63616e277420636c61696d20612062617463682074686174206861736e27742081526020017f636c65617265640000000000000000000000000000000000000000000000000081525060400191505060405180910390fd5b60008260080160008573ffffffffffffffffffffffffffffffffffffffff1673ffffffffffffffffffffffffffffffffffffffff1681526020019081526020016000205414151515611a8a576040517f08c379a00000000000000000000000000000000000000000000000000000000081526004018080602001828103825260198152602001807f616c726561647920636c61696d656420746869732073656c6c0000000000000081525060200191505060405180910390fd5b611af88260050154611aea8460080160008773ffffffffffffffffffffffffffffffffffffffff1673ffffffffffffffffffffffffffffffffffffffff16815260200190815260200160002054856006015461326190919063ffffffff16565b6137d890919063ffffffff16565b905060008260080160008573ffffffffffffffffffffffffffffffffffffffff1673ffffffffffffffffffffffffffffffffffffffff168152602001908152602001600020819055508273ffffffffffffffffffffffffffffffffffffffff166108fc829081150290604051600060405180830381858888f19350505050158015611b87573d6000803e3d6000fd5b5050505050565b60875481565b60008060008060008089118015611bab5750600088115b8015611bbd575060008763ffffffff16115b8015611bd85750620f424063ffffffff168763ffffffff1611155b1515611be357600080fd5b6000861415611bf55760009450611c67565b620f424063ffffffff168763ffffffff161415611c285787611c178a886137ee565b811515611c2057fe5b049450611c67565b611c328689613821565b9150611c43828989620f424061383f565b80945081955050508260ff16611c598a866137ee565b9060020a9004905088810394505b50505050949350505050565b608660009054906101000a900460ff1681565b6000611cdd6001608660019054906101000a900463ffffffff1663ffffffff16608660059054906101000a900463ffffffff1663ffffffff16811515611cc857fe5b0463ffffffff1661329990919063ffffffff16565b905090565b6000806000611cef61283c565b9150608d600083815260200190815260200160002090508060000160009054906101000a900460ff161515611d2857611d278261393a565b5b611d3f3482600301546132b290919063ffffffff16565b816003018190555060008160070160008673ffffffffffffffffffffffffffffffffffffffff1673ffffffffffffffffffffffffffffffffffffffff168152602001908152602001600020541415611dfb57608e60008573ffffffffffffffffffffffffffffffffffffffff1673ffffffffffffffffffffffffffffffffffffffff1681526020019081526020016000208290806001815401808255809150509060018203906000526020600020016000909192909190915055505b611e4f348260070160008773ffffffffffffffffffffffffffffffffffffffff1673ffffffffffffffffffffffffffffffffffffffff168152602001908152602001600020546132b290919063ffffffff16565b8160070160008673ffffffffffffffffffffffffffffffffffffffff1673ffffffffffffffffffffffffffffffffffffffff16815260200190815260200160002081905550600192505050919050565b60008060008060008060008a118015611eb85750600089115b8015611eca575060008863ffffffff16115b8015611ee55750620f424063ffffffff168863ffffffff1611155b8015611ef15750898711155b1515611efc57600080fd5b6000871415611f0e5760009550611f96565b89871415611f1e57889550611f96565b620f424063ffffffff168863ffffffff161415611f515789611f408a896137ee565b811515611f4957fe5b049550611f96565b868a039250611f658a84620f42408b61383f565b8095508196505050611f7789866137ee565b91508360ff16899060020a02905084818303811515611f9257fe5b0495505b5050505050949350505050565b60038054600181600116156101000203166002900480601f0160208091040260200160405190810160405280929190818152602001828054600181600116156101000203166002900480156120395780601f1061200e57610100808354040283529160200191612039565b820191906000526020600020905b81548152906001019060200180831161201c57829003601f168201915b505050505081565b600080608d600084815260200190815260200160002060070160008573ffffffffffffffffffffffffffffffffffffffff1673ffffffffffffffffffffffffffffffffffffffff1681526020019081526020016000205411905092915050565b600080608d600085815260200190815260200160002091508160000160039054906101000a900460ff161515612165576040517f08c379a00000000000000000000000000000000000000000000000000000000081526004018080602001828103825260278152602001807f63616e277420636c61696d20612062617463682074686174206861736e27742081526020017f636c65617265640000000000000000000000000000000000000000000000000081525060400191505060405180910390fd5b60008260070160008573ffffffffffffffffffffffffffffffffffffffff1673ffffffffffffffffffffffffffffffffffffffff168152602001908152602001600020541415151561221f576040517f08c379a00000000000000000000000000000000000000000000000000000000081526004018080602001828103825260188152602001807f616c726561647920636c61696d6564207468697320627579000000000000000081525060200191505060405180910390fd5b61228d826003015461227f84600401548560070160008873ffffffffffffffffffffffffffffffffffffffff1673ffffffffffffffffffffffffffffffffffffffff1681526020019081526020016000205461326190919063ffffffff16565b6137d890919063ffffffff16565b905060008260070160008573ffffffffffffffffffffffffffffffffffffffff1673ffffffffffffffffffffffffffffffffffffffff168152602001908152602001600020819055506122e030826139b5565b1515612354576040517f08c379a00000000000000000000000000000000000000000000000000000000081526004018080602001828103825260208152602001807f6275726e206d757374207375636365656420746f20636c6f736520636c61696d81525060200191505060405180910390fd5b61235e83826136d0565b15156123d2576040517f08c379a00000000000000000000000000000000000000000000000000000000081526004018080602001828103825260208152602001807f6d696e74206d757374207375636365656420746f20636c6f736520636c61696d81525060200191505060405180910390fd5b50505050565b6000608e60008473ffffffffffffffffffffffffffffffffffffffff1673ffffffffffffffffffffffffffffffffffffffff1681526020019081526020016000208281548110151561242657fe5b9060005260206000200154905092915050565b60008060008060008060008b118015612458575060008a63ffffffff16115b80156124735750620f424063ffffffff168a63ffffffff1611155b801561247f5750600089115b8015612491575060008863ffffffff16115b80156124ac5750620f424063ffffffff168863ffffffff1611155b15156124b757600080fd5b8763ffffffff168a63ffffffff1614156124f0576124d58b88613821565b6124df8a896137ee565b8115156124e857fe5b049550612539565b6124fa8b88613821565b9250612508838c8c8b61383f565b809550819650505061251a89866137ee565b91508360ff16899060020a0290508481830381151561253557fe5b0495505b505050505095945050505050565b600080600260003373ffffffffffffffffffffffffffffffffffffffff1673ffffffffffffffffffffffffffffffffffffffff16815260200190815260200160002060008573ffffffffffffffffffffffffffffffffffffffff1673ffffffffffffffffffffffffffffffffffffffff16815260200190815260200160002054905080831115612658576000600260003373ffffffffffffffffffffffffffffffffffffffff1673ffffffffffffffffffffffffffffffffffffffff16815260200190815260200160002060008673ffffffffffffffffffffffffffffffffffffffff1673ffffffffffffffffffffffffffffffffffffffff168152602001908152602001600020819055506126ec565b61266b838261329990919063ffffffff16565b600260003373ffffffffffffffffffffffffffffffffffffffff1673ffffffffffffffffffffffffffffffffffffffff16815260200190815260200160002060008673ffffffffffffffffffffffffffffffffffffffff1673ffffffffffffffffffffffffffffffffffffffff168152602001908152602001600020819055505b8373ffffffffffffffffffffffffffffffffffffffff163373ffffffffffffffffffffffffffffffffffffffff167f8c5be1e5ebec7d5bd14f71427d1e84f3dd0314c0f7b2291e5b200ac8c7c3b925600260003373ffffffffffffffffffffffffffffffffffffffff1673ffffffffffffffffffffffffffffffffffffffff16815260200190815260200160002060008873ffffffffffffffffffffffffffffffffffffffff1673ffffffffffffffffffffffffffffffffffffffff168152602001908152602001600020546040518082815260200191505060405180910390a3600191505092915050565b608b5481565b608660059054906101000a900463ffffffff1681565b60008060008373ffffffffffffffffffffffffffffffffffffffff1673ffffffffffffffffffffffffffffffffffffffff168152602001908152602001600020549050919050565b6000608c54608c544381151561284e57fe5b0402905090565b600061288b61286685608754613821565b61287285608854613821565b608660019054906101000a900463ffffffff1685611e9f565b90509392505050565b60858054600181600116156101000203166002900480601f01602080910402602001604051908101604052809291908181526020018280546001816001161561010002031660029004801561292a5780601f106128ff5761010080835404028352916020019161292a565b820191906000526020600020905b81548152906001019060200180831161290d57829003601f168201915b505050505081565b60895481565b6000612965608660019054906101000a900463ffffffff1663ffffffff168461326190919063ffffffff16565b61299083608660059054906101000a900463ffffffff1663ffffffff1661326190919063ffffffff16565b81151561299957fe5b04905092915050565b60008073ffffffffffffffffffffffffffffffffffffffff168373ffffffffffffffffffffffffffffffffffffffff16141515156129df57600080fd5b6000803373ffffffffffffffffffffffffffffffffffffffff1673ffffffffffffffffffffffffffffffffffffffff168152602001908152602001600020548211151515612a2c57600080fd5b612a7d826000803373ffffffffffffffffffffffffffffffffffffffff1673ffffffffffffffffffffffffffffffffffffffff1681526020019081526020016000205461329990919063ffffffff16565b6000803373ffffffffffffffffffffffffffffffffffffffff1673ffffffffffffffffffffffffffffffffffffffff16815260200190815260200160002081905550612b10826000808673ffffffffffffffffffffffffffffffffffffffff1673ffffffffffffffffffffffffffffffffffffffff168152602001908152602001600020546132b290919063ffffffff16565b6000808573ffffffffffffffffffffffffffffffffffffffff1673ffffffffffffffffffffffffffffffffffffffff168152602001908152602001600020819055508273ffffffffffffffffffffffffffffffffffffffff163373ffffffffffffffffffffffffffffffffffffffff167fddf252ad1be2c89b69c2b068fc378daa952ba7f163c4a11628f55a4df523b3ef846040518082815260200191505060405180910390a36001905092915050565b608d6020528060005260406000206000915090508060000160009054906101000a900460ff16908060000160019054906101000a900460ff16908060000160029054906101000a900460ff16908060000160039054906101000a900460ff1690806001015490806002015490806003015490806004015490806005015490806006015490508a565b608e60205281600052604060002081815481101515612c6457fe5b90600052602060002001600091509150505481565b608c5481565b6000612d1082600260003373ffffffffffffffffffffffffffffffffffffffff1673ffffffffffffffffffffffffffffffffffffffff16815260200190815260200160002060008673ffffffffffffffffffffffffffffffffffffffff1673ffffffffffffffffffffffffffffffffffffffff168152602001908152602001600020546132b290919063ffffffff16565b600260003373ffffffffffffffffffffffffffffffffffffffff1673ffffffffffffffffffffffffffffffffffffffff16815260200190815260200160002060008573ffffffffffffffffffffffffffffffffffffffff1673ffffffffffffffffffffffffffffffffffffffff168152602001908152602001600020819055508273ffffffffffffffffffffffffffffffffffffffff163373ffffffffffffffffffffffffffffffffffffffff167f8c5be1e5ebec7d5bd14f71427d1e84f3dd0314c0f7b2291e5b200ac8c7c3b925600260003373ffffffffffffffffffffffffffffffffffffffff1673ffffffffffffffffffffffffffffffffffffffff16815260200190815260200160002060008773ffffffffffffffffffffffffffffffffffffffff1673ffffffffffffffffffffffffffffffffffffffff168152602001908152602001600020546040518082815260200191505060405180910390a36001905092915050565b60885481565b6000600260008473ffffffffffffffffffffffffffffffffffffffff1673ffffffffffffffffffffffffffffffffffffffff16815260200190815260200160002060008373ffffffffffffffffffffffffffffffffffffffff1673ffffffffffffffffffffffffffffffffffffffff16815260200190815260200160002054905092915050565b6000608e60008373ffffffffffffffffffffffffffffffffffffffff1673ffffffffffffffffffffffffffffffffffffffff168152602001908152602001600020805490509050919050565b600080600083612f63336127f4565b10151515612fd9576040517f08c379a000000000000000000000000000000000000000000000000000000000815260040180806020018281038252601d8152602001807f696e73756666696369656e742066756e647320746f20646f207468617400000081525060200191505060405180910390fd5b612fe161283c565b9150608d600083815260200190815260200160002090508060000160009054906101000a900460ff16151561301a576130198261393a565b5b6130318482600501546132b290919063ffffffff16565b816005018190555060008160080160003373ffffffffffffffffffffffffffffffffffffffff1673ffffffffffffffffffffffffffffffffffffffff1681526020019081526020016000205414156130ed57608e60003373ffffffffffffffffffffffffffffffffffffffff1673ffffffffffffffffffffffffffffffffffffffff1681526020019081526020016000208290806001815401808255809150509060018203906000526020600020016000909192909190915055505b613141848260080160003373ffffffffffffffffffffffffffffffffffffffff1673ffffffffffffffffffffffffffffffffffffffff168152602001908152602001600020546132b290919063ffffffff16565b8160080160003373ffffffffffffffffffffffffffffffffffffffff1673ffffffffffffffffffffffffffffffffffffffff1681526020019081526020016000208190555061319033856139b5565b1515613204576040517f08c379a00000000000000000000000000000000000000000000000000000000081526004018080602001828103825260118152602001807f6275726e206d757374207375636365656400000000000000000000000000000081525060200191505060405180910390fd5b600192505050919050565b600061324561322085608754613821565b61322c85608854613821565b608660019054906101000a900463ffffffff1685611b94565b90509392505050565b608a60009054906101000a900460ff1681565b6000808314156132745760009050613293565b818302905081838281151561328557fe5b0414151561328f57fe5b8090505b92915050565b60008282111515156132a757fe5b818303905092915050565b600081830190508281101515156132c557fe5b80905092915050565b600080600080600080600080608d6000608b548152602001908152602001600020975061330388600201548960010154612938565b9650608660059054906101000a900463ffffffff1663ffffffff16613335888a6005015461326190919063ffffffff16565b81151561333e57fe5b049550876003015486101515613437578661337e608660059054906101000a900463ffffffff1663ffffffff168a6003015461326190919063ffffffff16565b81151561338757fe5b04886004018190555060018860000160016101000a81548160ff0219169083151502179055506133c486896005015461329990919063ffffffff16565b94506133d98860020154896001015487612855565b93506133ee84876132b290919063ffffffff16565b886006018190555061340d84896001015461329990919063ffffffff16565b886001018190555060018860000160026101000a81548160ff021916908315150217905550613558565b608660059054906101000a900463ffffffff1663ffffffff16613467888a6005015461326190919063ffffffff16565b81151561347057fe5b04886006018190555060018860000160026101000a81548160ff021916908315150217905550866134c6608660059054906101000a900463ffffffff1663ffffffff168a6003015461326190919063ffffffff16565b8115156134cf57fe5b0492506134e983896003015461329990919063ffffffff16565b91506134fe886002015489600101548461320f565b905061351381846132b290919063ffffffff16565b88600401819055506135328189600101546132b290919063ffffffff16565b886001018190555060018860000160016101000a81548160ff0219169083151502179055505b5050505050505050565b6000608d6000608b54815260200190815260200160002090508060000160029054906101000a900460ff161515613616576135aa816002015482600101548360050154612855565b81600601819055506135cd8160050154826002015461329990919063ffffffff16565b81600201819055506135f08160060154826001015461329990919063ffffffff16565b816001018190555060018160000160026101000a81548160ff0219169083151502179055505b50565b6000608d6000608b54815260200190815260200160002090508060000160019054906101000a900460ff1615156136cd5761366181600201548260010154836003015461320f565b8160040181905550613684816004015482600201546132b290919063ffffffff16565b81600201819055506136a7816003015482600101546132b290919063ffffffff16565b816001018190555060018160000160016101000a81548160ff0219169083151502179055505b50565b60006136e7826001546132b290919063ffffffff16565b60018190555061373e826000808673ffffffffffffffffffffffffffffffffffffffff1673ffffffffffffffffffffffffffffffffffffffff168152602001908152602001600020546132b290919063ffffffff16565b6000808573ffffffffffffffffffffffffffffffffffffffff1673ffffffffffffffffffffffffffffffffffffffff168152602001908152602001600020819055508273ffffffffffffffffffffffffffffffffffffffff167f0f6798a560793a54c3bcfe86a93cde1e73087d944c0ea20544137d4121396885836040518082815260200191505060405180910390a26001905092915050565b600081838115156137e557fe5b04905092915050565b6000808284029050600084148061380f575082848281151561380c57fe5b04145b151561381757fe5b8091505092915050565b600080828401905083811015151561383557fe5b8091505092915050565b6000806000806000807002000000000000000000000000000000008a10151561386757600080fd5b886f800000000000000000000000000000008b0281151561388457fe5b04925070015bf0a8b1457695355fb8ac404e7a79e38310156138b0576138a983613abd565b93506138bc565b6138b98361408c565b93505b8663ffffffff168863ffffffff1685028115156138d557fe5b049150700800000000000000000000000000000000821015613905576138fa826141c2565b607f9550955061392d565b61390e82614782565b905061392781607f0360ff16839060020a900482614845565b81955095505b5050505094509492505050565b6139426116bc565b608954608d600083815260200190815260200160002060010181905550600154608d6000838152602001908152602001600020600201819055506001608d600083815260200190815260200160002060000160006101000a81548160ff02191690831515021790555080608b8190555050565b60006139cc8260015461329990919063ffffffff16565b600181905550613a23826000808673ffffffffffffffffffffffffffffffffffffffff1673ffffffffffffffffffffffffffffffffffffffff1681526020019081526020016000205461329990919063ffffffff16565b6000808573ffffffffffffffffffffffffffffffffffffffff1673ffffffffffffffffffffffffffffffffffffffff168152602001908152602001600020819055508273ffffffffffffffffffffffffffffffffffffffff167fcc16f5dbb4873280815c1ee09dbd06736cffcc184412cf7a71a0fdb75d397ca5836040518082815260200191505060405180910390a26001905092915050565b60008060008060008093506fd3094c70f034de4b96ff7d5b6f99fcd886101515613b27576f40000000000000000000000000000000840193506fd3094c70f034de4b96ff7d5b6f99fcd86f800000000000000000000000000000008702811515613b2357fe5b0495505b6fa45af1e1f40c333b3de1db4dd55f29a786101515613b86576f20000000000000000000000000000000840193506fa45af1e1f40c333b3de1db4dd55f29a76f800000000000000000000000000000008702811515613b8257fe5b0495505b6f910b022db7ae67ce76b441c27035c6a186101515613be5576f10000000000000000000000000000000840193506f910b022db7ae67ce76b441c27035c6a16f800000000000000000000000000000008702811515613be157fe5b0495505b6f88415abbe9a76bead8d00cf112e4d4a886101515613c44576f08000000000000000000000000000000840193506f88415abbe9a76bead8d00cf112e4d4a86f800000000000000000000000000000008702811515613c4057fe5b0495505b6f84102b00893f64c705e841d5d4064bd386101515613ca3576f04000000000000000000000000000000840193506f84102b00893f64c705e841d5d4064bd36f800000000000000000000000000000008702811515613c9f57fe5b0495505b6f8204055aaef1c8bd5c3259f4822735a286101515613d02576f02000000000000000000000000000000840193506f8204055aaef1c8bd5c3259f4822735a26f800000000000000000000000000000008702811515613cfe57fe5b0495505b6f810100ab00222d861931c15e39b44e9986101515613d61576f01000000000000000000000000000000840193506f810100ab00222d861931c15e39b44e996f800000000000000000000000000000008702811515613d5d57fe5b0495505b6f808040155aabbbe9451521693554f73386101515613dbf576e800000000000000000000000000000840193506f808040155aabbbe9451521693554f7336f800000000000000000000000000000008702811515613dbb57fe5b0495505b6f80000000000000000000000000000000860392508291506f80000000000000000000000000000000838402811515613df457fe5b04905070010000000000000000000000000000000083700100000000000000000000000000000000038302811515613e2857fe5b04840193506f80000000000000000000000000000000818302811515613e4a57fe5b049150700200000000000000000000000000000000836faaaaaaaaaaaaaaaaaaaaaaaaaaaaaaaa038302811515613e7d57fe5b04840193506f80000000000000000000000000000000818302811515613e9f57fe5b049150700300000000000000000000000000000000836f99999999999999999999999999999999038302811515613ed257fe5b04840193506f80000000000000000000000000000000818302811515613ef457fe5b049150700400000000000000000000000000000000836f92492492492492492492492492492492038302811515613f2757fe5b04840193506f80000000000000000000000000000000818302811515613f4957fe5b049150700500000000000000000000000000000000836f8e38e38e38e38e38e38e38e38e38e38e038302811515613f7c57fe5b04840193506f80000000000000000000000000000000818302811515613f9e57fe5b049150700600000000000000000000000000000000836f8ba2e8ba2e8ba2e8ba2e8ba2e8ba2e8b038302811515613fd157fe5b04840193506f80000000000000000000000000000000818302811515613ff357fe5b049150700700000000000000000000000000000000836f89d89d89d89d89d89d89d89d89d89d8903830281151561402657fe5b04840193506f8000000000000000000000000000000081830281151561404857fe5b049150700800000000000000000000000000000000836f8888888888888888888888888888888803830281151561407b57fe5b048401935083945050505050919050565b60008060008060009250700100000000000000000000000000000000851015156140fc576140d46f80000000000000000000000000000000868115156140ce57fe5b04614c69565b91508160ff16859060020a900494506f800000000000000000000000000000008260ff160292505b6f8000000000000000000000000000000085111561418a57607f90505b60008160ff161115614189576f8000000000000000000000000000000085860281151561414257fe5b0494507001000000000000000000000000000000008510151561417d576001859060020a900494506001810360ff1660019060020a02830192505b80600190039050614119565b5b6f05b9de1d10bf4103d647b0955897ba806f03f80fe03f80fe03f80fe03f80fe03f884028115156141b757fe5b049350505050919050565b600080600080600092506f10000000000000000000000000000000858115156141e757fe5b0691508190506f8000000000000000000000000000000082820281151561420a57fe5b0490506710e1b3be415a00008102830192506f8000000000000000000000000000000082820281151561423957fe5b0490506705a0913f6b1e00008102830192506f8000000000000000000000000000000082820281151561426857fe5b049050670168244fdac780008102830192506f8000000000000000000000000000000082820281151561429757fe5b049050664807432bc180008102830192506f800000000000000000000000000000008282028115156142c557fe5b049050660c0135dca040008102830192506f800000000000000000000000000000008282028115156142f357fe5b0490506601b707b1cdc0008102830192506f8000000000000000000000000000000082820281151561432157fe5b0490506536e0f639b8008102830192506f8000000000000000000000000000000082820281151561434e57fe5b049050650618fee9f8008102830192506f8000000000000000000000000000000082820281151561437b57fe5b049050649c197dcc008102830192506f800000000000000000000000000000008282028115156143a757fe5b049050640e30dce4008102830192506f800000000000000000000000000000008282028115156143d357fe5b04905064012ebd13008102830192506f800000000000000000000000000000008282028115156143ff57fe5b0490506317499f008102830192506f8000000000000000000000000000000082820281151561442a57fe5b0490506301a9d4808102830192506f8000000000000000000000000000000082820281151561445557fe5b049050621c63808102830192506f8000000000000000000000000000000082820281151561447f57fe5b0490506201c6388102830192506f800000000000000000000000000000008282028115156144a957fe5b049050611ab88102830192506f800000000000000000000000000000008282028115156144d257fe5b04905061017c8102830192506f800000000000000000000000000000008282028115156144fb57fe5b04905060148102830192506f8000000000000000000000000000000082820281151561452357fe5b04905060018102830192506f80000000000000000000000000000000826721c3677c82b400008581151561455357fe5b040101925060006f1000000000000000000000000000000086161415156145a75770018ebef9eac820ae8682b9793ac6d1e7767001c3d6a24ed82218787d624d3e5eba95f984028115156145a357fe5b0492505b60006f2000000000000000000000000000000086161415156145f6577001368b2fc6f9609fe7aceb46aa619baed470018ebef9eac820ae8682b9793ac6d1e77884028115156145f257fe5b0492505b60006f400000000000000000000000000000008616141515614644576fbc5ab1b16779be3575bd8f0520a9f21f7001368b2fc6f9609fe7aceb46aa619baed5840281151561464057fe5b0492505b60006f800000000000000000000000000000008616141515614691576f454aaa8efe072e7f6ddbab84b40a55c96fbc5ab1b16779be3575bd8f0520a9f21e840281151561468d57fe5b0492505b600070010000000000000000000000000000000086161415156146df576f0960aadc109e7a3bf4578099615711ea6f454aaa8efe072e7f6ddbab84b40a55c584028115156146db57fe5b0492505b6000700200000000000000000000000000000000861614151561472c576e2bf84208204f5977f9a8cf01fdce3d6f0960aadc109e7a3bf4578099615711d7840281151561472857fe5b0492505b60007004000000000000000000000000000000008616141515614777576d03c6ab775dd0b95b4cbee7e65d116e2bf84208204f5977f9a8cf01fdc307840281151561477357fe5b0492505b829350505050919050565b60008060008060209250607f91505b8160ff166001840160ff1610156147e357600282840160ff168115156147b357fe5b0490508460048260ff166080811015156147c957fe5b01541015156147da578092506147de565b8091505b614791565b8460048360ff166080811015156147f657fe5b01541015156148075781935061483d565b8460048460ff1660808110151561481a57fe5b015410151561482b5782935061483d565b6000151561483857600080fd5b600093505b505050919050565b6000806000849150600090508360ff168583029060020a900491506f03442c4e6074a82f1797f72ac00000008202810190508360ff168583029060020a900491506f0116b96f757c380fb287fd0e400000008202810190508360ff168583029060020a900491506e45ae5bdd5f0e03eca1ff43900000008202810190508360ff168583029060020a900491506e0defabf91302cd95b9ffda500000008202810190508360ff168583029060020a900491506e02529ca9832b22439efff9b80000008202810190508360ff168583029060020a900491506d54f1cf12bd04e516b6da880000008202810190508360ff168583029060020a900491506d0a9e39e257a09ca2d6db510000008202810190508360ff168583029060020a900491506d012e066e7b839fa050c3090000008202810190508360ff168583029060020a900491506c1e33d7d926c329a1ad1a8000008202810190508360ff168583029060020a900491506c02bee513bdb4a6b19b5f8000008202810190508360ff168583029060020a900491506b3a9316fa79b88eccf2a000008202810190508360ff168583029060020a900491506b048177ebe1fa8123752000008202810190508360ff168583029060020a900491506a5263fe90242dcbacf000008202810190508360ff168583029060020a900491506a057e22099c030d941000008202810190508360ff168583029060020a900491506957e22099c030d94100008202810190508360ff168583029060020a9004915069052b6b545699763100008202810190508360ff168583029060020a90049150684985f67696bf7480008202810190508360ff168583029060020a900491506803dea12ea99e4980008202810190508360ff168583029060020a900491506731880f2214b6e0008202810190508360ff168583029060020a9004915067025bcff56eb360008202810190508360ff168583029060020a90049150661b722e10ab10008202810190508360ff168583029060020a900491506601317c700770008202810190508360ff168583029060020a90049150650cba84aafa008202810190508360ff168583029060020a900491506482573a0a008202810190508360ff168583029060020a900491506405035ad9008202810190508360ff168583029060020a90049150632f881b008202810190508360ff168583029060020a900491506301b293408202810190508360ff168583029060020a90049150620efc408202810190508360ff168583029060020a90049150617fe08202810190508360ff168583029060020a900491506104208202810190508360ff168583029060020a9004915060218202810190508360ff168583029060020a9004915060018202810190508360ff1660019060020a02856f0688589cc0e9505e2f2fee558000000083811515614c5c57fe5b0401019250505092915050565b6000806000809150610100841015614ca0575b6001841115614c9b576001849060020a90049350600182019150614c7c565b614ceb565b608090505b60008160ff161115614cea578060ff1660019060020a0284101515614cd7578060ff16849060020a9004935080821791505b60018160ff169060020a90049050614ca5565b5b81925050509190505600a165627a7a7230582011dc0498b9f8502f6be56544b9f46d47fb7632ceb58f79d0cb4d922f403265130029",
  "source": "pragma solidity ^0.4.23;\n\nimport \"../node_modules/zeppelin-solidity/contracts/token/ERC20/StandardToken.sol\";\nimport \"../node_modules/zeppelin-solidity/contracts/math/SafeMath.sol\";\nimport \"./BancorContracts/converter/BancorFormula.sol\";\n\ncontract BatchBondedToken is StandardToken, BancorFormula {\n    using SafeMath for uint256;\n\n    enum Category {Matching, BetterForBuyers, BetterForSellers}\n\n    string public name;\n    string public symbol;\n    uint8 public decimals;\n\n    uint32 public reserveRatio;  // aka connector weight, represented in parts per million (1-1000000)\n    uint32 public ppm = 1000000;\n    uint256 public virtualSupply;\n    uint256 public virtualBalance;\n\n    uint256 public poolBalance;\n\n    Category public category;\n    uint256 public waitingClear;\n    uint256 public batchBlocks;\n    struct Batch {\n        bool init;\n        bool buysCleared;\n        bool sellsCleared;\n        bool cleared;\n\n        uint256 poolBalance;\n        uint256 totalSupply;\n        \n        uint256 totalBuySpend;\n        uint256 totalBuyReturn;\n\n        uint256 totalSellSpend;\n        uint256 totalSellReturn;\n\n        mapping (address => uint256) buyers;\n        mapping (address => uint256) sellers;\n    }\n    mapping (uint256 => Batch) public batches;\n    mapping (address => uint256[]) public addressToBlocks;\n\n    event Mint(address indexed to, uint256 amount);\n    event Burn(address indexed burner, uint256 amount);\n    event Buy(address indexed to, uint256 poolBalance, uint tokenSupply, uint256 amountTokens, uint256 totalCostEth);\n    event Sell(address indexed from, uint256 poolBalance, uint tokenSupply, uint256 amountTokens, uint256 returnedEth);\n\n    constructor (\n        string _name,\n        string _symbol,\n        uint8 _decimals,\n        Category _category, \n        uint256 _batchBlocks,\n        uint32 _reserveRatio,\n        uint256 _virtualSupply,\n        uint256 _virtualBalance) public {\n            \n        name = _name;\n        symbol = _symbol;\n        decimals = _decimals;\n\n        category = _category;\n        batchBlocks = _batchBlocks;\n\n        reserveRatio = _reserveRatio;\n        virtualSupply = _virtualSupply;\n        virtualBalance = _virtualBalance;\n    }\n\n    function() public payable {}\n    function currentBatch() public view returns(uint cb) {\n        cb = (block.number / batchBlocks) * batchBlocks;\n    }\n    function getUserBlocks(address user) public view returns (uint256[]) {\n        return addressToBlocks[user];\n    }\n    function getUserBlocksLength(address user) public view returns (uint256) {\n        return addressToBlocks[user].length;\n    }  \n    function getUserBlocksByIndex(address user, uint256 index) public view returns (uint256) {\n        return addressToBlocks[user][index];\n    }\n    function isUserBuyerByBlock(address user, uint256 index) public view returns (bool) {\n        return batches[index].buyers[user] > 0;\n    }\n    function isUserSellerByBlock(address user, uint256 index) public view returns (bool) {\n        return batches[index].sellers[user] > 0;\n    }\n    function getPolynomial() public view returns(uint256) {\n        return uint256(ppm / reserveRatio).sub(1);\n    }\n    // returns in parts per million\n    function getSlopePPM(uint256 _totalSupply) public view returns(uint256) {\n        return _totalSupply.mul(ppm).mul(ppm) / (uint256(reserveRatio).mul(_totalSupply) ** (ppm / reserveRatio));\n    } \n    // returns in parts per million\n    function getPricePPM(uint256 _totalSupply, uint256 _poolBalance) public view returns(uint256) {\n        return uint256(ppm).mul(_poolBalance) / _totalSupply.mul(reserveRatio);\n        // return getSlope(_totalSupply, _poolBalance).mul(_totalSupply ** getPolynomial()) / ppm;\n    }\n    function getBuy(uint256 _totalSupply, uint256 _poolBalance, uint256 buyValue) public view returns(uint256) {\n        return calculatePurchaseReturn(\n            safeAdd(_totalSupply, virtualSupply),\n            safeAdd(_poolBalance, virtualBalance),\n            reserveRatio,\n            buyValue);\n    }\n    function getSell(uint256 _totalSupply, uint256 _poolBalance, uint256 sellAmount) public view returns(uint256) {\n        return calculateSaleReturn(\n            safeAdd(_totalSupply, virtualSupply),\n            safeAdd(_poolBalance, virtualBalance),\n            reserveRatio,\n            sellAmount);\n    }\n    // totalSupply remains the same\n    // balance remains the same (although collateral has been collected)\n    function addBuy(address sender) public payable returns(bool) {\n        uint256 batch = currentBatch();\n        Batch storage cb = batches[batch]; // currentBatch\n        if (!cb.init) {\n            initBatch(batch);\n        }\n        cb.totalBuySpend = cb.totalBuySpend.add(msg.value);\n        if (cb.buyers[sender] == 0) {\n            addressToBlocks[sender].push(batch);\n        }\n        cb.buyers[sender] = cb.buyers[sender].add(msg.value);\n        return true;\n    }\n    // totalSupply is decremented\n    // balance remains the same\n    function addSell(uint256 amount) public returns(bool) {\n        require(balanceOf(msg.sender) >= amount, \"insufficient funds to do that\");\n        uint256 batch = currentBatch();\n        Batch storage cb = batches[batch]; // currentBatch\n        if (!cb.init) {\n            initBatch(batch);\n        }\n        cb.totalSellSpend = cb.totalSellSpend.add(amount);\n        if (cb.sellers[msg.sender] == 0) {\n            addressToBlocks[msg.sender].push(batch);\n        }\n        cb.sellers[msg.sender] = cb.sellers[msg.sender].add(amount);\n        require(_burn(msg.sender, amount), \"burn must succeed\");\n        return true;\n    }\n    function initBatch(uint256 batch) internal {\n        clearBatch();\n        batches[batch].poolBalance = poolBalance;\n        batches[batch].totalSupply = totalSupply_;\n        batches[batch].init = true;\n        waitingClear = batch;\n    }\n    function clearBatch() public {\n        if (waitingClear == 0) return;\n        Batch storage cb = batches[waitingClear]; // clearing batch\n        if (cb.cleared) return;\n        if (category == Category.Matching) {\n            clearMatching();\n        } else if (category == Category.BetterForBuyers) {\n            clearSales();\n            clearBuys();\n        } else if (category == Category.BetterForSellers) {\n            clearBuys();\n            clearSales();\n        } else {\n            revert(\"Impossibru\");\n        }\n   \n        poolBalance = cb.poolBalance;\n\n        // The totalSupply was decremented when _burns took place as the sell orders came in. Now\n        // the totalSupply needs to be incremented by totalBuyReturn, the resulting tokens are \n        // held by this contract until collected by the buyers.\n        require(_mint(this, cb.totalBuyReturn), \"minting new tokens to be held until buyers collect must succeed\");\n        cb.cleared = true;\n        waitingClear = 0;\n    }\n    function clearMatching() internal {\n        Batch storage cb = batches[waitingClear]; // clearing batch\n\n        // The static price is the current exact price.\n        uint256 staticPrice = getPricePPM(cb.totalSupply, cb.poolBalance);\n\n        // resultOfSell is the amount of collateral that would result if all the sales took\n        // place at the current exact price instead of the bonding curve price over the span\n        // of tokens that were sold.\n        uint256 resultOfSell = cb.totalSellSpend.mul(staticPrice) / ppm;\n\n        // if the collateral resulting from the sells is GREATER THAN \n        // the total amount of collateral to be spent during all buys\n        // then all of the buys can be executed at that exact price\n        // and the remaining sales can go back to the original bonding\n        // curve scenario.\n        if (resultOfSell >= cb.totalBuySpend) {\n\n            // total number of tokens created as a result of all of the buys being executed at the\n            // current exact price (tokens = collateral / price). staticPrice is in ppm, to avoid\n            // overflows it has been re-arranged.\n            cb.totalBuyReturn = cb.totalBuySpend.mul(ppm) / staticPrice;\n            cb.buysCleared = true;\n\n            // there are some tokens left over to be sold. these should be the difference between\n            // the original total sell order, and the result of executing all of the buys\n            uint256 remainingSell = cb.totalSellSpend.sub(resultOfSell);\n\n            // now that we know how many tokens are left to be sold we can get the amount of collateral\n            // generated by selling them through a normal bonding curve execution, based on the \n            // original totalSupply and poolBalance (as if the buy orders never existed and the sell\n            // order was just smaller than originally thought).\n            uint256 remainingSellReturn = getSell(cb.totalSupply, cb.poolBalance, remainingSell);\n\n            // totalSellReturn becomes the result of selling out to the buy orders\n            // plus the getSell() return from selling the remaining tokens\n            cb.totalSellReturn = resultOfSell.add(remainingSellReturn);\n\n            // TotalSupply doesn't need to be changed (keep it commented out). It only needs to be changed \n            // by clearSales or clearBuys scenario so that the subsequent clearSales/clearBuys\n            // can correctly calculate the purchaseReturn/saleReturn.\n            // cb.totalSupply = cb.totalSupply.sub(remainingSell);\n            \n            // poolBalance is ultimately only affected by the net difference between the buys and sells\n            cb.poolBalance = cb.poolBalance.sub(remainingSellReturn);\n            cb.sellsCleared = true;\n\n        // if the collateral resulting from the sells is LESS THAN \n        // the total amount of collateral to be spent during all buys\n        // then all of the sells can be executed at that exact price\n        // and the remaining buys can go back to the original bonding\n        // curve scenario.\n        } else {\n\n            // total amount of collateral released as a result of all of the sells being executed at the\n            // current exact price (collateral =  price * token). staticPrice is in ppm, to avoid\n            // overflows it has been re-arranged.\n            cb.totalSellReturn = cb.totalSellSpend.mul(staticPrice) / ppm;\n            cb.sellsCleared = true;\n\n            // there is some collateral left over to be spent. this should be the difference between\n            // the original total buy order, and the result of executing all of the sells\n            uint256 resultOfBuy = cb.totalBuySpend.mul(ppm) / staticPrice;\n            uint256 remainingBuy = cb.totalBuySpend.sub(resultOfBuy);\n\n            // now that we know how much collateral is left to be spent we can get the amount of tokens\n            // generated by spending it through a normal bonding curve execution, based on the \n            // original totalSupply and poolBalance (as if the sell orders never existed and the buy\n            // order was just smaller than originally thought).\n            uint256 remainingBuyReturn = getBuy(cb.totalSupply, cb.poolBalance, remainingBuy);\n\n            // remainingBuyReturn becomes the result of buying out to the sell orders\n            // plus the getBuy() return from spending the remaining collateral\n            cb.totalBuyReturn = resultOfBuy.add(remainingBuyReturn);\n\n            // TotalSupply doesn't need to be changed (keep it commented out). It only needs to be changed \n            // by clearSales or clearBuys scenario so that the subsequent clearSales/clearBuys\n            // can correctly calculate the purchaseReturn/saleReturn.\n            // cb.totalSupply = cb.totalSupply.add(remainingBuyReturn);\n            \n            // poolBalance is ultimately only affected by the net difference between the buys and sells\n            cb.poolBalance = cb.poolBalance.add(remainingBuyReturn);\n            cb.buysCleared = true;\n        }\n    }\n    function clearSales() internal {\n        Batch storage cb = batches[waitingClear]; // clearing batch\n        if (!cb.sellsCleared) {\n            cb.totalSellReturn = getSell(cb.totalSupply, cb.poolBalance, cb.totalSellSpend);\n            cb.totalSupply = cb.totalSupply.sub(cb.totalSellSpend);\n            cb.poolBalance = cb.poolBalance.sub(cb.totalSellReturn);\n            cb.sellsCleared = true;\n        }\n    }\n    function clearBuys() internal {\n        Batch storage cb = batches[waitingClear]; // clearing batch\n        if (!cb.buysCleared) {\n            cb.totalBuyReturn = getBuy(cb.totalSupply, cb.poolBalance, cb.totalBuySpend);\n            cb.totalSupply = cb.totalSupply.add(cb.totalBuyReturn);\n            cb.poolBalance = cb.poolBalance.add(cb.totalBuySpend);\n            cb.buysCleared = true;\n        }\n    }\n    function claimSell(uint256 batch, address sender) public {\n        Batch storage cb = batches[batch]; // claming batch\n        require(cb.cleared, \"can't claim a batch that hasn't cleared\");\n        require(cb.sellers[sender] != 0, \"already claimed this sell\");\n        uint256 individualSellReturn = (cb.totalSellReturn.mul(cb.sellers[sender])).div(cb.totalSellSpend);\n        cb.sellers[sender] = 0;\n        sender.transfer(individualSellReturn);\n    }\n    function claimBuy(uint256 batch, address sender) public {\n        Batch storage cb = batches[batch]; // claming batch\n        require(cb.cleared, \"can't claim a batch that hasn't cleared\");\n        require(cb.buyers[sender] != 0, \"already claimed this buy\");\n        uint256 individualBuyReturn = (cb.buyers[sender].mul(cb.totalBuyReturn)).div(cb.totalBuySpend);\n        cb.buyers[sender] = 0;\n        require(_burn(this, individualBuyReturn), \"burn must succeed to close claim\");\n        require(_mint(sender, individualBuyReturn), \"mint must succeed to close claim\");\n    }\n\n    // /**\n    // * @dev buy Buy tokens for Eth\n    // * @param sender The recepient of bought tokens\n    // */\n    // function buy(address sender) public payable returns(bool) {\n    //     require(msg.value > 0, \"Msg.value must be greater than 0\");\n    //     uint256 tokens = getBuy(totalSupply_, poolBalance, msg.value);\n    //     require(tokens > 0, \"Buy must be greater than 0\");\n    //     require(_mint(sender, tokens), \"mint must succeed\");\n\n    //     poolBalance = poolBalance.add(msg.value);\n    //     emit Buy(sender, poolBalance, totalSupply_, tokens, msg.value);\n    //     return true;\n    // }\n\n    // /**\n    // * @dev sell Sell tokens for Eth\n    // * @param sellAmount The amount of tokens to sell\n    // */\n    // function sell(uint256 sellAmount) public returns(bool) {\n    //     require(sellAmount > 0, \"sell amount must be greater than 0\");\n    //     require(balanceOf(msg.sender) >= sellAmount, \"sell amount must be less than or equal to sellser's balance\");\n\n    //     uint256 saleReturn = getSell(totalSupply_, poolBalance, sellAmount);\n\n    //     require(saleReturn > 0, \"Sale must be greater than 0\");\n    //     require(saleReturn <= poolBalance, \"Sale must be less than pool balance\");\n    //     require(_burn(msg.sender, sellAmount), \"burn must suceed\");\n    //     poolBalance = poolBalance.sub(saleReturn);\n\n    //     msg.sender.transfer(saleReturn);\n\n    //     emit Sell(msg.sender, poolBalance, totalSupply_, sellAmount, saleReturn);\n    //     return true;\n    // }\n\n\n    /// @dev                Mint new tokens with ether\n    /// @param numTokens    The number of tokens you want to mint\n    function _mint(address minter, uint256 numTokens) internal returns(bool){\n        totalSupply_ = totalSupply_.add(numTokens);\n        balances[minter] = balances[minter].add(numTokens);\n        emit Mint(minter, numTokens);\n        return true;\n    }\n\n    /// @dev                Burn tokens to receive ether\n    /// @param burner         The number of tokens that you want to burn\n    /// @param numTokens    The number of tokens that you want to burn\n    function _burn(address burner, uint256 numTokens) internal returns(bool) {\n        totalSupply_ = totalSupply_.sub(numTokens);\n        balances[burner] = balances[burner].sub(numTokens);\n        emit Burn(burner, numTokens);\n        return true;\n    }\n\n}",
  "sourcePath": "/Users/billy/sol/BatchedBondingCurves/contracts/BatchBondedToken.sol",
  "compiler": {
    "name": "solc",
    "version": "0.4.24+commit.e67f0147.Emscripten.clang"
  },
  "schemaVersion": "2.0.1",
  "updatedAt": "2019-01-16T17:54:33.805Z"
}