{
  "contractName": "BatchBondedToken",
  "abi": [
    {
      "constant": true,
      "inputs": [],
      "name": "name",
      "outputs": [
        {
          "name": "",
          "type": "string"
        }
      ],
      "payable": false,
      "stateMutability": "view",
      "type": "function"
    },
    {
      "constant": false,
      "inputs": [
        {
          "name": "_spender",
          "type": "address"
        },
        {
          "name": "_value",
          "type": "uint256"
        }
      ],
      "name": "approve",
      "outputs": [
        {
          "name": "",
          "type": "bool"
        }
      ],
      "payable": false,
      "stateMutability": "nonpayable",
      "type": "function"
    },
    {
      "constant": true,
      "inputs": [],
      "name": "reserveRatio",
      "outputs": [
        {
          "name": "",
          "type": "uint32"
        }
      ],
      "payable": false,
      "stateMutability": "view",
      "type": "function"
    },
    {
      "constant": true,
      "inputs": [],
      "name": "totalSupply",
      "outputs": [
        {
          "name": "",
          "type": "uint256"
        }
      ],
      "payable": false,
      "stateMutability": "view",
      "type": "function"
    },
    {
      "constant": false,
      "inputs": [
        {
          "name": "_from",
          "type": "address"
        },
        {
          "name": "_to",
          "type": "address"
        },
        {
          "name": "_value",
          "type": "uint256"
        }
      ],
      "name": "transferFrom",
      "outputs": [
        {
          "name": "",
          "type": "bool"
        }
      ],
      "payable": false,
      "stateMutability": "nonpayable",
      "type": "function"
    },
    {
      "constant": true,
      "inputs": [],
      "name": "virtualSupply",
      "outputs": [
        {
          "name": "",
          "type": "uint256"
        }
      ],
      "payable": false,
      "stateMutability": "view",
      "type": "function"
    },
    {
      "constant": true,
      "inputs": [
        {
          "name": "_supply",
          "type": "uint256"
        },
        {
          "name": "_connectorBalance",
          "type": "uint256"
        },
        {
          "name": "_connectorWeight",
          "type": "uint32"
        },
        {
          "name": "_depositAmount",
          "type": "uint256"
        }
      ],
      "name": "calculatePurchaseReturn",
      "outputs": [
        {
          "name": "",
          "type": "uint256"
        }
      ],
      "payable": false,
      "stateMutability": "view",
      "type": "function"
    },
    {
      "constant": true,
      "inputs": [],
      "name": "decimals",
      "outputs": [
        {
          "name": "",
          "type": "uint8"
        }
      ],
      "payable": false,
      "stateMutability": "view",
      "type": "function"
    },
    {
      "constant": true,
      "inputs": [
        {
          "name": "_supply",
          "type": "uint256"
        },
        {
          "name": "_connectorBalance",
          "type": "uint256"
        },
        {
          "name": "_connectorWeight",
          "type": "uint32"
        },
        {
          "name": "_sellAmount",
          "type": "uint256"
        }
      ],
      "name": "calculateSaleReturn",
      "outputs": [
        {
          "name": "",
          "type": "uint256"
        }
      ],
      "payable": false,
      "stateMutability": "view",
      "type": "function"
    },
    {
      "constant": true,
      "inputs": [],
      "name": "version",
      "outputs": [
        {
          "name": "",
          "type": "string"
        }
      ],
      "payable": false,
      "stateMutability": "view",
      "type": "function"
    },
    {
      "constant": true,
      "inputs": [
        {
          "name": "_fromConnectorBalance",
          "type": "uint256"
        },
        {
          "name": "_fromConnectorWeight",
          "type": "uint32"
        },
        {
          "name": "_toConnectorBalance",
          "type": "uint256"
        },
        {
          "name": "_toConnectorWeight",
          "type": "uint32"
        },
        {
          "name": "_amount",
          "type": "uint256"
        }
      ],
      "name": "calculateCrossConnectorReturn",
      "outputs": [
        {
          "name": "",
          "type": "uint256"
        }
      ],
      "payable": false,
      "stateMutability": "view",
      "type": "function"
    },
    {
      "constant": false,
      "inputs": [
        {
          "name": "_spender",
          "type": "address"
        },
        {
          "name": "_subtractedValue",
          "type": "uint256"
        }
      ],
      "name": "decreaseApproval",
      "outputs": [
        {
          "name": "",
          "type": "bool"
        }
      ],
      "payable": false,
      "stateMutability": "nonpayable",
      "type": "function"
    },
    {
      "constant": true,
      "inputs": [],
      "name": "waitingClear",
      "outputs": [
        {
          "name": "",
          "type": "uint256"
        }
      ],
      "payable": false,
      "stateMutability": "view",
      "type": "function"
    },
    {
      "constant": true,
      "inputs": [],
      "name": "ppm",
      "outputs": [
        {
          "name": "",
          "type": "uint32"
        }
      ],
      "payable": false,
      "stateMutability": "view",
      "type": "function"
    },
    {
      "constant": true,
      "inputs": [
        {
          "name": "_owner",
          "type": "address"
        }
      ],
      "name": "balanceOf",
      "outputs": [
        {
          "name": "",
          "type": "uint256"
        }
      ],
      "payable": false,
      "stateMutability": "view",
      "type": "function"
    },
    {
      "constant": true,
      "inputs": [],
      "name": "symbol",
      "outputs": [
        {
          "name": "",
          "type": "string"
        }
      ],
      "payable": false,
      "stateMutability": "view",
      "type": "function"
    },
    {
      "constant": true,
      "inputs": [],
      "name": "poolBalance",
      "outputs": [
        {
          "name": "",
          "type": "uint256"
        }
      ],
      "payable": false,
      "stateMutability": "view",
      "type": "function"
    },
    {
      "constant": false,
      "inputs": [
        {
          "name": "_to",
          "type": "address"
        },
        {
          "name": "_value",
          "type": "uint256"
        }
      ],
      "name": "transfer",
      "outputs": [
        {
          "name": "",
          "type": "bool"
        }
      ],
      "payable": false,
      "stateMutability": "nonpayable",
      "type": "function"
    },
    {
      "constant": true,
      "inputs": [
        {
          "name": "",
          "type": "uint256"
        }
      ],
      "name": "batches",
      "outputs": [
        {
          "name": "init",
          "type": "bool"
        },
        {
          "name": "buysCleared",
          "type": "bool"
        },
        {
          "name": "sellsCleared",
          "type": "bool"
        },
        {
          "name": "cleared",
          "type": "bool"
        },
        {
          "name": "poolBalance",
          "type": "uint256"
        },
        {
          "name": "totalSupply",
          "type": "uint256"
        },
        {
          "name": "totalBuySpend",
          "type": "uint256"
        },
        {
          "name": "totalBuyReturn",
          "type": "uint256"
        },
        {
          "name": "totalSellSpend",
          "type": "uint256"
        },
        {
          "name": "totalSellReturn",
          "type": "uint256"
        }
      ],
      "payable": false,
      "stateMutability": "view",
      "type": "function"
    },
    {
      "constant": true,
      "inputs": [
        {
          "name": "",
          "type": "address"
        },
        {
          "name": "",
          "type": "uint256"
        }
      ],
      "name": "addressToBlocks",
      "outputs": [
        {
          "name": "",
          "type": "uint256"
        }
      ],
      "payable": false,
      "stateMutability": "view",
      "type": "function"
    },
    {
      "constant": true,
      "inputs": [],
      "name": "batchBlocks",
      "outputs": [
        {
          "name": "",
          "type": "uint256"
        }
      ],
      "payable": false,
      "stateMutability": "view",
      "type": "function"
    },
    {
      "constant": false,
      "inputs": [
        {
          "name": "_spender",
          "type": "address"
        },
        {
          "name": "_addedValue",
          "type": "uint256"
        }
      ],
      "name": "increaseApproval",
      "outputs": [
        {
          "name": "",
          "type": "bool"
        }
      ],
      "payable": false,
      "stateMutability": "nonpayable",
      "type": "function"
    },
    {
      "constant": true,
      "inputs": [],
      "name": "virtualBalance",
      "outputs": [
        {
          "name": "",
          "type": "uint256"
        }
      ],
      "payable": false,
      "stateMutability": "view",
      "type": "function"
    },
    {
      "constant": true,
      "inputs": [
        {
          "name": "_owner",
          "type": "address"
        },
        {
          "name": "_spender",
          "type": "address"
        }
      ],
      "name": "allowance",
      "outputs": [
        {
          "name": "",
          "type": "uint256"
        }
      ],
      "payable": false,
      "stateMutability": "view",
      "type": "function"
    },
    {
      "inputs": [
        {
          "name": "_name",
          "type": "string"
        },
        {
          "name": "_symbol",
          "type": "string"
        },
        {
          "name": "_decimals",
          "type": "uint8"
        },
        {
          "name": "_batchBlocks",
          "type": "uint256"
        },
        {
          "name": "_reserveRatio",
          "type": "uint32"
        },
        {
          "name": "_virtualSupply",
          "type": "uint256"
        },
        {
          "name": "_virtualBalance",
          "type": "uint256"
        }
      ],
      "payable": false,
      "stateMutability": "nonpayable",
      "type": "constructor"
    },
    {
      "payable": true,
      "stateMutability": "payable",
      "type": "fallback"
    },
    {
      "anonymous": false,
      "inputs": [
        {
          "indexed": true,
          "name": "to",
          "type": "address"
        },
        {
          "indexed": false,
          "name": "amount",
          "type": "uint256"
        }
      ],
      "name": "Mint",
      "type": "event"
    },
    {
      "anonymous": false,
      "inputs": [
        {
          "indexed": true,
          "name": "burner",
          "type": "address"
        },
        {
          "indexed": false,
          "name": "amount",
          "type": "uint256"
        }
      ],
      "name": "Burn",
      "type": "event"
    },
    {
      "anonymous": false,
      "inputs": [
        {
          "indexed": true,
          "name": "to",
          "type": "address"
        },
        {
          "indexed": false,
          "name": "poolBalance",
          "type": "uint256"
        },
        {
          "indexed": false,
          "name": "tokenSupply",
          "type": "uint256"
        },
        {
          "indexed": false,
          "name": "amountTokens",
          "type": "uint256"
        },
        {
          "indexed": false,
          "name": "totalCostEth",
          "type": "uint256"
        }
      ],
      "name": "Buy",
      "type": "event"
    },
    {
      "anonymous": false,
      "inputs": [
        {
          "indexed": true,
          "name": "from",
          "type": "address"
        },
        {
          "indexed": false,
          "name": "poolBalance",
          "type": "uint256"
        },
        {
          "indexed": false,
          "name": "tokenSupply",
          "type": "uint256"
        },
        {
          "indexed": false,
          "name": "amountTokens",
          "type": "uint256"
        },
        {
          "indexed": false,
          "name": "returnedEth",
          "type": "uint256"
        }
      ],
      "name": "Sell",
      "type": "event"
    },
    {
      "anonymous": false,
      "inputs": [
        {
          "indexed": true,
          "name": "owner",
          "type": "address"
        },
        {
          "indexed": true,
          "name": "spender",
          "type": "address"
        },
        {
          "indexed": false,
          "name": "value",
          "type": "uint256"
        }
      ],
      "name": "Approval",
      "type": "event"
    },
    {
      "anonymous": false,
      "inputs": [
        {
          "indexed": true,
          "name": "from",
          "type": "address"
        },
        {
          "indexed": true,
          "name": "to",
          "type": "address"
        },
        {
          "indexed": false,
          "name": "value",
          "type": "uint256"
        }
      ],
      "name": "Transfer",
      "type": "event"
    },
    {
      "constant": true,
      "inputs": [],
      "name": "currentBatch",
      "outputs": [
        {
          "name": "cb",
          "type": "uint256"
        }
      ],
      "payable": false,
      "stateMutability": "view",
      "type": "function"
    },
    {
      "constant": true,
      "inputs": [
        {
          "name": "buyerSeller",
          "type": "address"
        }
      ],
      "name": "getBuySellBlocks",
      "outputs": [
        {
          "name": "",
          "type": "uint256[]"
        }
      ],
      "payable": false,
      "stateMutability": "view",
      "type": "function"
    },
    {
      "constant": true,
      "inputs": [
        {
          "name": "buyerSeller",
          "type": "address"
        },
        {
          "name": "index",
          "type": "uint256"
        }
      ],
      "name": "getBuySellBlocksByIndex",
      "outputs": [
        {
          "name": "",
          "type": "uint256"
        }
      ],
      "payable": false,
      "stateMutability": "view",
      "type": "function"
    },
    {
      "constant": true,
      "inputs": [
        {
          "name": "_totalSupply",
          "type": "uint256"
        },
        {
          "name": "_poolBalance",
          "type": "uint256"
        },
        {
          "name": "buyValue",
          "type": "uint256"
        }
      ],
      "name": "getBuy",
      "outputs": [
        {
          "name": "",
          "type": "uint256"
        }
      ],
      "payable": false,
      "stateMutability": "view",
      "type": "function"
    },
    {
      "constant": true,
      "inputs": [
        {
          "name": "_totalSupply",
          "type": "uint256"
        },
        {
          "name": "_poolBalance",
          "type": "uint256"
        },
        {
          "name": "sellAmount",
          "type": "uint256"
        }
      ],
      "name": "getSell",
      "outputs": [
        {
          "name": "",
          "type": "uint256"
        }
      ],
      "payable": false,
      "stateMutability": "view",
      "type": "function"
    },
    {
      "constant": false,
      "inputs": [
        {
          "name": "sender",
          "type": "address"
        }
      ],
      "name": "addBuy",
      "outputs": [
        {
          "name": "",
          "type": "bool"
        }
      ],
      "payable": true,
      "stateMutability": "payable",
      "type": "function"
    },
    {
      "constant": false,
      "inputs": [
        {
          "name": "amount",
          "type": "uint256"
        }
      ],
      "name": "addSell",
      "outputs": [
        {
          "name": "",
          "type": "bool"
        }
      ],
      "payable": false,
      "stateMutability": "nonpayable",
      "type": "function"
    },
    {
      "constant": false,
      "inputs": [],
      "name": "clearBatch",
      "outputs": [],
      "payable": false,
      "stateMutability": "nonpayable",
      "type": "function"
    },
    {
      "constant": false,
      "inputs": [
        {
          "name": "batch",
          "type": "uint256"
        },
        {
          "name": "sender",
          "type": "address"
        }
      ],
      "name": "claimSell",
      "outputs": [],
      "payable": false,
      "stateMutability": "nonpayable",
      "type": "function"
    },
    {
      "constant": false,
      "inputs": [
        {
          "name": "batch",
          "type": "uint256"
        },
        {
          "name": "sender",
          "type": "address"
        }
      ],
      "name": "claimBuy",
      "outputs": [],
      "payable": false,
      "stateMutability": "nonpayable",
      "type": "function"
    }
  ],
  "bytecode": "0x60806040526040805190810160405280600381526020017f302e330000000000000000000000000000000000000000000000000000000000815250600390805190602001906200005192919062001067565b50620f4240608660056101000a81548163ffffffff021916908363ffffffff1602179055503480156200008357600080fd5b506040516200557a3803806200557a83398101806040528101908080518201929190602001805182019291906020018051906020019092919080519060200190929190805190602001909291908051906020019092919080519060200190929190505050701c35fedd14ffffffffffffffffffffffff600460206080811015156200010a57fe5b0181905550701b0ce43b323fffffffffffffffffffffff600460216080811015156200013257fe5b01819055507019f0028ec1ffffffffffffffffffffffff600460226080811015156200015a57fe5b01819055507018ded91f0e7fffffffffffffffffffffff600460236080811015156200018257fe5b01819055507017d8ec7f0417ffffffffffffffffffffff60046024608081101515620001aa57fe5b01819055507016ddc6556cdbffffffffffffffffffffff60046025608081101515620001d257fe5b01819055507015ecf52776a1ffffffffffffffffffffff60046026608081101515620001fa57fe5b01819055507015060c256cb2ffffffffffffffffffffff600460276080811015156200022257fe5b0181905550701428a2f98d72ffffffffffffffffffffff600460286080811015156200024a57fe5b01819055507013545598e5c23fffffffffffffffffffff600460296080811015156200027257fe5b0181905550701288c4161ce1dfffffffffffffffffffff6004602a6080811015156200029a57fe5b01819055507011c592761c666fffffffffffffffffffff6004602b608081101515620002c257fe5b018190555070110a688680a757ffffffffffffffffffff6004602c608081101515620002ea57fe5b0181905550701056f1b5bedf77ffffffffffffffffffff6004602d6080811015156200031257fe5b0181905550700faadceceeff8bffffffffffffffffffff6004602e6080811015156200033a57fe5b0181905550700f05dc6b27edadffffffffffffffffffff6004602f6080811015156200036257fe5b0181905550700e67a5a25da4107fffffffffffffffffff600460306080811015156200038a57fe5b0181905550700dcff115b14eedffffffffffffffffffff60046031608081101515620003b257fe5b0181905550700d3e7a392431239fffffffffffffffffff60046032608081101515620003da57fe5b0181905550700cb2ff529eb71e4fffffffffffffffffff600460336080811015156200040257fe5b0181905550700c2d415c3db974afffffffffffffffffff600460346080811015156200042a57fe5b0181905550700bad03e7d883f69bffffffffffffffffff600460356080811015156200045257fe5b0181905550700b320d03b2c343d5ffffffffffffffffff600460366080811015156200047a57fe5b0181905550700abc25204e02828dffffffffffffffffff60046037608081101515620004a257fe5b0181905550700a4b16f74ee4bb207fffffffffffffffff60046038608081101515620004ca57fe5b01819055507009deaf736ac1f569ffffffffffffffffff60046039608081101515620004f257fe5b0181905550700976bd9952c7aa957fffffffffffffffff6004603a6080811015156200051a57fe5b01819055507009131271922eaa606fffffffffffffffff6004603b6080811015156200054257fe5b01819055507008b380f3558668c46fffffffffffffffff6004603c6080811015156200056a57fe5b0181905550700857ddf0117efa215bffffffffffffffff6004603d6080811015156200059257fe5b01819055507007ffffffffffffffffffffffffffffffff6004603e608081101515620005ba57fe5b01819055507007abbf6f6abb9d087fffffffffffffffff6004603f608081101515620005e257fe5b018190555070075af62cbac95f7dfa7fffffffffffffff600460406080811015156200060a57fe5b018190555070070d7fb7452e187ac13fffffffffffffff600460416080811015156200063257fe5b01819055507006c3390ecc8af379295fffffffffffffff600460426080811015156200065a57fe5b018190555070067c00a3b07ffc01fd6fffffffffffffff600460436080811015156200068257fe5b0181905550700637b647c39cbb9d3d27ffffffffffffff60046044608081101515620006aa57fe5b01819055507005f63b1fc104dbd39587ffffffffffffff60046045608081101515620006d257fe5b01819055507005b771955b36e12f7235ffffffffffffff60046046608081101515620006fa57fe5b018190555070057b3d49dda84556d6f6ffffffffffffff600460476080811015156200072257fe5b018190555070054183095b2c8ececf30ffffffffffffff600460486080811015156200074a57fe5b018190555070050a28be635ca2b888f77fffffffffffff600460496080811015156200077257fe5b01819055507004d5156639708c9db33c3fffffffffffff6004604a6080811015156200079a57fe5b01819055507004a23105873875bd52dfdfffffffffffff6004604b608081101515620007c257fe5b0181905550700471649d87199aa990756fffffffffffff6004604c608081101515620007ea57fe5b01819055507004429a21a029d4c1457cfbffffffffffff6004604d6080811015156200081257fe5b0181905550700415bc6d6fb7dd71af2cb3ffffffffffff6004604e6080811015156200083a57fe5b01819055507003eab73b3bbfe282243ce1ffffffffffff6004604f6080811015156200086257fe5b01819055507003c1771ac9fb6b4c18e229ffffffffffff600460506080811015156200088a57fe5b0181905550700399e96897690418f785257fffffffffff60046051608081101515620008b257fe5b0181905550700373fc456c53bb779bf0ea9fffffffffff60046052608081101515620008da57fe5b018190555070034f9e8e490c48e67e6ab8bfffffffffff600460536080811015156200090257fe5b018190555070032cbfd4a7adc790560b3337ffffffffff600460546080811015156200092a57fe5b018190555070030b50570f6e5d2acca94613ffffffffff600460556080811015156200095257fe5b01819055507002eb40f9f620fda6b56c2861ffffffffff600460566080811015156200097a57fe5b01819055507002cc8340ecb0d0f520a6af58ffffffffff60046057608081101515620009a257fe5b01819055507002af09481380a0a35cf1ba02ffffffffff60046058608081101515620009ca57fe5b0181905550700292c5bdd3b92ec810287b1b3fffffffff60046059608081101515620009f257fe5b0181905550700277abdcdab07d5a77ac6d6b9fffffffff6004605a60808110151562000a1a57fe5b018190555070025daf6654b1eaa55fd64df5efffffffff6004605b60808110151562000a4257fe5b0181905550700244c49c648baa98192dce88b7ffffffff6004605c60808110151562000a6a57fe5b018190555070022ce03cd5619a311b2471268bffffffff6004605d60808110151562000a9257fe5b0181905550700215f77c045fbe885654a44a0fffffffff6004605e60808110151562000aba57fe5b01819055507001ffffffffffffffffffffffffffffffff6004605f60808110151562000ae257fe5b01819055507001eaefdbdaaee7421fc4d3ede5ffffffff6004606060808110151562000b0a57fe5b01819055507001d6bd8b2eb257df7e8ca57b09bfffffff6004606160808110151562000b3257fe5b01819055507001c35fedd14b861eb0443f7f133fffffff6004606260808110151562000b5a57fe5b01819055507001b0ce43b322bcde4a56e8ada5afffffff6004606360808110151562000b8257fe5b018190555070019f0028ec1fff007f5a195a39dfffffff6004606460808110151562000baa57fe5b018190555070018ded91f0e72ee74f49b15ba527ffffff6004606560808110151562000bd257fe5b018190555070017d8ec7f04136f4e5615fd41a63ffffff6004606660808110151562000bfa57fe5b018190555070016ddc6556cdb84bdc8d12d22e6fffffff6004606760808110151562000c2257fe5b018190555070015ecf52776a1155b5bd8395814f7fffff6004606860808110151562000c4a57fe5b018190555070015060c256cb23b3b3cc3754cf40ffffff6004606960808110151562000c7257fe5b01819055507001428a2f98d728ae223ddab715be3fffff6004606a60808110151562000c9a57fe5b018190555070013545598e5c23276ccf0ede68034fffff6004606b60808110151562000cc257fe5b01819055507001288c4161ce1d6f54b7f61081194fffff6004606c60808110151562000cea57fe5b018190555070011c592761c666aa641d5a01a40f17ffff6004606d60808110151562000d1257fe5b0181905550700110a688680a7530515f3e6e6cfdcdffff6004606e60808110151562000d3a57fe5b01819055507001056f1b5bedf75c6bcb2ce8aed428ffff6004606f60808110151562000d6257fe5b01819055506ffaadceceeff8a0890f3875f008277fff6004607060808110151562000d8957fe5b01819055506ff05dc6b27edad306388a600f6ba0bfff6004607160808110151562000db057fe5b01819055506fe67a5a25da41063de1495d5b18cdbfff6004607260808110151562000dd757fe5b01819055506fdcff115b14eedde6fc3aa5353f2e4fff6004607360808110151562000dfe57fe5b01819055506fd3e7a3924312399f9aae2e0f868f8fff6004607460808110151562000e2557fe5b01819055506fcb2ff529eb71e41582cccd5a1ee26fff6004607560808110151562000e4c57fe5b01819055506fc2d415c3db974ab32a51840c0b67edff6004607660808110151562000e7357fe5b01819055506fbad03e7d883f69ad5b0a186184e06bff6004607760808110151562000e9a57fe5b01819055506fb320d03b2c343d4829abd6075f0cc5ff6004607860808110151562000ec157fe5b01819055506fabc25204e02828d73c6e80bcdb1a95bf6004607960808110151562000ee857fe5b01819055506fa4b16f74ee4bb2040a1ec6c15fbbf2df6004607a60808110151562000f0f57fe5b01819055506f9deaf736ac1f569deb1b5ae3f36c130f6004607b60808110151562000f3657fe5b01819055506f976bd9952c7aa957f5937d790ef650376004607c60808110151562000f5d57fe5b01819055506f9131271922eaa6064b73a22d0bd4f2bf6004607d60808110151562000f8457fe5b01819055506f8b380f3558668c46c91c49a2f8e967b96004607e60808110151562000fab57fe5b01819055506f857ddf0117efa215952912839f6473e66004607f60808110151562000fd257fe5b0181905550866084908051906020019062000fef92919062001067565b5085608590805190602001906200100892919062001067565b5084608660006101000a81548160ff021916908360ff16021790555083608b8190555082608660016101000a81548163ffffffff021916908363ffffffff16021790555081608781905550806088819055505050505050505062001116565b828054600181600116156101000203166002900490600052602060002090601f016020900481019282601f10620010aa57805160ff1916838001178555620010db565b82800160010185558215620010db579182015b82811115620010da578251825591602001919060010190620010bd565b5b509050620010ea9190620010ee565b5090565b6200111391905b808211156200110f576000816000905550600101620010f5565b5090565b90565b61445480620011266000396000f3006080604052600436106101ac576000357c0100000000000000000000000000000000000000000000000000000000900463ffffffff16806306fdde03146101ae578063095ea7b31461023e5780630c7d5cd8146102a357806318160ddd146102da57806323b872dd14610305578063245a355a1461038a5780632739888f146103a1578063277b2f97146103ee57806329a00e7c14610419578063313ce5671461047e578063428ff014146104af5780634365209c146104fd57806349f9b0f71461059557806354fd4d50146105fa5780635c0eceeb1461068a57806365098bb3146106d7578063661884631461074c5780636c22b13f146107b15780636eea662c146107dc57806370a082311461081357806376cd940e1461086a5780637abc91a41461089557806395d89b41146108ea57806396365d441461097a578063a9059cbb146109a5578063b32c4d8d14610a0a578063c1de5d8b14610a9a578063c56f0f6c14610afb578063d5b1427e14610b26578063d73dd62314610b87578063dcd2af1714610bec578063dd62ed3e14610c17578063e5cb193414610c8e578063e83b8caa14610cd3575b005b3480156101ba57600080fd5b506101c3610d28565b6040518080602001828103825283818151815260200191508051906020019080838360005b838110156102035780820151818401526020810190506101e8565b50505050905090810190601f1680156102305780820380516001836020036101000a031916815260200191505b509250505060405180910390f35b34801561024a57600080fd5b50610289600480360381019080803573ffffffffffffffffffffffffffffffffffffffff16906020019092919080359060200190929190505050610dc6565b604051808215151515815260200191505060405180910390f35b3480156102af57600080fd5b506102b8610eb8565b604051808263ffffffff1663ffffffff16815260200191505060405180910390f35b3480156102e657600080fd5b506102ef610ece565b6040518082815260200191505060405180910390f35b34801561031157600080fd5b50610370600480360381019080803573ffffffffffffffffffffffffffffffffffffffff169060200190929190803573ffffffffffffffffffffffffffffffffffffffff16906020019092919080359060200190929190505050610ed8565b604051808215151515815260200191505060405180910390f35b34801561039657600080fd5b5061039f611292565b005b3480156103ad57600080fd5b506103ec60048036038101908080359060200190929190803573ffffffffffffffffffffffffffffffffffffffff1690602001909291905050506113c2565b005b3480156103fa57600080fd5b50610403611644565b6040518082815260200191505060405180910390f35b34801561042557600080fd5b506104686004803603810190808035906020019092919080359060200190929190803563ffffffff1690602001909291908035906020019092919050505061164a565b6040518082815260200191505060405180910390f35b34801561048a57600080fd5b50610493611729565b604051808260ff1660ff16815260200191505060405180910390f35b6104e3600480360381019080803573ffffffffffffffffffffffffffffffffffffffff16906020019092919050505061173c565b604051808215151515815260200191505060405180910390f35b34801561050957600080fd5b5061053e600480360381019080803573ffffffffffffffffffffffffffffffffffffffff1690602001909291905050506118f9565b6040518080602001828103825283818151815260200191508051906020019060200280838360005b83811015610581578082015181840152602081019050610566565b505050509050019250505060405180910390f35b3480156105a157600080fd5b506105e46004803603810190808035906020019092919080359060200190929190803563ffffffff16906020019092919080359060200190929190505050611990565b6040518082815260200191505060405180910390f35b34801561060657600080fd5b5061060f611a94565b6040518080602001828103825283818151815260200191508051906020019080838360005b8381101561064f578082015181840152602081019050610634565b50505050905090810190601f16801561067c5780820380516001836020036101000a031916815260200191505b509250505060405180910390f35b34801561069657600080fd5b506106d560048036038101908080359060200190929190803573ffffffffffffffffffffffffffffffffffffffff169060200190929190505050611b32565b005b3480156106e357600080fd5b5061073660048036038101908080359060200190929190803563ffffffff16906020019092919080359060200190929190803563ffffffff16906020019092919080359060200190929190505050611e69565b6040518082815260200191505060405180910390f35b34801561075857600080fd5b50610797600480360381019080803573ffffffffffffffffffffffffffffffffffffffff16906020019092919080359060200190929190505050611f77565b604051808215151515815260200191505060405180910390f35b3480156107bd57600080fd5b506107c6612208565b6040518082815260200191505060405180910390f35b3480156107e857600080fd5b506107f161220e565b604051808263ffffffff1663ffffffff16815260200191505060405180910390f35b34801561081f57600080fd5b50610854600480360381019080803573ffffffffffffffffffffffffffffffffffffffff169060200190929190505050612224565b6040518082815260200191505060405180910390f35b34801561087657600080fd5b5061087f61226c565b6040518082815260200191505060405180910390f35b3480156108a157600080fd5b506108d4600480360381019080803590602001909291908035906020019092919080359060200190929190505050612285565b6040518082815260200191505060405180910390f35b3480156108f657600080fd5b506108ff6122c4565b6040518080602001828103825283818151815260200191508051906020019080838360005b8381101561093f578082015181840152602081019050610924565b50505050905090810190601f16801561096c5780820380516001836020036101000a031916815260200191505b509250505060405180910390f35b34801561098657600080fd5b5061098f612362565b6040518082815260200191505060405180910390f35b3480156109b157600080fd5b506109f0600480360381019080803573ffffffffffffffffffffffffffffffffffffffff16906020019092919080359060200190929190505050612368565b604051808215151515815260200191505060405180910390f35b348015610a1657600080fd5b50610a3560048036038101908080359060200190929190505050612587565b604051808b1515151581526020018a15151515815260200189151515158152602001881515151581526020018781526020018681526020018581526020018481526020018381526020018281526020019a505050505050505050505060405180910390f35b348015610aa657600080fd5b50610ae5600480360381019080803573ffffffffffffffffffffffffffffffffffffffff1690602001909291908035906020019092919050505061260f565b6040518082815260200191505060405180910390f35b348015610b0757600080fd5b50610b1061263f565b6040518082815260200191505060405180910390f35b348015610b3257600080fd5b50610b71600480360381019080803573ffffffffffffffffffffffffffffffffffffffff16906020019092919080359060200190929190505050612645565b6040518082815260200191505060405180910390f35b348015610b9357600080fd5b50610bd2600480360381019080803573ffffffffffffffffffffffffffffffffffffffff169060200190929190803590602001909291905050506126a6565b604051808215151515815260200191505060405180910390f35b348015610bf857600080fd5b50610c016128a2565b6040518082815260200191505060405180910390f35b348015610c2357600080fd5b50610c78600480360381019080803573ffffffffffffffffffffffffffffffffffffffff169060200190929190803573ffffffffffffffffffffffffffffffffffffffff1690602001909291905050506128a8565b6040518082815260200191505060405180910390f35b348015610c9a57600080fd5b50610cb96004803603810190808035906020019092919050505061292f565b604051808215151515815260200191505060405180910390f35b348015610cdf57600080fd5b50610d12600480360381019080803590602001909291908035906020019092919080359060200190929190505050612bea565b6040518082815260200191505060405180910390f35b60848054600181600116156101000203166002900480601f016020809104026020016040519081016040528092919081815260200182805460018160011615610100020316600290048015610dbe5780601f10610d9357610100808354040283529160200191610dbe565b820191906000526020600020905b815481529060010190602001808311610da157829003601f168201915b505050505081565b600081600260003373ffffffffffffffffffffffffffffffffffffffff1673ffffffffffffffffffffffffffffffffffffffff16815260200190815260200160002060008573ffffffffffffffffffffffffffffffffffffffff1673ffffffffffffffffffffffffffffffffffffffff168152602001908152602001600020819055508273ffffffffffffffffffffffffffffffffffffffff163373ffffffffffffffffffffffffffffffffffffffff167f8c5be1e5ebec7d5bd14f71427d1e84f3dd0314c0f7b2291e5b200ac8c7c3b925846040518082815260200191505060405180910390a36001905092915050565b608660019054906101000a900463ffffffff1681565b6000600154905090565b60008073ffffffffffffffffffffffffffffffffffffffff168373ffffffffffffffffffffffffffffffffffffffff1614151515610f1557600080fd5b6000808573ffffffffffffffffffffffffffffffffffffffff1673ffffffffffffffffffffffffffffffffffffffff168152602001908152602001600020548211151515610f6257600080fd5b600260008573ffffffffffffffffffffffffffffffffffffffff1673ffffffffffffffffffffffffffffffffffffffff16815260200190815260200160002060003373ffffffffffffffffffffffffffffffffffffffff1673ffffffffffffffffffffffffffffffffffffffff168152602001908152602001600020548211151515610fed57600080fd5b61103e826000808773ffffffffffffffffffffffffffffffffffffffff1673ffffffffffffffffffffffffffffffffffffffff16815260200190815260200160002054612c2990919063ffffffff16565b6000808673ffffffffffffffffffffffffffffffffffffffff1673ffffffffffffffffffffffffffffffffffffffff168152602001908152602001600020819055506110d1826000808673ffffffffffffffffffffffffffffffffffffffff1673ffffffffffffffffffffffffffffffffffffffff16815260200190815260200160002054612c4290919063ffffffff16565b6000808573ffffffffffffffffffffffffffffffffffffffff1673ffffffffffffffffffffffffffffffffffffffff168152602001908152602001600020819055506111a282600260008773ffffffffffffffffffffffffffffffffffffffff1673ffffffffffffffffffffffffffffffffffffffff16815260200190815260200160002060003373ffffffffffffffffffffffffffffffffffffffff1673ffffffffffffffffffffffffffffffffffffffff16815260200190815260200160002054612c2990919063ffffffff16565b600260008673ffffffffffffffffffffffffffffffffffffffff1673ffffffffffffffffffffffffffffffffffffffff16815260200190815260200160002060003373ffffffffffffffffffffffffffffffffffffffff1673ffffffffffffffffffffffffffffffffffffffff168152602001908152602001600020819055508273ffffffffffffffffffffffffffffffffffffffff168473ffffffffffffffffffffffffffffffffffffffff167fddf252ad1be2c89b69c2b068fc378daa952ba7f163c4a11628f55a4df523b3ef846040518082815260200191505060405180910390a3600190509392505050565b600080608a5414156112a3576113bf565b608c6000608a54815260200190815260200160002090508060000160039054906101000a900460ff16156112d6576113bf565b6112de612c5e565b6112e6612d14565b80600101546089819055506112ff308260040154612dcb565b1515611399576040517f08c379a000000000000000000000000000000000000000000000000000000000815260040180806020018281038252603f8152602001807f6d696e74696e67206e657720746f6b656e7320746f2062652068656c6420756e81526020017f74696c2062757965727320636f6c6c656374206d75737420737563636565640081525060400191505060405180910390fd5b60018160000160036101000a81548160ff0219169083151502179055506000608a819055505b50565b600080608c600085815260200190815260200160002091508160000160039054906101000a900460ff161515611486576040517f08c379a00000000000000000000000000000000000000000000000000000000081526004018080602001828103825260278152602001807f63616e277420636c61696d20612062617463682074686174206861736e27742081526020017f636c65617265640000000000000000000000000000000000000000000000000081525060400191505060405180910390fd5b60008260080160008573ffffffffffffffffffffffffffffffffffffffff1673ffffffffffffffffffffffffffffffffffffffff1681526020019081526020016000205414151515611540576040517f08c379a00000000000000000000000000000000000000000000000000000000081526004018080602001828103825260198152602001807f616c726561647920636c61696d656420746869732073656c6c0000000000000081525060200191505060405180910390fd5b6115ae82600501546115a08460080160008773ffffffffffffffffffffffffffffffffffffffff1673ffffffffffffffffffffffffffffffffffffffff168152602001908152602001600020548560060154612ed390919063ffffffff16565b612f0b90919063ffffffff16565b905060008260080160008573ffffffffffffffffffffffffffffffffffffffff1673ffffffffffffffffffffffffffffffffffffffff168152602001908152602001600020819055508273ffffffffffffffffffffffffffffffffffffffff166108fc829081150290604051600060405180830381858888f1935050505015801561163d573d6000803e3d6000fd5b5050505050565b60875481565b600080600080600080891180156116615750600088115b8015611673575060008763ffffffff16115b801561168e5750620f424063ffffffff168763ffffffff1611155b151561169957600080fd5b60008614156116ab576000945061171d565b620f424063ffffffff168763ffffffff1614156116de57876116cd8a88612f21565b8115156116d657fe5b04945061171d565b6116e88689612f54565b91506116f9828989620f4240612f72565b80945081955050508260ff1661170f8a86612f21565b9060020a9004905088810394505b50505050949350505050565b608660009054906101000a900460ff1681565b600080600061174961226c565b9150608c600083815260200190815260200160002090508060000160009054906101000a900460ff161515611782576117818261306d565b5b611799348260030154612c4290919063ffffffff16565b816003018190555060008160070160008673ffffffffffffffffffffffffffffffffffffffff1673ffffffffffffffffffffffffffffffffffffffff16815260200190815260200160002054141561185557608d60008573ffffffffffffffffffffffffffffffffffffffff1673ffffffffffffffffffffffffffffffffffffffff1681526020019081526020016000208290806001815401808255809150509060018203906000526020600020016000909192909190915055505b6118a9348260070160008773ffffffffffffffffffffffffffffffffffffffff1673ffffffffffffffffffffffffffffffffffffffff16815260200190815260200160002054612c4290919063ffffffff16565b8160070160008673ffffffffffffffffffffffffffffffffffffffff1673ffffffffffffffffffffffffffffffffffffffff16815260200190815260200160002081905550600192505050919050565b6060608d60008373ffffffffffffffffffffffffffffffffffffffff1673ffffffffffffffffffffffffffffffffffffffff16815260200190815260200160002080548060200260200160405190810160405280929190818152602001828054801561198457602002820191906000526020600020905b815481526020019060010190808311611970575b50505050509050919050565b60008060008060008060008a1180156119a95750600089115b80156119bb575060008863ffffffff16115b80156119d65750620f424063ffffffff168863ffffffff1611155b80156119e25750898711155b15156119ed57600080fd5b60008714156119ff5760009550611a87565b89871415611a0f57889550611a87565b620f424063ffffffff168863ffffffff161415611a425789611a318a89612f21565b811515611a3a57fe5b049550611a87565b868a039250611a568a84620f42408b612f72565b8095508196505050611a688986612f21565b91508360ff16899060020a02905084818303811515611a8357fe5b0495505b5050505050949350505050565b60038054600181600116156101000203166002900480601f016020809104026020016040519081016040528092919081815260200182805460018160011615610100020316600290048015611b2a5780601f10611aff57610100808354040283529160200191611b2a565b820191906000526020600020905b815481529060010190602001808311611b0d57829003601f168201915b505050505081565b600080608c600085815260200190815260200160002091508160000160039054906101000a900460ff161515611bf6576040517f08c379a00000000000000000000000000000000000000000000000000000000081526004018080602001828103825260278152602001807f63616e277420636c61696d20612062617463682074686174206861736e27742081526020017f636c65617265640000000000000000000000000000000000000000000000000081525060400191505060405180910390fd5b60008260070160008573ffffffffffffffffffffffffffffffffffffffff1673ffffffffffffffffffffffffffffffffffffffff1681526020019081526020016000205414151515611cb0576040517f08c379a00000000000000000000000000000000000000000000000000000000081526004018080602001828103825260188152602001807f616c726561647920636c61696d6564207468697320627579000000000000000081525060200191505060405180910390fd5b611d1e8260030154611d1084600401548560070160008873ffffffffffffffffffffffffffffffffffffffff1673ffffffffffffffffffffffffffffffffffffffff16815260200190815260200160002054612ed390919063ffffffff16565b612f0b90919063ffffffff16565b905060008260070160008573ffffffffffffffffffffffffffffffffffffffff1673ffffffffffffffffffffffffffffffffffffffff16815260200190815260200160002081905550611d7130826130e8565b1515611de5576040517f08c379a00000000000000000000000000000000000000000000000000000000081526004018080602001828103825260208152602001807f6275726e206d757374207375636365656420746f20636c6f736520636c61696d81525060200191505060405180910390fd5b611def8382612dcb565b1515611e63576040517f08c379a00000000000000000000000000000000000000000000000000000000081526004018080602001828103825260208152602001807f6d696e74206d757374207375636365656420746f20636c6f736520636c61696d81525060200191505060405180910390fd5b50505050565b60008060008060008060008b118015611e88575060008a63ffffffff16115b8015611ea35750620f424063ffffffff168a63ffffffff1611155b8015611eaf5750600089115b8015611ec1575060008863ffffffff16115b8015611edc5750620f424063ffffffff168863ffffffff1611155b1515611ee757600080fd5b8763ffffffff168a63ffffffff161415611f2057611f058b88612f54565b611f0f8a89612f21565b811515611f1857fe5b049550611f69565b611f2a8b88612f54565b9250611f38838c8c8b612f72565b8095508196505050611f4a8986612f21565b91508360ff16899060020a02905084818303811515611f6557fe5b0495505b505050505095945050505050565b600080600260003373ffffffffffffffffffffffffffffffffffffffff1673ffffffffffffffffffffffffffffffffffffffff16815260200190815260200160002060008573ffffffffffffffffffffffffffffffffffffffff1673ffffffffffffffffffffffffffffffffffffffff16815260200190815260200160002054905080831115612088576000600260003373ffffffffffffffffffffffffffffffffffffffff1673ffffffffffffffffffffffffffffffffffffffff16815260200190815260200160002060008673ffffffffffffffffffffffffffffffffffffffff1673ffffffffffffffffffffffffffffffffffffffff1681526020019081526020016000208190555061211c565b61209b8382612c2990919063ffffffff16565b600260003373ffffffffffffffffffffffffffffffffffffffff1673ffffffffffffffffffffffffffffffffffffffff16815260200190815260200160002060008673ffffffffffffffffffffffffffffffffffffffff1673ffffffffffffffffffffffffffffffffffffffff168152602001908152602001600020819055505b8373ffffffffffffffffffffffffffffffffffffffff163373ffffffffffffffffffffffffffffffffffffffff167f8c5be1e5ebec7d5bd14f71427d1e84f3dd0314c0f7b2291e5b200ac8c7c3b925600260003373ffffffffffffffffffffffffffffffffffffffff1673ffffffffffffffffffffffffffffffffffffffff16815260200190815260200160002060008873ffffffffffffffffffffffffffffffffffffffff1673ffffffffffffffffffffffffffffffffffffffff168152602001908152602001600020546040518082815260200191505060405180910390a3600191505092915050565b608a5481565b608660059054906101000a900463ffffffff1681565b60008060008373ffffffffffffffffffffffffffffffffffffffff1673ffffffffffffffffffffffffffffffffffffffff168152602001908152602001600020549050919050565b6000608b54608b544381151561227e57fe5b0402905090565b60006122bb61229685608754612f54565b6122a285608854612f54565b608660019054906101000a900463ffffffff1685611990565b90509392505050565b60858054600181600116156101000203166002900480601f01602080910402602001604051908101604052809291908181526020018280546001816001161561010002031660029004801561235a5780601f1061232f5761010080835404028352916020019161235a565b820191906000526020600020905b81548152906001019060200180831161233d57829003601f168201915b505050505081565b60895481565b60008073ffffffffffffffffffffffffffffffffffffffff168373ffffffffffffffffffffffffffffffffffffffff16141515156123a557600080fd5b6000803373ffffffffffffffffffffffffffffffffffffffff1673ffffffffffffffffffffffffffffffffffffffff1681526020019081526020016000205482111515156123f257600080fd5b612443826000803373ffffffffffffffffffffffffffffffffffffffff1673ffffffffffffffffffffffffffffffffffffffff16815260200190815260200160002054612c2990919063ffffffff16565b6000803373ffffffffffffffffffffffffffffffffffffffff1673ffffffffffffffffffffffffffffffffffffffff168152602001908152602001600020819055506124d6826000808673ffffffffffffffffffffffffffffffffffffffff1673ffffffffffffffffffffffffffffffffffffffff16815260200190815260200160002054612c4290919063ffffffff16565b6000808573ffffffffffffffffffffffffffffffffffffffff1673ffffffffffffffffffffffffffffffffffffffff168152602001908152602001600020819055508273ffffffffffffffffffffffffffffffffffffffff163373ffffffffffffffffffffffffffffffffffffffff167fddf252ad1be2c89b69c2b068fc378daa952ba7f163c4a11628f55a4df523b3ef846040518082815260200191505060405180910390a36001905092915050565b608c6020528060005260406000206000915090508060000160009054906101000a900460ff16908060000160019054906101000a900460ff16908060000160029054906101000a900460ff16908060000160039054906101000a900460ff1690806001015490806002015490806003015490806004015490806005015490806006015490508a565b608d6020528160005260406000208181548110151561262a57fe5b90600052602060002001600091509150505481565b608b5481565b6000608d60008473ffffffffffffffffffffffffffffffffffffffff1673ffffffffffffffffffffffffffffffffffffffff1681526020019081526020016000208281548110151561269357fe5b9060005260206000200154905092915050565b600061273782600260003373ffffffffffffffffffffffffffffffffffffffff1673ffffffffffffffffffffffffffffffffffffffff16815260200190815260200160002060008673ffffffffffffffffffffffffffffffffffffffff1673ffffffffffffffffffffffffffffffffffffffff16815260200190815260200160002054612c4290919063ffffffff16565b600260003373ffffffffffffffffffffffffffffffffffffffff1673ffffffffffffffffffffffffffffffffffffffff16815260200190815260200160002060008573ffffffffffffffffffffffffffffffffffffffff1673ffffffffffffffffffffffffffffffffffffffff168152602001908152602001600020819055508273ffffffffffffffffffffffffffffffffffffffff163373ffffffffffffffffffffffffffffffffffffffff167f8c5be1e5ebec7d5bd14f71427d1e84f3dd0314c0f7b2291e5b200ac8c7c3b925600260003373ffffffffffffffffffffffffffffffffffffffff1673ffffffffffffffffffffffffffffffffffffffff16815260200190815260200160002060008773ffffffffffffffffffffffffffffffffffffffff1673ffffffffffffffffffffffffffffffffffffffff168152602001908152602001600020546040518082815260200191505060405180910390a36001905092915050565b60885481565b6000600260008473ffffffffffffffffffffffffffffffffffffffff1673ffffffffffffffffffffffffffffffffffffffff16815260200190815260200160002060008373ffffffffffffffffffffffffffffffffffffffff1673ffffffffffffffffffffffffffffffffffffffff16815260200190815260200160002054905092915050565b60008060008361293e33612224565b101515156129b4576040517f08c379a000000000000000000000000000000000000000000000000000000000815260040180806020018281038252601d8152602001807f696e73756666696369656e742066756e647320746f20646f207468617400000081525060200191505060405180910390fd5b6129bc61226c565b9150608c600083815260200190815260200160002090508060000160009054906101000a900460ff1615156129f5576129f48261306d565b5b612a0c848260050154612c4290919063ffffffff16565b816005018190555060008160080160003373ffffffffffffffffffffffffffffffffffffffff1673ffffffffffffffffffffffffffffffffffffffff168152602001908152602001600020541415612ac857608d60003373ffffffffffffffffffffffffffffffffffffffff1673ffffffffffffffffffffffffffffffffffffffff1681526020019081526020016000208290806001815401808255809150509060018203906000526020600020016000909192909190915055505b612b1c848260080160003373ffffffffffffffffffffffffffffffffffffffff1673ffffffffffffffffffffffffffffffffffffffff16815260200190815260200160002054612c4290919063ffffffff16565b8160080160003373ffffffffffffffffffffffffffffffffffffffff1673ffffffffffffffffffffffffffffffffffffffff16815260200190815260200160002081905550612b6b33856130e8565b1515612bdf576040517f08c379a00000000000000000000000000000000000000000000000000000000081526004018080602001828103825260118152602001807f6275726e206d757374207375636365656400000000000000000000000000000081525060200191505060405180910390fd5b600192505050919050565b6000612c20612bfb85608754612f54565b612c0785608854612f54565b608660019054906101000a900463ffffffff168561164a565b90509392505050565b6000828211151515612c3757fe5b818303905092915050565b60008183019050828110151515612c5557fe5b80905092915050565b6000608c6000608a54815260200190815260200160002090508060000160029054906101000a900460ff1615612d1157612ca5816002015482600101548360050154612285565b8160060181905550612cc881600501548260020154612c2990919063ffffffff16565b8160020181905550612ceb81600601548260010154612c2990919063ffffffff16565b816001018190555060018160000160026101000a81548160ff0219169083151502179055505b50565b6000608c6000608a54815260200190815260200160002090508060000160019054906101000a900460ff161515612dc857612d5c816002015482600101548360030154612bea565b8160040181905550612d7f81600401548260020154612c4290919063ffffffff16565b8160020181905550612da281600301548260010154612c4290919063ffffffff16565b816001018190555060018160000160016101000a81548160ff0219169083151502179055505b50565b6000612de282600154612c4290919063ffffffff16565b600181905550612e39826000808673ffffffffffffffffffffffffffffffffffffffff1673ffffffffffffffffffffffffffffffffffffffff16815260200190815260200160002054612c4290919063ffffffff16565b6000808573ffffffffffffffffffffffffffffffffffffffff1673ffffffffffffffffffffffffffffffffffffffff168152602001908152602001600020819055508273ffffffffffffffffffffffffffffffffffffffff167f0f6798a560793a54c3bcfe86a93cde1e73087d944c0ea20544137d4121396885836040518082815260200191505060405180910390a26001905092915050565b600080831415612ee65760009050612f05565b8183029050818382811515612ef757fe5b04141515612f0157fe5b8090505b92915050565b60008183811515612f1857fe5b04905092915050565b60008082840290506000841480612f425750828482811515612f3f57fe5b04145b1515612f4a57fe5b8091505092915050565b6000808284019050838110151515612f6857fe5b8091505092915050565b6000806000806000807002000000000000000000000000000000008a101515612f9a57600080fd5b886f800000000000000000000000000000008b02811515612fb757fe5b04925070015bf0a8b1457695355fb8ac404e7a79e3831015612fe357612fdc836131f0565b9350612fef565b612fec836137bf565b93505b8663ffffffff168863ffffffff16850281151561300857fe5b0491507008000000000000000000000000000000008210156130385761302d826138f5565b607f95509550613060565b61304182613eb5565b905061305a81607f0360ff16839060020a900482613f78565b81955095505b5050505094509492505050565b613075611292565b608954608c600083815260200190815260200160002060010181905550600154608c6000838152602001908152602001600020600201819055506001608c600083815260200190815260200160002060000160006101000a81548160ff02191690831515021790555080608a8190555050565b60006130ff82600154612c2990919063ffffffff16565b600181905550613156826000808673ffffffffffffffffffffffffffffffffffffffff1673ffffffffffffffffffffffffffffffffffffffff16815260200190815260200160002054612c2990919063ffffffff16565b6000808573ffffffffffffffffffffffffffffffffffffffff1673ffffffffffffffffffffffffffffffffffffffff168152602001908152602001600020819055508273ffffffffffffffffffffffffffffffffffffffff167fcc16f5dbb4873280815c1ee09dbd06736cffcc184412cf7a71a0fdb75d397ca5836040518082815260200191505060405180910390a26001905092915050565b60008060008060008093506fd3094c70f034de4b96ff7d5b6f99fcd88610151561325a576f40000000000000000000000000000000840193506fd3094c70f034de4b96ff7d5b6f99fcd86f80000000000000000000000000000000870281151561325657fe5b0495505b6fa45af1e1f40c333b3de1db4dd55f29a7861015156132b9576f20000000000000000000000000000000840193506fa45af1e1f40c333b3de1db4dd55f29a76f8000000000000000000000000000000087028115156132b557fe5b0495505b6f910b022db7ae67ce76b441c27035c6a186101515613318576f10000000000000000000000000000000840193506f910b022db7ae67ce76b441c27035c6a16f80000000000000000000000000000000870281151561331457fe5b0495505b6f88415abbe9a76bead8d00cf112e4d4a886101515613377576f08000000000000000000000000000000840193506f88415abbe9a76bead8d00cf112e4d4a86f80000000000000000000000000000000870281151561337357fe5b0495505b6f84102b00893f64c705e841d5d4064bd3861015156133d6576f04000000000000000000000000000000840193506f84102b00893f64c705e841d5d4064bd36f8000000000000000000000000000000087028115156133d257fe5b0495505b6f8204055aaef1c8bd5c3259f4822735a286101515613435576f02000000000000000000000000000000840193506f8204055aaef1c8bd5c3259f4822735a26f80000000000000000000000000000000870281151561343157fe5b0495505b6f810100ab00222d861931c15e39b44e9986101515613494576f01000000000000000000000000000000840193506f810100ab00222d861931c15e39b44e996f80000000000000000000000000000000870281151561349057fe5b0495505b6f808040155aabbbe9451521693554f733861015156134f2576e800000000000000000000000000000840193506f808040155aabbbe9451521693554f7336f8000000000000000000000000000000087028115156134ee57fe5b0495505b6f80000000000000000000000000000000860392508291506f8000000000000000000000000000000083840281151561352757fe5b0490507001000000000000000000000000000000008370010000000000000000000000000000000003830281151561355b57fe5b04840193506f8000000000000000000000000000000081830281151561357d57fe5b049150700200000000000000000000000000000000836faaaaaaaaaaaaaaaaaaaaaaaaaaaaaaaa0383028115156135b057fe5b04840193506f800000000000000000000000000000008183028115156135d257fe5b049150700300000000000000000000000000000000836f9999999999999999999999999999999903830281151561360557fe5b04840193506f8000000000000000000000000000000081830281151561362757fe5b049150700400000000000000000000000000000000836f9249249249249249249249249249249203830281151561365a57fe5b04840193506f8000000000000000000000000000000081830281151561367c57fe5b049150700500000000000000000000000000000000836f8e38e38e38e38e38e38e38e38e38e38e0383028115156136af57fe5b04840193506f800000000000000000000000000000008183028115156136d157fe5b049150700600000000000000000000000000000000836f8ba2e8ba2e8ba2e8ba2e8ba2e8ba2e8b03830281151561370457fe5b04840193506f8000000000000000000000000000000081830281151561372657fe5b049150700700000000000000000000000000000000836f89d89d89d89d89d89d89d89d89d89d8903830281151561375957fe5b04840193506f8000000000000000000000000000000081830281151561377b57fe5b049150700800000000000000000000000000000000836f888888888888888888888888888888880383028115156137ae57fe5b048401935083945050505050919050565b600080600080600092507001000000000000000000000000000000008510151561382f576138076f800000000000000000000000000000008681151561380157fe5b0461439c565b91508160ff16859060020a900494506f800000000000000000000000000000008260ff160292505b6f800000000000000000000000000000008511156138bd57607f90505b60008160ff1611156138bc576f8000000000000000000000000000000085860281151561387557fe5b049450700100000000000000000000000000000000851015156138b0576001859060020a900494506001810360ff1660019060020a02830192505b8060019003905061384c565b5b6f05b9de1d10bf4103d647b0955897ba806f03f80fe03f80fe03f80fe03f80fe03f884028115156138ea57fe5b049350505050919050565b600080600080600092506f100000000000000000000000000000008581151561391a57fe5b0691508190506f8000000000000000000000000000000082820281151561393d57fe5b0490506710e1b3be415a00008102830192506f8000000000000000000000000000000082820281151561396c57fe5b0490506705a0913f6b1e00008102830192506f8000000000000000000000000000000082820281151561399b57fe5b049050670168244fdac780008102830192506f800000000000000000000000000000008282028115156139ca57fe5b049050664807432bc180008102830192506f800000000000000000000000000000008282028115156139f857fe5b049050660c0135dca040008102830192506f80000000000000000000000000000000828202811515613a2657fe5b0490506601b707b1cdc0008102830192506f80000000000000000000000000000000828202811515613a5457fe5b0490506536e0f639b8008102830192506f80000000000000000000000000000000828202811515613a8157fe5b049050650618fee9f8008102830192506f80000000000000000000000000000000828202811515613aae57fe5b049050649c197dcc008102830192506f80000000000000000000000000000000828202811515613ada57fe5b049050640e30dce4008102830192506f80000000000000000000000000000000828202811515613b0657fe5b04905064012ebd13008102830192506f80000000000000000000000000000000828202811515613b3257fe5b0490506317499f008102830192506f80000000000000000000000000000000828202811515613b5d57fe5b0490506301a9d4808102830192506f80000000000000000000000000000000828202811515613b8857fe5b049050621c63808102830192506f80000000000000000000000000000000828202811515613bb257fe5b0490506201c6388102830192506f80000000000000000000000000000000828202811515613bdc57fe5b049050611ab88102830192506f80000000000000000000000000000000828202811515613c0557fe5b04905061017c8102830192506f80000000000000000000000000000000828202811515613c2e57fe5b04905060148102830192506f80000000000000000000000000000000828202811515613c5657fe5b04905060018102830192506f80000000000000000000000000000000826721c3677c82b4000085811515613c8657fe5b040101925060006f100000000000000000000000000000008616141515613cda5770018ebef9eac820ae8682b9793ac6d1e7767001c3d6a24ed82218787d624d3e5eba95f98402811515613cd657fe5b0492505b60006f200000000000000000000000000000008616141515613d29577001368b2fc6f9609fe7aceb46aa619baed470018ebef9eac820ae8682b9793ac6d1e7788402811515613d2557fe5b0492505b60006f400000000000000000000000000000008616141515613d77576fbc5ab1b16779be3575bd8f0520a9f21f7001368b2fc6f9609fe7aceb46aa619baed58402811515613d7357fe5b0492505b60006f800000000000000000000000000000008616141515613dc4576f454aaa8efe072e7f6ddbab84b40a55c96fbc5ab1b16779be3575bd8f0520a9f21e8402811515613dc057fe5b0492505b60007001000000000000000000000000000000008616141515613e12576f0960aadc109e7a3bf4578099615711ea6f454aaa8efe072e7f6ddbab84b40a55c58402811515613e0e57fe5b0492505b60007002000000000000000000000000000000008616141515613e5f576e2bf84208204f5977f9a8cf01fdce3d6f0960aadc109e7a3bf4578099615711d78402811515613e5b57fe5b0492505b60007004000000000000000000000000000000008616141515613eaa576d03c6ab775dd0b95b4cbee7e65d116e2bf84208204f5977f9a8cf01fdc3078402811515613ea657fe5b0492505b829350505050919050565b60008060008060209250607f91505b8160ff166001840160ff161015613f1657600282840160ff16811515613ee657fe5b0490508460048260ff16608081101515613efc57fe5b0154101515613f0d57809250613f11565b8091505b613ec4565b8460048360ff16608081101515613f2957fe5b0154101515613f3a57819350613f70565b8460048460ff16608081101515613f4d57fe5b0154101515613f5e57829350613f70565b60001515613f6b57600080fd5b600093505b505050919050565b6000806000849150600090508360ff168583029060020a900491506f03442c4e6074a82f1797f72ac00000008202810190508360ff168583029060020a900491506f0116b96f757c380fb287fd0e400000008202810190508360ff168583029060020a900491506e45ae5bdd5f0e03eca1ff43900000008202810190508360ff168583029060020a900491506e0defabf91302cd95b9ffda500000008202810190508360ff168583029060020a900491506e02529ca9832b22439efff9b80000008202810190508360ff168583029060020a900491506d54f1cf12bd04e516b6da880000008202810190508360ff168583029060020a900491506d0a9e39e257a09ca2d6db510000008202810190508360ff168583029060020a900491506d012e066e7b839fa050c3090000008202810190508360ff168583029060020a900491506c1e33d7d926c329a1ad1a8000008202810190508360ff168583029060020a900491506c02bee513bdb4a6b19b5f8000008202810190508360ff168583029060020a900491506b3a9316fa79b88eccf2a000008202810190508360ff168583029060020a900491506b048177ebe1fa8123752000008202810190508360ff168583029060020a900491506a5263fe90242dcbacf000008202810190508360ff168583029060020a900491506a057e22099c030d941000008202810190508360ff168583029060020a900491506957e22099c030d94100008202810190508360ff168583029060020a9004915069052b6b545699763100008202810190508360ff168583029060020a90049150684985f67696bf7480008202810190508360ff168583029060020a900491506803dea12ea99e4980008202810190508360ff168583029060020a900491506731880f2214b6e0008202810190508360ff168583029060020a9004915067025bcff56eb360008202810190508360ff168583029060020a90049150661b722e10ab10008202810190508360ff168583029060020a900491506601317c700770008202810190508360ff168583029060020a90049150650cba84aafa008202810190508360ff168583029060020a900491506482573a0a008202810190508360ff168583029060020a900491506405035ad9008202810190508360ff168583029060020a90049150632f881b008202810190508360ff168583029060020a900491506301b293408202810190508360ff168583029060020a90049150620efc408202810190508360ff168583029060020a90049150617fe08202810190508360ff168583029060020a900491506104208202810190508360ff168583029060020a9004915060218202810190508360ff168583029060020a9004915060018202810190508360ff1660019060020a02856f0688589cc0e9505e2f2fee55800000008381151561438f57fe5b0401019250505092915050565b60008060008091506101008410156143d3575b60018411156143ce576001849060020a900493506001820191506143af565b61441e565b608090505b60008160ff16111561441d578060ff1660019060020a028410151561440a578060ff16849060020a9004935080821791505b60018160ff169060020a900490506143d8565b5b81925050509190505600a165627a7a72305820fc516fdb9d5625600ee8f8797163b340a92a250f799604d53aafdc375342b65f0029",
  "source": "pragma solidity ^0.4.23;\n\nimport \"../node_modules/zeppelin-solidity/contracts/token/ERC20/StandardToken.sol\";\nimport \"../node_modules/zeppelin-solidity/contracts/math/SafeMath.sol\";\nimport \"./BancorContracts/converter/BancorFormula.sol\";\n\ncontract BatchBondedToken is StandardToken, BancorFormula {\n    using SafeMath for uint256;\n\n    string public name;\n    string public symbol;\n    uint8 public decimals;\n\n    uint32 public reserveRatio;  // represented in ppm, 1-1000000\n    uint32 public ppm = 1000000;\n    uint256 public virtualSupply;\n    uint256 public virtualBalance;\n\n    uint256 public poolBalance;\n\n    uint256 public waitingClear;\n    uint256 public batchBlocks;\n    struct Batch {\n        bool init;\n        bool buysCleared;\n        bool sellsCleared;\n        bool cleared;\n\n        uint256 poolBalance;\n        uint256 totalSupply;\n        \n        uint256 totalBuySpend;\n        uint256 totalBuyReturn;\n\n        uint256 totalSellSpend;\n        uint256 totalSellReturn;\n\n        mapping (address => uint256) buyers;\n        mapping (address => uint256) sellers;\n    }\n    mapping (uint256 => Batch) public batches;\n    mapping (address => uint256[]) public addressToBlocks;\n\n    event Mint(address indexed to, uint256 amount);\n    event Burn(address indexed burner, uint256 amount);\n    event Buy(address indexed to, uint256 poolBalance, uint tokenSupply, uint256 amountTokens, uint256 totalCostEth);\n    event Sell(address indexed from, uint256 poolBalance, uint tokenSupply, uint256 amountTokens, uint256 returnedEth);\n\n    constructor (\n        string _name,\n        string _symbol,\n        uint8 _decimals,\n        uint256 _batchBlocks,\n        uint32 _reserveRatio,\n        uint256 _virtualSupply,\n        uint256 _virtualBalance) public {\n            \n        name = _name;\n        symbol = _symbol;\n        decimals = _decimals;\n\n        batchBlocks = _batchBlocks;\n\n        reserveRatio = _reserveRatio;\n        virtualSupply = _virtualSupply;\n        virtualBalance = _virtualBalance;\n    }\n\n    function() public payable {}\n    function currentBatch() public view returns(uint cb) {\n        cb = (block.number / batchBlocks) * batchBlocks;\n    }\n    function getBuySellBlocks(address buyerSeller) public view returns (uint256[]) {\n        return addressToBlocks[buyerSeller];\n    }\n    function getBuySellBlocksByIndex(address buyerSeller, uint256 index) public view returns (uint256) {\n        return addressToBlocks[buyerSeller][index];\n    }\n    function getBuy(uint256 _totalSupply, uint256 _poolBalance, uint256 buyValue) public view returns(uint256) {\n        return calculatePurchaseReturn(\n            safeAdd(_totalSupply, virtualSupply),\n            safeAdd(_poolBalance, virtualBalance),\n            reserveRatio,\n            buyValue);\n    }\n    function getSell(uint256 _totalSupply, uint256 _poolBalance, uint256 sellAmount) public view returns(uint256) {\n        return calculateSaleReturn(\n            safeAdd(_totalSupply, virtualSupply),\n            safeAdd(_poolBalance, virtualBalance),\n            reserveRatio,\n            sellAmount);\n    }\n    function addBuy(address sender) public payable returns(bool) {\n        uint256 batch = currentBatch();\n        Batch storage cb = batches[batch]; // currentBatch\n        if (!cb.init) {\n            initBatch(batch);\n        }\n        cb.totalBuySpend = cb.totalBuySpend.add(msg.value);\n        if (cb.buyers[sender] == 0) {\n            addressToBlocks[sender].push(batch);\n        }\n        cb.buyers[sender] = cb.buyers[sender].add(msg.value);\n        return true;\n    }\n    function addSell(uint256 amount) public returns(bool) {\n        require(balanceOf(msg.sender) >= amount, \"insufficient funds to do that\");\n        uint256 batch = currentBatch();\n        Batch storage cb = batches[batch]; // currentBatch\n        if (!cb.init) {\n            initBatch(batch);\n        }\n        cb.totalSellSpend = cb.totalSellSpend.add(amount);\n        if (cb.sellers[msg.sender] == 0) {\n            addressToBlocks[msg.sender].push(batch);\n        }\n        cb.sellers[msg.sender] = cb.sellers[msg.sender].add(amount);\n        require(_burn(msg.sender, amount), \"burn must succeed\");\n        return true;\n    }\n    function initBatch(uint256 batch) internal {\n        clearBatch();\n        batches[batch].poolBalance = poolBalance;\n        batches[batch].totalSupply = totalSupply_;\n        batches[batch].init = true;\n        waitingClear = batch;\n    }\n    function clearBatch() public {\n        if (waitingClear == 0) return;\n        Batch storage cb = batches[waitingClear]; // clearing batch\n        if (cb.cleared) return;\n        clearSales();\n        clearBuys();\n        poolBalance = cb.poolBalance;\n        // totalSupply_ = cb.totalSupply;\n        require(_mint(this, cb.totalBuyReturn), \"minting new tokens to be held until buyers collect must succeed\");\n        cb.cleared = true;\n        waitingClear = 0;\n    }\n    function clearSales() internal {\n        Batch storage cb = batches[waitingClear]; // clearing batch\n        if (cb.sellsCleared) {\n            cb.totalSellReturn = getSell(cb.totalSupply, cb.poolBalance, cb.totalSellSpend);\n            cb.totalSupply = cb.totalSupply.sub(cb.totalSellSpend);\n            cb.poolBalance = cb.poolBalance.sub(cb.totalSellReturn);\n            cb.sellsCleared = true;\n        }\n    }\n    function clearBuys() internal {\n        Batch storage cb = batches[waitingClear]; // clearing batch\n        if (!cb.buysCleared) {\n            cb.totalBuyReturn = getBuy(cb.totalSupply, cb.poolBalance, cb.totalBuySpend);\n            cb.totalSupply = cb.totalSupply.add(cb.totalBuyReturn);\n            cb.poolBalance = cb.poolBalance.add(cb.totalBuySpend);\n            cb.buysCleared = true;\n        }\n    }\n    function claimSell(uint256 batch, address sender) public {\n        Batch storage cb = batches[batch]; // claming batch\n        require(cb.cleared, \"can't claim a batch that hasn't cleared\");\n        require(cb.sellers[sender] != 0, \"already claimed this sell\");\n        uint256 individualSellReturn = (cb.totalSellReturn.mul(cb.sellers[sender])).div(cb.totalSellSpend);\n        cb.sellers[sender] = 0;\n        sender.transfer(individualSellReturn);\n    }\n    function claimBuy(uint256 batch, address sender) public {\n        Batch storage cb = batches[batch]; // claming batch\n        require(cb.cleared, \"can't claim a batch that hasn't cleared\");\n        require(cb.buyers[sender] != 0, \"already claimed this buy\");\n        uint256 individualBuyReturn = (cb.buyers[sender].mul(cb.totalBuyReturn)).div(cb.totalBuySpend);\n        cb.buyers[sender] = 0;\n        require(_burn(this, individualBuyReturn), \"burn must succeed to close claim\");\n        require(_mint(sender, individualBuyReturn), \"mint must succeed to close claim\");\n    }\n\n    // /**\n    // * @dev buy Buy tokens for Eth\n    // * @param sender The recepient of bought tokens\n    // */\n    // function buy(address sender) public payable returns(bool) {\n    //     require(msg.value > 0, \"Msg.value must be greater than 0\");\n    //     uint256 tokens = getBuy(totalSupply_, poolBalance, msg.value);\n    //     require(tokens > 0, \"Buy must be greater than 0\");\n    //     require(_mint(sender, tokens), \"mint must succeed\");\n\n    //     poolBalance = poolBalance.add(msg.value);\n    //     emit Buy(sender, poolBalance, totalSupply_, tokens, msg.value);\n    //     return true;\n    // }\n\n    // /**\n    // * @dev sell Sell tokens for Eth\n    // * @param sellAmount The amount of tokens to sell\n    // */\n    // function sell(uint256 sellAmount) public returns(bool) {\n    //     require(sellAmount > 0, \"sell amount must be greater than 0\");\n    //     require(balanceOf(msg.sender) >= sellAmount, \"sell amount must be less than or equal to sellser's balance\");\n\n    //     uint256 saleReturn = getSell(totalSupply_, poolBalance, sellAmount);\n\n    //     require(saleReturn > 0, \"Sale must be greater than 0\");\n    //     require(saleReturn <= poolBalance, \"Sale must be less than pool balance\");\n    //     require(_burn(msg.sender, sellAmount), \"burn must suceed\");\n    //     poolBalance = poolBalance.sub(saleReturn);\n\n    //     msg.sender.transfer(saleReturn);\n\n    //     emit Sell(msg.sender, poolBalance, totalSupply_, sellAmount, saleReturn);\n    //     return true;\n    // }\n\n\n    /// @dev                Mint new tokens with ether\n    /// @param numTokens    The number of tokens you want to mint\n    function _mint(address minter, uint256 numTokens) internal returns(bool){\n        totalSupply_ = totalSupply_.add(numTokens);\n        balances[minter] = balances[minter].add(numTokens);\n        emit Mint(minter, numTokens);\n        return true;\n    }\n\n    /// @dev                Burn tokens to receive ether\n    /// @param burner         The number of tokens that you want to burn\n    /// @param numTokens    The number of tokens that you want to burn\n    function _burn(address burner, uint256 numTokens) internal returns(bool) {\n        totalSupply_ = totalSupply_.sub(numTokens);\n        balances[burner] = balances[burner].sub(numTokens);\n        emit Burn(burner, numTokens);\n        return true;\n    }\n\n}",
  "sourcePath": "/Users/billy/sol/BatchedBondingCurves/contracts/BatchBondedToken.sol",
  "compiler": {
    "name": "solc",
    "version": "0.4.24+commit.e67f0147.Emscripten.clang"
  },
  "schemaVersion": "2.0.1",
  "updatedAt": "2018-12-19T15:23:21.458Z"
}