{
  "contractName": "ContractFeatures",
  "abi": [
    {
      "inputs": [],
      "payable": false,
      "stateMutability": "nonpayable",
      "type": "constructor"
    },
    {
      "anonymous": false,
      "inputs": [
        {
          "indexed": true,
          "name": "_address",
          "type": "address"
        },
        {
          "indexed": false,
          "name": "_features",
          "type": "uint256"
        }
      ],
      "name": "FeaturesAddition",
      "type": "event"
    },
    {
      "anonymous": false,
      "inputs": [
        {
          "indexed": true,
          "name": "_address",
          "type": "address"
        },
        {
          "indexed": false,
          "name": "_features",
          "type": "uint256"
        }
      ],
      "name": "FeaturesRemoval",
      "type": "event"
    },
    {
      "constant": true,
      "inputs": [
        {
          "name": "_contract",
          "type": "address"
        },
        {
          "name": "_features",
          "type": "uint256"
        }
      ],
      "name": "isSupported",
      "outputs": [
        {
          "name": "",
          "type": "bool"
        }
      ],
      "payable": false,
      "stateMutability": "view",
      "type": "function"
    },
    {
      "constant": false,
      "inputs": [
        {
          "name": "_features",
          "type": "uint256"
        },
        {
          "name": "_enable",
          "type": "bool"
        }
      ],
      "name": "enableFeatures",
      "outputs": [],
      "payable": false,
      "stateMutability": "nonpayable",
      "type": "function"
    }
  ],
  "bytecode": "0x608060405234801561001057600080fd5b506102d7806100206000396000f30060806040526004361061004c576000357c0100000000000000000000000000000000000000000000000000000000900463ffffffff1680632c7077c014610051578063a5fbf2871461008a575b600080fd5b34801561005d57600080fd5b50610088600480360381019080803590602001909291908035151590602001909291905050506100ef565b005b34801561009657600080fd5b506100d5600480360381019080803573ffffffffffffffffffffffffffffffffffffffff1690602001909291908035906020019092919050505061025e565b604051808215151515815260200191505060405180910390f35b80156101a8576100ff338361025e565b156101095761025a565b816000803373ffffffffffffffffffffffffffffffffffffffff1673ffffffffffffffffffffffffffffffffffffffff168152602001908152602001600020600082825417925050819055503373ffffffffffffffffffffffffffffffffffffffff167f461f0180592d0fa11ece082775c5b037a96f6a5418f3f23d4ee4ee063b5c1aac836040518082815260200191505060405180910390a2610259565b6101b2338361025e565b15156101bd5761025a565b81196000803373ffffffffffffffffffffffffffffffffffffffff1673ffffffffffffffffffffffffffffffffffffffff168152602001908152602001600020600082825416925050819055503373ffffffffffffffffffffffffffffffffffffffff167f903f96a6f8c316bb88b30f8b641bd2aa80b6e92732bab4d1accf30e1d6eba89c836040518082815260200191505060405180910390a25b5b5050565b600081826000808673ffffffffffffffffffffffffffffffffffffffff1673ffffffffffffffffffffffffffffffffffffffff1681526020019081526020016000205416149050929150505600a165627a7a72305820e6762cf4aafa808dbbdd601ce62ae126d7baebcb638114e0ee31306e9a0afcfd0029",
  "source": "pragma solidity ^0.4.24;\nimport './interfaces/IContractFeatures.sol';\n\n/**\n    Contract Features\n\n    Generic contract that allows every contract on the blockchain to define which features it supports.\n    Other contracts can query this contract to find out whether a given contract on the\n    blockchain supports a certain feature.\n    Each contract type can define its own list of feature flags.\n    Features can be only enabled/disabled by the contract they are defined for.\n\n    Features should be defined by each contract type as bit flags, e.g. -\n    uint256 public constant FEATURE1 = 1 << 0;\n    uint256 public constant FEATURE2 = 1 << 1;\n    uint256 public constant FEATURE3 = 1 << 2;\n    ...\n*/\ncontract ContractFeatures is IContractFeatures {\n    mapping (address => uint256) private featureFlags;\n\n    event FeaturesAddition(address indexed _address, uint256 _features);\n    event FeaturesRemoval(address indexed _address, uint256 _features);\n\n    /**\n        @dev constructor\n    */\n    constructor() public {\n    }\n\n    /**\n        @dev returns true if a given contract supports the given feature(s), false if not\n\n        @param _contract    contract address to check support for\n        @param _features    feature(s) to check for\n\n        @return true if the contract supports the feature(s), false if not\n    */\n    function isSupported(address _contract, uint256 _features) public view returns (bool) {\n        return (featureFlags[_contract] & _features) == _features;\n    }\n\n    /**\n        @dev allows a contract to enable/disable certain feature(s)\n\n        @param _features    feature(s) to enable/disable\n        @param _enable      true to enable the feature(s), false to disabled them\n    */\n    function enableFeatures(uint256 _features, bool _enable) public {\n        if (_enable) {\n            if (isSupported(msg.sender, _features))\n                return;\n\n            featureFlags[msg.sender] |= _features;\n\n            emit FeaturesAddition(msg.sender, _features);\n        } else {\n            if (!isSupported(msg.sender, _features))\n                return;\n\n            featureFlags[msg.sender] &= ~_features;\n\n            emit FeaturesRemoval(msg.sender, _features);\n        }\n    }\n}\n",
  "sourcePath": "/home/volt/tmp/BatchedBondingCurves/contracts/BancorContracts/utility/ContractFeatures.sol",
  "compiler": {
    "name": "solc",
    "version": "0.4.24+commit.e67f0147.Emscripten.clang"
  },
  "schemaVersion": "3.0.0-beta.0",
  "updatedAt": "2019-01-02T14:26:53.708Z"
}