{
  "contractName": "TestBancorFormula",
  "abi": [
    {
      "constant": true,
      "inputs": [
        {
          "name": "_supply",
          "type": "uint256"
        },
        {
          "name": "_connectorBalance",
          "type": "uint256"
        },
        {
          "name": "_connectorWeight",
          "type": "uint32"
        },
        {
          "name": "_depositAmount",
          "type": "uint256"
        }
      ],
      "name": "calculatePurchaseReturn",
      "outputs": [
        {
          "name": "",
          "type": "uint256"
        }
      ],
      "payable": false,
      "stateMutability": "view",
      "type": "function"
    },
    {
      "constant": true,
      "inputs": [
        {
          "name": "_supply",
          "type": "uint256"
        },
        {
          "name": "_connectorBalance",
          "type": "uint256"
        },
        {
          "name": "_connectorWeight",
          "type": "uint32"
        },
        {
          "name": "_sellAmount",
          "type": "uint256"
        }
      ],
      "name": "calculateSaleReturn",
      "outputs": [
        {
          "name": "",
          "type": "uint256"
        }
      ],
      "payable": false,
      "stateMutability": "view",
      "type": "function"
    },
    {
      "constant": true,
      "inputs": [],
      "name": "version",
      "outputs": [
        {
          "name": "",
          "type": "string"
        }
      ],
      "payable": false,
      "stateMutability": "view",
      "type": "function"
    },
    {
      "constant": true,
      "inputs": [
        {
          "name": "_fromConnectorBalance",
          "type": "uint256"
        },
        {
          "name": "_fromConnectorWeight",
          "type": "uint32"
        },
        {
          "name": "_toConnectorBalance",
          "type": "uint256"
        },
        {
          "name": "_toConnectorWeight",
          "type": "uint32"
        },
        {
          "name": "_amount",
          "type": "uint256"
        }
      ],
      "name": "calculateCrossConnectorReturn",
      "outputs": [
        {
          "name": "",
          "type": "uint256"
        }
      ],
      "payable": false,
      "stateMutability": "view",
      "type": "function"
    },
    {
      "inputs": [],
      "payable": false,
      "stateMutability": "nonpayable",
      "type": "constructor"
    },
    {
      "constant": true,
      "inputs": [
        {
          "name": "_baseN",
          "type": "uint256"
        },
        {
          "name": "_baseD",
          "type": "uint256"
        },
        {
          "name": "_expN",
          "type": "uint32"
        },
        {
          "name": "_expD",
          "type": "uint32"
        }
      ],
      "name": "powerTest",
      "outputs": [
        {
          "name": "",
          "type": "uint256"
        },
        {
          "name": "",
          "type": "uint8"
        }
      ],
      "payable": false,
      "stateMutability": "view",
      "type": "function"
    },
    {
      "constant": true,
      "inputs": [
        {
          "name": "x",
          "type": "uint256"
        }
      ],
      "name": "generalLogTest",
      "outputs": [
        {
          "name": "",
          "type": "uint256"
        }
      ],
      "payable": false,
      "stateMutability": "pure",
      "type": "function"
    },
    {
      "constant": true,
      "inputs": [
        {
          "name": "_n",
          "type": "uint256"
        }
      ],
      "name": "floorLog2Test",
      "outputs": [
        {
          "name": "",
          "type": "uint8"
        }
      ],
      "payable": false,
      "stateMutability": "pure",
      "type": "function"
    },
    {
      "constant": true,
      "inputs": [
        {
          "name": "_x",
          "type": "uint256"
        }
      ],
      "name": "findPositionInMaxExpArrayTest",
      "outputs": [
        {
          "name": "",
          "type": "uint8"
        }
      ],
      "payable": false,
      "stateMutability": "view",
      "type": "function"
    },
    {
      "constant": true,
      "inputs": [
        {
          "name": "_x",
          "type": "uint256"
        },
        {
          "name": "_precision",
          "type": "uint8"
        }
      ],
      "name": "generalExpTest",
      "outputs": [
        {
          "name": "",
          "type": "uint256"
        }
      ],
      "payable": false,
      "stateMutability": "pure",
      "type": "function"
    },
    {
      "constant": true,
      "inputs": [
        {
          "name": "x",
          "type": "uint256"
        }
      ],
      "name": "optimalLogTest",
      "outputs": [
        {
          "name": "",
          "type": "uint256"
        }
      ],
      "payable": false,
      "stateMutability": "pure",
      "type": "function"
    },
    {
      "constant": true,
      "inputs": [
        {
          "name": "x",
          "type": "uint256"
        }
      ],
      "name": "optimalExpTest",
      "outputs": [
        {
          "name": "",
          "type": "uint256"
        }
      ],
      "payable": false,
      "stateMutability": "pure",
      "type": "function"
    }
  ],
  "bytecode": "0x60806040526040805190810160405280600381526020017f302e330000000000000000000000000000000000000000000000000000000000815250600090805190602001906200005192919062000f56565b503480156200005f57600080fd5b50701c35fedd14ffffffffffffffffffffffff600160206080811015156200008357fe5b0181905550701b0ce43b323fffffffffffffffffffffff60016021608081101515620000ab57fe5b01819055507019f0028ec1ffffffffffffffffffffffff60016022608081101515620000d357fe5b01819055507018ded91f0e7fffffffffffffffffffffff60016023608081101515620000fb57fe5b01819055507017d8ec7f0417ffffffffffffffffffffff600160246080811015156200012357fe5b01819055507016ddc6556cdbffffffffffffffffffffff600160256080811015156200014b57fe5b01819055507015ecf52776a1ffffffffffffffffffffff600160266080811015156200017357fe5b01819055507015060c256cb2ffffffffffffffffffffff600160276080811015156200019b57fe5b0181905550701428a2f98d72ffffffffffffffffffffff60016028608081101515620001c357fe5b01819055507013545598e5c23fffffffffffffffffffff60016029608081101515620001eb57fe5b0181905550701288c4161ce1dfffffffffffffffffffff6001602a6080811015156200021357fe5b01819055507011c592761c666fffffffffffffffffffff6001602b6080811015156200023b57fe5b018190555070110a688680a757ffffffffffffffffffff6001602c6080811015156200026357fe5b0181905550701056f1b5bedf77ffffffffffffffffffff6001602d6080811015156200028b57fe5b0181905550700faadceceeff8bffffffffffffffffffff6001602e608081101515620002b357fe5b0181905550700f05dc6b27edadffffffffffffffffffff6001602f608081101515620002db57fe5b0181905550700e67a5a25da4107fffffffffffffffffff600160306080811015156200030357fe5b0181905550700dcff115b14eedffffffffffffffffffff600160316080811015156200032b57fe5b0181905550700d3e7a392431239fffffffffffffffffff600160326080811015156200035357fe5b0181905550700cb2ff529eb71e4fffffffffffffffffff600160336080811015156200037b57fe5b0181905550700c2d415c3db974afffffffffffffffffff60016034608081101515620003a357fe5b0181905550700bad03e7d883f69bffffffffffffffffff60016035608081101515620003cb57fe5b0181905550700b320d03b2c343d5ffffffffffffffffff60016036608081101515620003f357fe5b0181905550700abc25204e02828dffffffffffffffffff600160376080811015156200041b57fe5b0181905550700a4b16f74ee4bb207fffffffffffffffff600160386080811015156200044357fe5b01819055507009deaf736ac1f569ffffffffffffffffff600160396080811015156200046b57fe5b0181905550700976bd9952c7aa957fffffffffffffffff6001603a6080811015156200049357fe5b01819055507009131271922eaa606fffffffffffffffff6001603b608081101515620004bb57fe5b01819055507008b380f3558668c46fffffffffffffffff6001603c608081101515620004e357fe5b0181905550700857ddf0117efa215bffffffffffffffff6001603d6080811015156200050b57fe5b01819055507007ffffffffffffffffffffffffffffffff6001603e6080811015156200053357fe5b01819055507007abbf6f6abb9d087fffffffffffffffff6001603f6080811015156200055b57fe5b018190555070075af62cbac95f7dfa7fffffffffffffff600160406080811015156200058357fe5b018190555070070d7fb7452e187ac13fffffffffffffff60016041608081101515620005ab57fe5b01819055507006c3390ecc8af379295fffffffffffffff60016042608081101515620005d357fe5b018190555070067c00a3b07ffc01fd6fffffffffffffff60016043608081101515620005fb57fe5b0181905550700637b647c39cbb9d3d27ffffffffffffff600160446080811015156200062357fe5b01819055507005f63b1fc104dbd39587ffffffffffffff600160456080811015156200064b57fe5b01819055507005b771955b36e12f7235ffffffffffffff600160466080811015156200067357fe5b018190555070057b3d49dda84556d6f6ffffffffffffff600160476080811015156200069b57fe5b018190555070054183095b2c8ececf30ffffffffffffff60016048608081101515620006c357fe5b018190555070050a28be635ca2b888f77fffffffffffff60016049608081101515620006eb57fe5b01819055507004d5156639708c9db33c3fffffffffffff6001604a6080811015156200071357fe5b01819055507004a23105873875bd52dfdfffffffffffff6001604b6080811015156200073b57fe5b0181905550700471649d87199aa990756fffffffffffff6001604c6080811015156200076357fe5b01819055507004429a21a029d4c1457cfbffffffffffff6001604d6080811015156200078b57fe5b0181905550700415bc6d6fb7dd71af2cb3ffffffffffff6001604e608081101515620007b357fe5b01819055507003eab73b3bbfe282243ce1ffffffffffff6001604f608081101515620007db57fe5b01819055507003c1771ac9fb6b4c18e229ffffffffffff600160506080811015156200080357fe5b0181905550700399e96897690418f785257fffffffffff600160516080811015156200082b57fe5b0181905550700373fc456c53bb779bf0ea9fffffffffff600160526080811015156200085357fe5b018190555070034f9e8e490c48e67e6ab8bfffffffffff600160536080811015156200087b57fe5b018190555070032cbfd4a7adc790560b3337ffffffffff60016054608081101515620008a357fe5b018190555070030b50570f6e5d2acca94613ffffffffff60016055608081101515620008cb57fe5b01819055507002eb40f9f620fda6b56c2861ffffffffff60016056608081101515620008f357fe5b01819055507002cc8340ecb0d0f520a6af58ffffffffff600160576080811015156200091b57fe5b01819055507002af09481380a0a35cf1ba02ffffffffff600160586080811015156200094357fe5b0181905550700292c5bdd3b92ec810287b1b3fffffffff600160596080811015156200096b57fe5b0181905550700277abdcdab07d5a77ac6d6b9fffffffff6001605a6080811015156200099357fe5b018190555070025daf6654b1eaa55fd64df5efffffffff6001605b608081101515620009bb57fe5b0181905550700244c49c648baa98192dce88b7ffffffff6001605c608081101515620009e357fe5b018190555070022ce03cd5619a311b2471268bffffffff6001605d60808110151562000a0b57fe5b0181905550700215f77c045fbe885654a44a0fffffffff6001605e60808110151562000a3357fe5b01819055507001ffffffffffffffffffffffffffffffff6001605f60808110151562000a5b57fe5b01819055507001eaefdbdaaee7421fc4d3ede5ffffffff6001606060808110151562000a8357fe5b01819055507001d6bd8b2eb257df7e8ca57b09bfffffff6001606160808110151562000aab57fe5b01819055507001c35fedd14b861eb0443f7f133fffffff6001606260808110151562000ad357fe5b01819055507001b0ce43b322bcde4a56e8ada5afffffff6001606360808110151562000afb57fe5b018190555070019f0028ec1fff007f5a195a39dfffffff6001606460808110151562000b2357fe5b018190555070018ded91f0e72ee74f49b15ba527ffffff6001606560808110151562000b4b57fe5b018190555070017d8ec7f04136f4e5615fd41a63ffffff6001606660808110151562000b7357fe5b018190555070016ddc6556cdb84bdc8d12d22e6fffffff6001606760808110151562000b9b57fe5b018190555070015ecf52776a1155b5bd8395814f7fffff6001606860808110151562000bc357fe5b018190555070015060c256cb23b3b3cc3754cf40ffffff6001606960808110151562000beb57fe5b01819055507001428a2f98d728ae223ddab715be3fffff6001606a60808110151562000c1357fe5b018190555070013545598e5c23276ccf0ede68034fffff6001606b60808110151562000c3b57fe5b01819055507001288c4161ce1d6f54b7f61081194fffff6001606c60808110151562000c6357fe5b018190555070011c592761c666aa641d5a01a40f17ffff6001606d60808110151562000c8b57fe5b0181905550700110a688680a7530515f3e6e6cfdcdffff6001606e60808110151562000cb357fe5b01819055507001056f1b5bedf75c6bcb2ce8aed428ffff6001606f60808110151562000cdb57fe5b01819055506ffaadceceeff8a0890f3875f008277fff6001607060808110151562000d0257fe5b01819055506ff05dc6b27edad306388a600f6ba0bfff6001607160808110151562000d2957fe5b01819055506fe67a5a25da41063de1495d5b18cdbfff6001607260808110151562000d5057fe5b01819055506fdcff115b14eedde6fc3aa5353f2e4fff6001607360808110151562000d7757fe5b01819055506fd3e7a3924312399f9aae2e0f868f8fff6001607460808110151562000d9e57fe5b01819055506fcb2ff529eb71e41582cccd5a1ee26fff6001607560808110151562000dc557fe5b01819055506fc2d415c3db974ab32a51840c0b67edff6001607660808110151562000dec57fe5b01819055506fbad03e7d883f69ad5b0a186184e06bff6001607760808110151562000e1357fe5b01819055506fb320d03b2c343d4829abd6075f0cc5ff6001607860808110151562000e3a57fe5b01819055506fabc25204e02828d73c6e80bcdb1a95bf6001607960808110151562000e6157fe5b01819055506fa4b16f74ee4bb2040a1ec6c15fbbf2df6001607a60808110151562000e8857fe5b01819055506f9deaf736ac1f569deb1b5ae3f36c130f6001607b60808110151562000eaf57fe5b01819055506f976bd9952c7aa957f5937d790ef650376001607c60808110151562000ed657fe5b01819055506f9131271922eaa6064b73a22d0bd4f2bf6001607d60808110151562000efd57fe5b01819055506f8b380f3558668c46c91c49a2f8e967b96001607e60808110151562000f2457fe5b01819055506f857ddf0117efa215952912839f6473e66001607f60808110151562000f4b57fe5b018190555062001005565b828054600181600116156101000203166002900490600052602060002090601f016020900481019282601f1062000f9957805160ff191683800117855562000fca565b8280016001018555821562000fca579182015b8281111562000fc957825182559160200191906001019062000fac565b5b50905062000fd9919062000fdd565b5090565b6200100291905b8082111562000ffe57600081600090555060010162000fe4565b5090565b90565b611c6380620010156000396000f3006080604052600436106100af576000357c0100000000000000000000000000000000000000000000000000000000900463ffffffff16806329a00e7c146100b45780633e8a38ab146101195780634982d52d1461015a57806349f9b0f71461019b57806354fd4d501461020057806365098bb3146102905780636cab5055146103055780638c5ce82a14610353578063a25a34b1146103cb578063acdee8cb14610412578063ce782e0814610453575b600080fd5b3480156100c057600080fd5b506101036004803603810190808035906020019092919080359060200190929190803563ffffffff1690602001909291908035906020019092919050505061049a565b6040518082815260200191505060405180910390f35b34801561012557600080fd5b5061014460048036038101908080359060200190929190505050610579565b6040518082815260200191505060405180910390f35b34801561016657600080fd5b506101856004803603810190808035906020019092919050505061058b565b6040518082815260200191505060405180910390f35b3480156101a757600080fd5b506101ea6004803603810190808035906020019092919080359060200190929190803563ffffffff1690602001909291908035906020019092919050505061059d565b6040518082815260200191505060405180910390f35b34801561020c57600080fd5b506102156106a1565b6040518080602001828103825283818151815260200191508051906020019080838360005b8381101561025557808201518184015260208101905061023a565b50505050905090810190601f1680156102825780820380516001836020036101000a031916815260200191505b509250505060405180910390f35b34801561029c57600080fd5b506102ef60048036038101908080359060200190929190803563ffffffff16906020019092919080359060200190929190803563ffffffff1690602001909291908035906020019092919050505061073f565b6040518082815260200191505060405180910390f35b34801561031157600080fd5b5061033d60048036038101908080359060200190929190803560ff16906020019092919050505061084d565b6040518082815260200191505060405180910390f35b34801561035f57600080fd5b506103a86004803603810190808035906020019092919080359060200190929190803563ffffffff169060200190929190803563ffffffff169060200190929190505050610861565b604051808381526020018260ff1660ff1681526020019250505060405180910390f35b3480156103d757600080fd5b506103f66004803603810190808035906020019092919050505061087d565b604051808260ff1660ff16815260200191505060405180910390f35b34801561041e57600080fd5b5061043d6004803603810190808035906020019092919050505061088f565b6040518082815260200191505060405180910390f35b34801561045f57600080fd5b5061047e600480360381019080803590602001909291905050506108a1565b604051808260ff1660ff16815260200191505060405180910390f35b600080600080600080891180156104b15750600088115b80156104c3575060008763ffffffff16115b80156104de5750620f424063ffffffff168763ffffffff1611155b15156104e957600080fd5b60008614156104fb576000945061056d565b620f424063ffffffff168763ffffffff16141561052e578761051d8a886108b3565b81151561052657fe5b04945061056d565b61053886896108e6565b9150610549828989620f4240610904565b80945081955050508260ff1661055f8a866108b3565b9060020a9004905088810394505b50505050949350505050565b6000610584826109ff565b9050919050565b600061059682610fce565b9050919050565b60008060008060008060008a1180156105b65750600089115b80156105c8575060008863ffffffff16115b80156105e35750620f424063ffffffff168863ffffffff1611155b80156105ef5750898711155b15156105fa57600080fd5b600087141561060c5760009550610694565b8987141561061c57889550610694565b620f424063ffffffff168863ffffffff16141561064f578961063e8a896108b3565b81151561064757fe5b049550610694565b868a0392506106638a84620f42408b610904565b809550819650505061067589866108b3565b91508360ff16899060020a0290508481830381151561069057fe5b0495505b5050505050949350505050565b60008054600181600116156101000203166002900480601f0160208091040260200160405190810160405280929190818152602001828054600181600116156101000203166002900480156107375780601f1061070c57610100808354040283529160200191610737565b820191906000526020600020905b81548152906001019060200180831161071a57829003601f168201915b505050505081565b60008060008060008060008b11801561075e575060008a63ffffffff16115b80156107795750620f424063ffffffff168a63ffffffff1611155b80156107855750600089115b8015610797575060008863ffffffff16115b80156107b25750620f424063ffffffff168863ffffffff1611155b15156107bd57600080fd5b8763ffffffff168a63ffffffff1614156107f6576107db8b886108e6565b6107e58a896108b3565b8115156107ee57fe5b04955061083f565b6108008b886108e6565b925061080e838c8c8b610904565b809550819650505061082089866108b3565b91508360ff16899060020a0290508481830381151561083b57fe5b0495505b505050505095945050505050565b60006108598383611104565b905092915050565b60008061087086868686610904565b9150915094509492505050565b600061088882611528565b9050919050565b600061089a826115eb565b9050919050565b60006108ac82611bab565b9050919050565b600080828402905060008414806108d457508284828115156108d157fe5b04145b15156108dc57fe5b8091505092915050565b60008082840190508381101515156108fa57fe5b8091505092915050565b6000806000806000807002000000000000000000000000000000008a10151561092c57600080fd5b886f800000000000000000000000000000008b0281151561094957fe5b04925070015bf0a8b1457695355fb8ac404e7a79e38310156109755761096e836109ff565b9350610981565b61097e83610fce565b93505b8663ffffffff168863ffffffff16850281151561099a57fe5b0491507008000000000000000000000000000000008210156109ca576109bf826115eb565b607f955095506109f2565b6109d382611528565b90506109ec81607f0360ff16839060020a900482611104565b81955095505b5050505094509492505050565b60008060008060008093506fd3094c70f034de4b96ff7d5b6f99fcd886101515610a69576f40000000000000000000000000000000840193506fd3094c70f034de4b96ff7d5b6f99fcd86f800000000000000000000000000000008702811515610a6557fe5b0495505b6fa45af1e1f40c333b3de1db4dd55f29a786101515610ac8576f20000000000000000000000000000000840193506fa45af1e1f40c333b3de1db4dd55f29a76f800000000000000000000000000000008702811515610ac457fe5b0495505b6f910b022db7ae67ce76b441c27035c6a186101515610b27576f10000000000000000000000000000000840193506f910b022db7ae67ce76b441c27035c6a16f800000000000000000000000000000008702811515610b2357fe5b0495505b6f88415abbe9a76bead8d00cf112e4d4a886101515610b86576f08000000000000000000000000000000840193506f88415abbe9a76bead8d00cf112e4d4a86f800000000000000000000000000000008702811515610b8257fe5b0495505b6f84102b00893f64c705e841d5d4064bd386101515610be5576f04000000000000000000000000000000840193506f84102b00893f64c705e841d5d4064bd36f800000000000000000000000000000008702811515610be157fe5b0495505b6f8204055aaef1c8bd5c3259f4822735a286101515610c44576f02000000000000000000000000000000840193506f8204055aaef1c8bd5c3259f4822735a26f800000000000000000000000000000008702811515610c4057fe5b0495505b6f810100ab00222d861931c15e39b44e9986101515610ca3576f01000000000000000000000000000000840193506f810100ab00222d861931c15e39b44e996f800000000000000000000000000000008702811515610c9f57fe5b0495505b6f808040155aabbbe9451521693554f73386101515610d01576e800000000000000000000000000000840193506f808040155aabbbe9451521693554f7336f800000000000000000000000000000008702811515610cfd57fe5b0495505b6f80000000000000000000000000000000860392508291506f80000000000000000000000000000000838402811515610d3657fe5b04905070010000000000000000000000000000000083700100000000000000000000000000000000038302811515610d6a57fe5b04840193506f80000000000000000000000000000000818302811515610d8c57fe5b049150700200000000000000000000000000000000836faaaaaaaaaaaaaaaaaaaaaaaaaaaaaaaa038302811515610dbf57fe5b04840193506f80000000000000000000000000000000818302811515610de157fe5b049150700300000000000000000000000000000000836f99999999999999999999999999999999038302811515610e1457fe5b04840193506f80000000000000000000000000000000818302811515610e3657fe5b049150700400000000000000000000000000000000836f92492492492492492492492492492492038302811515610e6957fe5b04840193506f80000000000000000000000000000000818302811515610e8b57fe5b049150700500000000000000000000000000000000836f8e38e38e38e38e38e38e38e38e38e38e038302811515610ebe57fe5b04840193506f80000000000000000000000000000000818302811515610ee057fe5b049150700600000000000000000000000000000000836f8ba2e8ba2e8ba2e8ba2e8ba2e8ba2e8b038302811515610f1357fe5b04840193506f80000000000000000000000000000000818302811515610f3557fe5b049150700700000000000000000000000000000000836f89d89d89d89d89d89d89d89d89d89d89038302811515610f6857fe5b04840193506f80000000000000000000000000000000818302811515610f8a57fe5b049150700800000000000000000000000000000000836f88888888888888888888888888888888038302811515610fbd57fe5b048401935083945050505050919050565b600080600080600092507001000000000000000000000000000000008510151561103e576110166f800000000000000000000000000000008681151561101057fe5b04611bab565b91508160ff16859060020a900494506f800000000000000000000000000000008260ff160292505b6f800000000000000000000000000000008511156110cc57607f90505b60008160ff1611156110cb576f8000000000000000000000000000000085860281151561108457fe5b049450700100000000000000000000000000000000851015156110bf576001859060020a900494506001810360ff1660019060020a02830192505b8060019003905061105b565b5b6f05b9de1d10bf4103d647b0955897ba806f03f80fe03f80fe03f80fe03f80fe03f884028115156110f957fe5b049350505050919050565b6000806000849150600090508360ff168583029060020a900491506f03442c4e6074a82f1797f72ac00000008202810190508360ff168583029060020a900491506f0116b96f757c380fb287fd0e400000008202810190508360ff168583029060020a900491506e45ae5bdd5f0e03eca1ff43900000008202810190508360ff168583029060020a900491506e0defabf91302cd95b9ffda500000008202810190508360ff168583029060020a900491506e02529ca9832b22439efff9b80000008202810190508360ff168583029060020a900491506d54f1cf12bd04e516b6da880000008202810190508360ff168583029060020a900491506d0a9e39e257a09ca2d6db510000008202810190508360ff168583029060020a900491506d012e066e7b839fa050c3090000008202810190508360ff168583029060020a900491506c1e33d7d926c329a1ad1a8000008202810190508360ff168583029060020a900491506c02bee513bdb4a6b19b5f8000008202810190508360ff168583029060020a900491506b3a9316fa79b88eccf2a000008202810190508360ff168583029060020a900491506b048177ebe1fa8123752000008202810190508360ff168583029060020a900491506a5263fe90242dcbacf000008202810190508360ff168583029060020a900491506a057e22099c030d941000008202810190508360ff168583029060020a900491506957e22099c030d94100008202810190508360ff168583029060020a9004915069052b6b545699763100008202810190508360ff168583029060020a90049150684985f67696bf7480008202810190508360ff168583029060020a900491506803dea12ea99e4980008202810190508360ff168583029060020a900491506731880f2214b6e0008202810190508360ff168583029060020a9004915067025bcff56eb360008202810190508360ff168583029060020a90049150661b722e10ab10008202810190508360ff168583029060020a900491506601317c700770008202810190508360ff168583029060020a90049150650cba84aafa008202810190508360ff168583029060020a900491506482573a0a008202810190508360ff168583029060020a900491506405035ad9008202810190508360ff168583029060020a90049150632f881b008202810190508360ff168583029060020a900491506301b293408202810190508360ff168583029060020a90049150620efc408202810190508360ff168583029060020a90049150617fe08202810190508360ff168583029060020a900491506104208202810190508360ff168583029060020a9004915060218202810190508360ff168583029060020a9004915060018202810190508360ff1660019060020a02856f0688589cc0e9505e2f2fee55800000008381151561151b57fe5b0401019250505092915050565b60008060008060209250607f91505b8160ff166001840160ff16101561158957600282840160ff1681151561155957fe5b0490508460018260ff1660808110151561156f57fe5b015410151561158057809250611584565b8091505b611537565b8460018360ff1660808110151561159c57fe5b01541015156115ad578193506115e3565b8460018460ff166080811015156115c057fe5b01541015156115d1578293506115e3565b600015156115de57600080fd5b600093505b505050919050565b600080600080600092506f100000000000000000000000000000008581151561161057fe5b0691508190506f8000000000000000000000000000000082820281151561163357fe5b0490506710e1b3be415a00008102830192506f8000000000000000000000000000000082820281151561166257fe5b0490506705a0913f6b1e00008102830192506f8000000000000000000000000000000082820281151561169157fe5b049050670168244fdac780008102830192506f800000000000000000000000000000008282028115156116c057fe5b049050664807432bc180008102830192506f800000000000000000000000000000008282028115156116ee57fe5b049050660c0135dca040008102830192506f8000000000000000000000000000000082820281151561171c57fe5b0490506601b707b1cdc0008102830192506f8000000000000000000000000000000082820281151561174a57fe5b0490506536e0f639b8008102830192506f8000000000000000000000000000000082820281151561177757fe5b049050650618fee9f8008102830192506f800000000000000000000000000000008282028115156117a457fe5b049050649c197dcc008102830192506f800000000000000000000000000000008282028115156117d057fe5b049050640e30dce4008102830192506f800000000000000000000000000000008282028115156117fc57fe5b04905064012ebd13008102830192506f8000000000000000000000000000000082820281151561182857fe5b0490506317499f008102830192506f8000000000000000000000000000000082820281151561185357fe5b0490506301a9d4808102830192506f8000000000000000000000000000000082820281151561187e57fe5b049050621c63808102830192506f800000000000000000000000000000008282028115156118a857fe5b0490506201c6388102830192506f800000000000000000000000000000008282028115156118d257fe5b049050611ab88102830192506f800000000000000000000000000000008282028115156118fb57fe5b04905061017c8102830192506f8000000000000000000000000000000082820281151561192457fe5b04905060148102830192506f8000000000000000000000000000000082820281151561194c57fe5b04905060018102830192506f80000000000000000000000000000000826721c3677c82b400008581151561197c57fe5b040101925060006f1000000000000000000000000000000086161415156119d05770018ebef9eac820ae8682b9793ac6d1e7767001c3d6a24ed82218787d624d3e5eba95f984028115156119cc57fe5b0492505b60006f200000000000000000000000000000008616141515611a1f577001368b2fc6f9609fe7aceb46aa619baed470018ebef9eac820ae8682b9793ac6d1e7788402811515611a1b57fe5b0492505b60006f400000000000000000000000000000008616141515611a6d576fbc5ab1b16779be3575bd8f0520a9f21f7001368b2fc6f9609fe7aceb46aa619baed58402811515611a6957fe5b0492505b60006f800000000000000000000000000000008616141515611aba576f454aaa8efe072e7f6ddbab84b40a55c96fbc5ab1b16779be3575bd8f0520a9f21e8402811515611ab657fe5b0492505b60007001000000000000000000000000000000008616141515611b08576f0960aadc109e7a3bf4578099615711ea6f454aaa8efe072e7f6ddbab84b40a55c58402811515611b0457fe5b0492505b60007002000000000000000000000000000000008616141515611b55576e2bf84208204f5977f9a8cf01fdce3d6f0960aadc109e7a3bf4578099615711d78402811515611b5157fe5b0492505b60007004000000000000000000000000000000008616141515611ba0576d03c6ab775dd0b95b4cbee7e65d116e2bf84208204f5977f9a8cf01fdc3078402811515611b9c57fe5b0492505b829350505050919050565b6000806000809150610100841015611be2575b6001841115611bdd576001849060020a90049350600182019150611bbe565b611c2d565b608090505b60008160ff161115611c2c578060ff1660019060020a0284101515611c19578060ff16849060020a9004935080821791505b60018160ff169060020a90049050611be7565b5b81925050509190505600a165627a7a7230582074bafbe711979bee7a20f2fb41609c92de37f02e8331038ed4d110f1a7175ca00029",
  "source": "pragma solidity ^0.4.24;\nimport '../converter/BancorFormula.sol';\n\n/*\n    BancorFormula test helper that exposes some BancorFormula functions\n*/\ncontract TestBancorFormula is BancorFormula {\n    constructor() public {\n    }\n\n    function powerTest(uint256 _baseN, uint256 _baseD, uint32 _expN, uint32 _expD) external view returns (uint256, uint8) {\n        return super.power(_baseN, _baseD, _expN, _expD);\n    }\n\n    function generalLogTest(uint256 x) external pure returns (uint256) {\n        return super.generalLog(x);\n    }\n\n    function floorLog2Test(uint256 _n) external pure returns (uint8) {\n        return super.floorLog2(_n);\n    }\n\n    function findPositionInMaxExpArrayTest(uint256 _x) external view returns (uint8) {\n        return super.findPositionInMaxExpArray(_x);\n    }\n\n    function generalExpTest(uint256 _x, uint8 _precision) external pure returns (uint256) {\n        return super.generalExp(_x, _precision);\n    }\n\n    function optimalLogTest(uint256 x) external pure returns (uint256) {\n        return super.optimalLog(x);\n    }\n\n    function optimalExpTest(uint256 x) external pure returns (uint256) {\n        return super.optimalExp(x);\n    }\n}\n",
  "sourcePath": "/Users/billy/sol/BatchedBondingCurves/contracts/BancorContracts/helpers/TestBancorFormula.sol",
  "compiler": {
    "name": "solc",
    "version": "0.4.24+commit.e67f0147.Emscripten.clang"
  },
  "schemaVersion": "2.0.1",
  "updatedAt": "2018-12-19T15:23:21.446Z"
}