{
  "contractName": "TestFeatures",
  "abi": [
    {
      "constant": true,
      "inputs": [],
      "name": "features",
      "outputs": [
        {
          "name": "",
          "type": "address"
        }
      ],
      "payable": false,
      "stateMutability": "view",
      "type": "function"
    },
    {
      "inputs": [
        {
          "name": "_features",
          "type": "address"
        }
      ],
      "payable": false,
      "stateMutability": "nonpayable",
      "type": "constructor"
    },
    {
      "constant": false,
      "inputs": [
        {
          "name": "_features",
          "type": "uint256"
        },
        {
          "name": "_enable",
          "type": "bool"
        }
      ],
      "name": "enableFeatures",
      "outputs": [],
      "payable": false,
      "stateMutability": "nonpayable",
      "type": "function"
    }
  ],
  "bytecode": "0x608060405234801561001057600080fd5b5060405160208061026d83398101806040528101908080519060200190929190505050806000806101000a81548173ffffffffffffffffffffffffffffffffffffffff021916908373ffffffffffffffffffffffffffffffffffffffff160217905550506101ea806100836000396000f30060806040526004361061004c576000357c0100000000000000000000000000000000000000000000000000000000900463ffffffff1680632b521416146100515780632c7077c0146100a8575b600080fd5b34801561005d57600080fd5b506100666100e1565b604051808273ffffffffffffffffffffffffffffffffffffffff1673ffffffffffffffffffffffffffffffffffffffff16815260200191505060405180910390f35b3480156100b457600080fd5b506100df60048036038101908080359060200190929190803515159060200190929190505050610106565b005b6000809054906101000a900473ffffffffffffffffffffffffffffffffffffffff1681565b6000809054906101000a900473ffffffffffffffffffffffffffffffffffffffff1673ffffffffffffffffffffffffffffffffffffffff16632c7077c083836040518363ffffffff167c0100000000000000000000000000000000000000000000000000000000028152600401808381526020018215151515815260200192505050600060405180830381600087803b1580156101a257600080fd5b505af11580156101b6573d6000803e3d6000fd5b5050505050505600a165627a7a72305820d54c65f3364d7073617a365735755822a03f16143b599d5c492fb2440a37592c0029",
  "source": "pragma solidity ^0.4.24;\nimport '../utility/interfaces/IContractFeatures.sol';\n\n/*\n    Test helper that uses the ContractFeatures contract\n*/\ncontract TestFeatures {\n    IContractFeatures public features;\n\n    constructor(IContractFeatures _features) public {\n        features = _features;\n    }\n\n    function enableFeatures(uint256 _features, bool _enable) public {\n        features.enableFeatures(_features, _enable);\n    }\n}\n",
  "sourcePath": "/home/volt/tmp/BatchedBondingCurves/contracts/BancorContracts/helpers/TestFeatures.sol",
  "compiler": {
    "name": "solc",
    "version": "0.4.24+commit.e67f0147.Emscripten.clang"
  },
  "schemaVersion": "3.0.0-beta.0",
  "updatedAt": "2019-01-02T14:26:53.689Z"
}