{
  "contractName": "Whitelist",
  "abi": [
    {
      "constant": false,
      "inputs": [],
      "name": "acceptOwnership",
      "outputs": [],
      "payable": false,
      "stateMutability": "nonpayable",
      "type": "function"
    },
    {
      "constant": true,
      "inputs": [],
      "name": "owner",
      "outputs": [
        {
          "name": "",
          "type": "address"
        }
      ],
      "payable": false,
      "stateMutability": "view",
      "type": "function"
    },
    {
      "constant": true,
      "inputs": [],
      "name": "newOwner",
      "outputs": [
        {
          "name": "",
          "type": "address"
        }
      ],
      "payable": false,
      "stateMutability": "view",
      "type": "function"
    },
    {
      "constant": false,
      "inputs": [
        {
          "name": "_newOwner",
          "type": "address"
        }
      ],
      "name": "transferOwnership",
      "outputs": [],
      "payable": false,
      "stateMutability": "nonpayable",
      "type": "function"
    },
    {
      "inputs": [],
      "payable": false,
      "stateMutability": "nonpayable",
      "type": "constructor"
    },
    {
      "anonymous": false,
      "inputs": [
        {
          "indexed": false,
          "name": "_address",
          "type": "address"
        }
      ],
      "name": "AddressAddition",
      "type": "event"
    },
    {
      "anonymous": false,
      "inputs": [
        {
          "indexed": false,
          "name": "_address",
          "type": "address"
        }
      ],
      "name": "AddressRemoval",
      "type": "event"
    },
    {
      "anonymous": false,
      "inputs": [
        {
          "indexed": true,
          "name": "_prevOwner",
          "type": "address"
        },
        {
          "indexed": true,
          "name": "_newOwner",
          "type": "address"
        }
      ],
      "name": "OwnerUpdate",
      "type": "event"
    },
    {
      "constant": true,
      "inputs": [
        {
          "name": "_address",
          "type": "address"
        }
      ],
      "name": "isWhitelisted",
      "outputs": [
        {
          "name": "",
          "type": "bool"
        }
      ],
      "payable": false,
      "stateMutability": "view",
      "type": "function"
    },
    {
      "constant": false,
      "inputs": [
        {
          "name": "_address",
          "type": "address"
        }
      ],
      "name": "addAddress",
      "outputs": [],
      "payable": false,
      "stateMutability": "nonpayable",
      "type": "function"
    },
    {
      "constant": false,
      "inputs": [
        {
          "name": "_addresses",
          "type": "address[]"
        }
      ],
      "name": "addAddresses",
      "outputs": [],
      "payable": false,
      "stateMutability": "nonpayable",
      "type": "function"
    },
    {
      "constant": false,
      "inputs": [
        {
          "name": "_address",
          "type": "address"
        }
      ],
      "name": "removeAddress",
      "outputs": [],
      "payable": false,
      "stateMutability": "nonpayable",
      "type": "function"
    },
    {
      "constant": false,
      "inputs": [
        {
          "name": "_addresses",
          "type": "address[]"
        }
      ],
      "name": "removeAddresses",
      "outputs": [],
      "payable": false,
      "stateMutability": "nonpayable",
      "type": "function"
    }
  ],
  "bytecode": "0x608060405234801561001057600080fd5b50336000806101000a81548173ffffffffffffffffffffffffffffffffffffffff021916908373ffffffffffffffffffffffffffffffffffffffff160217905550610a5b806100606000396000f300608060405260043610610099576000357c0100000000000000000000000000000000000000000000000000000000900463ffffffff1680633628731c1461009e57806338eada1c146101045780633af32abf146101475780634ba79dfe146101a257806379ba5097146101e55780638da5cb5b146101fc578063a84eb99914610253578063d4ee1d90146102b9578063f2fde38b14610310575b600080fd5b3480156100aa57600080fd5b5061010260048036038101908080359060200190820180359060200190808060200260200160405190810160405280939291908181526020018383602002808284378201915050505050509192919290505050610353565b005b34801561011057600080fd5b50610145600480360381019080803573ffffffffffffffffffffffffffffffffffffffff169060200190929190505050610393565b005b34801561015357600080fd5b50610188600480360381019080803573ffffffffffffffffffffffffffffffffffffffff169060200190929190505050610542565b604051808215151515815260200191505060405180910390f35b3480156101ae57600080fd5b506101e3600480360381019080803573ffffffffffffffffffffffffffffffffffffffff169060200190929190505050610598565b005b3480156101f157600080fd5b506101fa61070a565b005b34801561020857600080fd5b506102116108a9565b604051808273ffffffffffffffffffffffffffffffffffffffff1673ffffffffffffffffffffffffffffffffffffffff16815260200191505060405180910390f35b34801561025f57600080fd5b506102b7600480360381019080803590602001908201803590602001908080602002602001604051908101604052809392919081815260200183836020028082843782019150505050505091929192905050506108ce565b005b3480156102c557600080fd5b506102ce61090e565b604051808273ffffffffffffffffffffffffffffffffffffffff1673ffffffffffffffffffffffffffffffffffffffff16815260200191505060405180910390f35b34801561031c57600080fd5b50610351600480360381019080803573ffffffffffffffffffffffffffffffffffffffff169060200190929190505050610934565b005b60008090505b815181101561038f57610382828281518110151561037357fe5b90602001906020020151610393565b8080600101915050610359565b5050565b6000809054906101000a900473ffffffffffffffffffffffffffffffffffffffff1673ffffffffffffffffffffffffffffffffffffffff163373ffffffffffffffffffffffffffffffffffffffff161415156103ee57600080fd5b80600073ffffffffffffffffffffffffffffffffffffffff168173ffffffffffffffffffffffffffffffffffffffff161415151561042b57600080fd5b600260008373ffffffffffffffffffffffffffffffffffffffff1673ffffffffffffffffffffffffffffffffffffffff16815260200190815260200160002060009054906101000a900460ff16156104825761053e565b6001600260008473ffffffffffffffffffffffffffffffffffffffff1673ffffffffffffffffffffffffffffffffffffffff16815260200190815260200160002060006101000a81548160ff0219169083151502179055507f2c51f80053e9ee7518567e43b2f8e8b48f50cf10daede6d11893df9ad49e4a8a82604051808273ffffffffffffffffffffffffffffffffffffffff1673ffffffffffffffffffffffffffffffffffffffff16815260200191505060405180910390a15b5050565b6000600260008373ffffffffffffffffffffffffffffffffffffffff1673ffffffffffffffffffffffffffffffffffffffff16815260200190815260200160002060009054906101000a900460ff169050919050565b6000809054906101000a900473ffffffffffffffffffffffffffffffffffffffff1673ffffffffffffffffffffffffffffffffffffffff163373ffffffffffffffffffffffffffffffffffffffff161415156105f357600080fd5b600260008273ffffffffffffffffffffffffffffffffffffffff1673ffffffffffffffffffffffffffffffffffffffff16815260200190815260200160002060009054906101000a900460ff16151561064b57610707565b6000600260008373ffffffffffffffffffffffffffffffffffffffff1673ffffffffffffffffffffffffffffffffffffffff16815260200190815260200160002060006101000a81548160ff0219169083151502179055507f7ec2df28665f8610f9b1d2f74faae35dbc6bd58684a1194a6dfc31584953f03b81604051808273ffffffffffffffffffffffffffffffffffffffff1673ffffffffffffffffffffffffffffffffffffffff16815260200191505060405180910390a15b50565b600160009054906101000a900473ffffffffffffffffffffffffffffffffffffffff1673ffffffffffffffffffffffffffffffffffffffff163373ffffffffffffffffffffffffffffffffffffffff1614151561076657600080fd5b600160009054906101000a900473ffffffffffffffffffffffffffffffffffffffff1673ffffffffffffffffffffffffffffffffffffffff166000809054906101000a900473ffffffffffffffffffffffffffffffffffffffff1673ffffffffffffffffffffffffffffffffffffffff167f343765429aea5a34b3ff6a3785a98a5abb2597aca87bfbb58632c173d585373a60405160405180910390a3600160009054906101000a900473ffffffffffffffffffffffffffffffffffffffff166000806101000a81548173ffffffffffffffffffffffffffffffffffffffff021916908373ffffffffffffffffffffffffffffffffffffffff1602179055506000600160006101000a81548173ffffffffffffffffffffffffffffffffffffffff021916908373ffffffffffffffffffffffffffffffffffffffff160217905550565b6000809054906101000a900473ffffffffffffffffffffffffffffffffffffffff1681565b60008090505b815181101561090a576108fd82828151811015156108ee57fe5b90602001906020020151610598565b80806001019150506108d4565b5050565b600160009054906101000a900473ffffffffffffffffffffffffffffffffffffffff1681565b6000809054906101000a900473ffffffffffffffffffffffffffffffffffffffff1673ffffffffffffffffffffffffffffffffffffffff163373ffffffffffffffffffffffffffffffffffffffff1614151561098f57600080fd5b6000809054906101000a900473ffffffffffffffffffffffffffffffffffffffff1673ffffffffffffffffffffffffffffffffffffffff168173ffffffffffffffffffffffffffffffffffffffff16141515156109eb57600080fd5b80600160006101000a81548173ffffffffffffffffffffffffffffffffffffffff021916908373ffffffffffffffffffffffffffffffffffffffff160217905550505600a165627a7a723058208db0f4c045859e47ce5a6962c205da4b80b44213ccbeecfac59017a0e7b71c070029",
  "source": "pragma solidity ^0.4.24;\nimport './Owned.sol';\nimport './Utils.sol';\nimport './interfaces/IWhitelist.sol';\n\n/**\n    Whitelist\n\n    The contract manages a list of whitelisted addresses\n*/\ncontract Whitelist is IWhitelist, Owned, Utils {\n    mapping (address => bool) private whitelist;\n\n    event AddressAddition(address _address);\n    event AddressRemoval(address _address);\n\n    /**\n        @dev constructor\n    */\n    constructor() public {\n    }\n\n    // allows execution by a whitelisted address only\n    modifier whitelistedOnly() {\n        require(whitelist[msg.sender]);\n        _;\n    }\n\n    /**\n        @dev returns true if a given address is whitelisted, false if not\n\n        @param _address address to check\n\n        @return true if the address is whitelisted, false if not\n    */\n    function isWhitelisted(address _address) public view returns (bool) {\n        return whitelist[_address];\n    }\n\n    /**\n        @dev adds a given address to the whitelist\n\n        @param _address address to add\n    */\n    function addAddress(address _address)\n        ownerOnly\n        validAddress(_address)\n        public \n    {\n        if (whitelist[_address]) // checks if the address is already whitelisted\n            return;\n\n        whitelist[_address] = true;\n        emit AddressAddition(_address);\n    }\n\n    /**\n        @dev adds a list of addresses to the whitelist\n\n        @param _addresses addresses to add\n    */\n    function addAddresses(address[] _addresses) public {\n        for (uint256 i = 0; i < _addresses.length; i++) {\n            addAddress(_addresses[i]);\n        }\n    }\n\n    /**\n        @dev removes a given address from the whitelist\n\n        @param _address address to remove\n    */\n    function removeAddress(address _address) ownerOnly public {\n        if (!whitelist[_address]) // checks if the address is actually whitelisted\n            return;\n\n        whitelist[_address] = false;\n        emit AddressRemoval(_address);\n    }\n\n    /**\n        @dev removes a list of addresses from the whitelist\n\n        @param _addresses addresses to remove\n    */\n    function removeAddresses(address[] _addresses) public {\n        for (uint256 i = 0; i < _addresses.length; i++) {\n            removeAddress(_addresses[i]);\n        }\n    }\n}\n",
  "sourcePath": "/home/volt/tmp/BatchedBondingCurves/contracts/BancorContracts/utility/Whitelist.sol",
  "compiler": {
    "name": "solc",
    "version": "0.4.24+commit.e67f0147.Emscripten.clang"
  },
  "schemaVersion": "3.0.0-beta.0",
  "updatedAt": "2019-01-02T14:26:53.717Z"
}